:04000000800000007c
:04000100bcc90ab0bc
:04000200bd48fb30ca
:04000300bd96a905f8
:04000400bdc8bd3680
:04000500bdfab2731b
:04000600be1640835f
:04000700be2f10a256
:04000800be47c5c268
:04000900be605c1366
:04000a00be78cfcc21
:04000b00be888e938a
:04000c00be94a031cd
:04000d00bea09ae512
:04000e00beac7cd434
:04000f00beb8442a09
:04001000bec3ef1567
:04001100becf7bca19
:04001200bedae880ea
:04001300bee633759d
:04001400bef15aeaf5
:04001500befc5d27a9
:04001600bf039c3d4b
:04001700bf08f59b8e
:04001800bf0e39da04
:04001900bf13682a7f
:04001a00bf187fc0cc
:04001b00bf1d7fd1b5
:04001c00bf226799ff
:04001d00bf2736566d
:04001e00bf2beb4abf
:04001f00bf3085bbae
:04002000bf3504f3f1
:04002100bf39684239
:04002200bf3daef937
:04002300bf41d87091
:04002400bf45e403ed
:04002500bf49d112ec
:04002600bf4d9f0229
:04002700bf514d3d3b
:04002800bf54db31b5
:04002900bf58485321
:04002a00bf5b941a0a
:04002b00bf5ebe05f1
:04002c00bf61c59853
:04002d00bf64aa59a9
:04002e00bf676bd865
:04002f00bf6a09a7f4
:04003000bf6c835ec0
:04003100bf6ed89e28
:04003200bf71090889
:04003300bf7314473c
:04003400bf74fa0b90
:04003500bf76ba07d1
:04003600bf7853f844
:04003700bf79c79d29
:04003800bf7b14beb8
:04003900bf7c3b2825
:04003a00bf7d3aaca0
:04003b00bf7e13244d
:04003c00bf7ec46d52
:04003d00bf7f4e6dc6
:04003e00bf7fb10fc0
:04003f00bf7fec4350
:04004000bf8000007d
:04004100bf7fec434e
:04004200bf7fb10fbc
:04004300bf7f4e6dc0
:04004400bf7ec46d4a
:04004500bf7e132443
:04004600bf7d3aac94
:04004700bf7c3b2817
:04004800bf7b14bea8
:04004900bf79c79d17
:04004a00bf7853f830
:04004b00bf76ba07bb
:04004c00bf74fa0b78
:04004d00bf73144722
:04004e00bf7109086d
:04004f00bf6ed89e0a
:04005000bf6c835ea0
:04005100bf6a09a7d2
:04005200bf676bd841
:04005300bf64aa5983
:04005400bf61c5982b
:04005500bf5ebe05c7
:04005600bf5b941ade
:04005700bf584853f3
:04005800bf54db3185
:04005900bf514d3d09
:04005a00bf4d9f02f5
:04005b00bf49d112b6
:04005c00bf45e403b5
:04005d00bf41d87057
:04005e00bf3daef9fb
:04005f00bf396842fb
:04006000bf3504f3b1
:04006100bf3085bb6c
:04006200bf2beb4a7b
:04006300bf27365627
:04006400bf226799b7
:04006500bf1d7fd16b
:04006600bf187fc080
:04006700bf13682a31
:04006800bf0e39dab4
:04006900bf08f59b3c
:04006a00bf039c3df7
:04006b00befc5d2753
:04006c00bef15aea9d
:04006d00bee6337543
:04006e00bedae8808e
:04006f00becf7bcabb
:04007000bec3ef1507
:04007100beb8442aa7
:04007200beac7cd4d0
:04007300bea09ae5ac
:04007400be94a03165
:04007500be888e9320
:04007600be78cfccb5
:04007700be605c13f8
:04007800be47c5c2f8
:04007900be2f10a2e4
:04007a00be164083eb
:04007b00bdfab273a5
:04007c00bdc8bd3608
:04007d00bd96a9057e
:04007e00bd48fb304e
:04007f00bcc90ab03e
:04008000a50d313267
:040081003cc90ab0bc
:040082003d48fb30ca
:040083003d96a905f8
:040084003dc8bd3680
:040085003dfab2731b
:040086003e1640835f
:040087003e2f10a256
:040088003e47c5c268
:040089003e605c1366
:04008a003e78cfcc21
:04008b003e888e938a
:04008c003e94a031cd
:04008d003ea09ae512
:04008e003eac7cd434
:04008f003eb8442a09
:040090003ec3ef1567
:040091003ecf7bca19
:040092003edae880ea
:040093003ee633759d
:040094003ef15aeaf5
:040095003efc5d27a9
:040096003f039c3d4b
:040097003f08f59b8e
:040098003f0e39da04
:040099003f13682a7f
:04009a003f187fc0cc
:04009b003f1d7fd1b5
:04009c003f226799ff
:04009d003f2736566d
:04009e003f2beb4abf
:04009f003f3085bbae
:0400a0003f3504f3f1
:0400a1003f39684239
:0400a2003f3daef937
:0400a3003f41d87091
:0400a4003f45e403ed
:0400a5003f49d112ec
:0400a6003f4d9f0229
:0400a7003f514d3d3b
:0400a8003f54db31b5
:0400a9003f58485321
:0400aa003f5b941a0a
:0400ab003f5ebe05f1
:0400ac003f61c59853
:0400ad003f64aa59a9
:0400ae003f676bd865
:0400af003f6a09a7f4
:0400b0003f6c835ec0
:0400b1003f6ed89e28
:0400b2003f71090889
:0400b3003f7314473c
:0400b4003f74fa0b90
:0400b5003f76ba07d1
:0400b6003f7853f844
:0400b7003f79c79d29
:0400b8003f7b14beb8
:0400b9003f7c3b2825
:0400ba003f7d3aaca0
:0400bb003f7e13244d
:0400bc003f7ec46d52
:0400bd003f7f4e6dc6
:0400be003f7fb10fc0
:0400bf003f7fec4350
:00000001FF
