:040000003f8000003d
:040001003f7ec46d0d
:040002003f7b14be6e
:040003003f74fa0b41
:040004003f6c835e6c
:040005003f61c598fa
:040006003f54db3157
:040007003f45e4038a
:040008003f3504f389
:040009003f22679992
:04000a003f0e39da92
:04000b003ef15aea7e
:04000c003ec3ef15eb
:04000d003e94a0314c
:04000e003e47c5c2e2
:04000f003dc8bd36f5
:04001000248d3132d8
:04001100bdc8bd3673
:04001200be47c5c25e
:04001300be94a031c6
:04001400bec3ef1563
:04001500bef15aeaf4
:04001600bf0e39da06
:04001700bf22679904
:04001800bf3504f3f9
:04001900bf45e403f8
:04001a00bf54db31c3
:04001b00bf61c59864
:04001c00bf6c835ed4
:04001d00bf74fa0ba7
:04001e00bf7b14bed2
:04001f00bf7ec46d6f
:04002000bf8000009d
:04002100bf7ec46d6d
:04002200bf7b14bece
:04002300bf74fa0ba1
:04002400bf6c835ecc
:04002500bf61c5985a
:04002600bf54db31b7
:04002700bf45e403ea
:04002800bf3504f3e9
:04002900bf226799f2
:04002a00bf0e39daf2
:04002b00bef15aeade
:04002c00bec3ef154b
:04002d00be94a031ac
:04002e00be47c5c242
:04002f00bdc8bd3655
:00000001FF
