:04000000800000007c
:04000100bac90fd594
:04000200bb490fc621
:04000300bb96cbc11c
:04000400bbc90f88dd
:04000500bbfb5330be
:04000600bc16cb5801
:04000700bc2fed021b
:04000800bc490e9051
:04000900bc622fffa7
:04000a00bc7b514b1f
:04000b00bc8a39383a
:04000c00bc96c9b61f
:04000d00bca35a1c1a
:04000e00bcafea6930
:04000f00bcbc7a9b60
:04001000bcc90ab0ad
:04001100bcd59aa61a
:04001200bce22a7aa8
:04001300bceeba2c59
:04001400bcfb49ba2e
:04001500bd03ec90ab
:04001600bd0a342fbc
:04001700bd107bb8e5
:04001800bd16c32c22
:04001900bd1d0a8877
:04001a00bd2351cbe6
:04001b00bd2998f66d
:04001c00bd2fe0070d
:04001d00bd3626fcca
:04001e00bd3c6dd5a3
:04001f00bd42b49199
:04002000bd48fb30ac
:04002100bd4f41afdf
:04002200bd55880e32
:04002300bd5bce4ca7
:04002400bd6214693c
:04002500bd685a62f6
:04002600bd6ea038d3
:04002700bd74e5e9d6
:04002800bd7b2b74fd
:04002900bd80b86c72
:04002a00bd83db0aad
:04002b00bd86fd94fd
:04002c00bd8a200a5f
:04002d00bd8d426ad9
:04002e00bd9064b469
:04002f00bd9386e710
:04003000bd96a905cb
:04003100bd99cb0aa0
:04003200bd9cecf98c
:04003300bda00ecf8f
:04003400bda3308cac
:04003500bda65230e2
:04003600bda973ba33
:04003700bdac952b9c
:04003800bdafb68022
:04003900bdb2d7bbc2
:04003a00bdb5f8da7e
:04003b00bdb919dd55
:04003c00bdbc3ac34a
:04003d00bdbf5b8d5b
:04003e00bdc27c398a
:04003f00bdc59cc6d9
:04004000bdc8bd3644
:04004100bdcbdd86d0
:04004200bdcefdb77b
:04004300bdd21dc845
:04004400bdd53db930
:04004500bdd85d893c
:04004600bddb7d376a
:04004700bdde9cc4ba
:04004800bde1bc2e2c
:04004900bde4db76c1
:04004a00bde7fa9a7a
:04004b00bdeb199a56
:04004c00bdee387657
:04004d00bdf1572e7c
:04004e00bdf475c0c8
:04004f00bdf7942c39
:04005000bdfab273d0
:04005100bdfdd0928f
:04005200be00774530
:04005300be02062eb5
:04005400be03950250
:04005500be0523c2ff
:04005600be06b26ec2
:04005700be08410599
:04005800be09cf8688
:04005900be0b5df38a
:04005a00be0cec4aa2
:04005b00be0e7a8bd0
:04005c00be1008b713
:04005d00be1196cc6e
:04005e00be1324cadf
:04005f00be14b2b267
:04006000be16408305
:04006100be17ce3dbb
:04006200be195be088
:04006300be1ae96b6d
:04006400be1c76de6a
:04006500be1e04387f
:04006600be1f917bad
:04006700be211ea5f3
:04006800be22abb653
:04006900be2438adcc
:04006a00be25c58c5e
:04006b00be27525109
:04006c00be28defcd0
:04006d00be2a6b8daf
:04006e00be2bf804a9
:04006f00be2d8461bd
:04007000be2f10a2ed
:04007100be309cc938
:04007200be3228d49e
:04007300be33b4c420
:04007400be354098bd
:04007500be36cc5077
:04007600be3857ec4d
:04007700be39e36c3f
:04007800be3b6ecf4e
:04007900be3cfa157a
:04007a00be3e853ec3
:04007b00be4010492a
:04007c00be419b37af
:04007d00be43260751
:04007e00be44b0b913
:04007f00be463b4df1
:04008000be47c5c2f0
:04008100be4950180c
:04008200be4ada4f49
:04008300be4c6467a4
:04008400be4dee601f
:04008500be4f7838ba
:04008600be5101f175
:04008700be528b8951
:04008800be5415014c
:04008900be559e586a
:04008a00be57278fa7
:04008b00be58b0a407
:04008c00be5a399788
:04008d00be5bc26a2a
:04008e00be5d4b1aee
:04008f00be5ed3a8d6
:04009000be605c13df
:04009100be61e45c0c
:04009200be636c835a
:04009300be64f486cd
:04009400be667c6662
:04009500be6804221b
:04009600be698bbafa
:04009700be6b132ffa
:04009800be6c9a7f21
:04009900be6e21ab6b
:04009a00be6fa8b2db
:04009b00be712f946f
:04009c00be72b65129
:04009d00be743ce809
:04009e00be75c35a0e
:04009f00be7749a639
:0400a000be78cfcc8b
:0400a100be7a55cb03
:0400a200be7bdba4a2
:0400a300be7d615667
:0400a400be7ee6e155
:0400a500be803622c1
:0400a600be80f8c060
:0400a700be81bb4a11
:0400a800be827dc0d7
:0400a900be834022b0
:0400aa00be8402709e
:0400ab00be84c4aaa1
:0400ac00be8586ceb9
:0400ad00be8648dfe4
:0400ae00be870ada25
:0400af00be87ccc17b
:0400b000be888e93e5
:0400b100be89505064
:0400b200be8a11f7fa
:0400b300be8ad38aa4
:0400b400be8b950763
:0400b500be8c566e39
:0400b600be8d17c024
:0400b700be8dd8fc26
:0400b800be8e9a223c
:0400b900be8f5b3269
:0400ba00be901c2cac
:0400bb00be90dd1006
:0400bc00be919ddd77
:0400bd00be925e94fd
:0400be00be931f3599
:0400bf00be93dfbf4e
:0400c000be94a03119
:0400c100be95608dfb
:0400c200be9620d2f4
:0400c300be96e10004
:0400c400be97a1172b
:0400c500be9861166a
:0400c600be9920fec1
:0400c700be99e0ce30
:0400c800be9aa086b6
:0400c900be9b602753
:0400ca00be9c1faf0a
:0400cb00be9cdf20d8
:0400cc00be9d9e78bf
:0400cd00be9e5db8be
:0400ce00be9f1cdfd6
:0400cf00be9fdbee07
:0400d000bea09ae54f
:0400d100bea159c2b1
:0400d200bea218872b
:0400d300bea2d733bf
:0400d400bea395c56d
:0400d500bea4543f32
:0400d600bea5129f12
:0400d700bea5d0e50d
:0400d800bea68f121f
:0400d900bea74d254c
:0400da00bea80b1f92
:0400db00bea8c8fef5
:0400dc00bea986c46f
:0400dd00beaa446f04
:0400de00beab0201b2
:0400df00beabbf777e
:0400e000beac7cd462
:0400e100bead3a1561
:0400e200beadf73c7c
:0400e300beaeb449b0
:0400e400beaf713a00
:0400e500beb02e106b
:0400e600beb0eacbf3
:0400e700beb1a76b94
:0400e800beb263ef52
:0400e900beb320582a
:0400ea00beb3dca520
:0400eb00beb498d631
:0400ec00beb554ec5d
:0400ed00beb610e6a5
:0400ee00beb6ccc30b
:0400ef00beb788848c
:0400f000beb8442a28
:0400f100beb8ffb2e4
:0400f200beb9bb1eba
:0400f300beba766ead
:0400f400bebb31a0be
:0400f500bebbecb6ec
:0400f600bebca7af36
:0400f700bebd628b9d
:0400f800bebe1d4a21
:0400f900bebed7ebc5
:0400fa00bebf926f84
:0400fb00bec04cd562
:0400fc00bec1071e5c
:0400fd00bec1c14877
:0400fe00bec27b55ae
:0400ff00bec3354403
:04010000bec3ef1576
:04010100bec4a8c808
:04010200bec5625cb8
:04010300bec61bd287
:04010400bec6d52975
:04010500bec78e6281
:04010600bec8477cac
:04010700bec90077f6
:04010800bec9b95360
:04010900beca7210e8
:04010a00becb2aae90
:04010b00becbe32c58
:04010c00becc9b8b3f
:04010d00becd53ca46
:04010e00bece0bea6c
:04010f00becec3eab3
:04011000becf7bca19
:04011100bed0338a9f
:04011200bed0eb2a46
:04011300bed1a2aa0d
:04011400bed25a09f4
:04011500bed31148fc
:04011600bed3c86725
:04011700bed47f646f
:04011800bed53641d9
:04011900bed5ecfd66
:04011a00bed6a39911
:04011b00bed75a13de
:04011c00bed8106bce
:04011d00bed8c6a3df
:04011e00bed97cb911
:04011f00beda32ad65
:04012000bedae880db
:04012100bedb9e3172
:04012200bedc53c12b
:04012300bedd092e06
:04012400beddbe7905
:04012500bede73a225
:04012600bedf28a967
:04012700bedfdd8dcd
:04012800bee0924f54
:04012900bee146eeff
:04012a00bee1fb6acd
:04012b00bee2afc4bd
:04012c00bee363fad1
:04012d00bee4180e06
:04012e00bee4cbfe62
:04012f00bee57fcbdf
:04013000bee633757f
:04013100bee6e6fb45
:04013200bee79a5d2d
:04013300bee84d9c39
:04013400bee900b769
:04013500bee9b3aebe
:04013600beea668136
:04013700beeb1930d2
:04013800beebcbbb94
:04013900beec7e2179
:04013a00beed306383
:04013b00beede280b3
:04013c00beee947906
:04013d00beef464c7f
:04013e00beeff7fb1e
:04013f00bef0a985e0
:04014000bef15aeac8
:04014100bef20c29d5
:04014200bef2bd4309
:04014300bef36e3861
:04014400bef41f07df
:04014500bef4cfb184
:04014600bef580354d
:04014700bef630933d
:04014800bef6e0cb54
:04014900bef790dc91
:04014a00bef840c8f3
:04014b00bef8f08e7c
:04014c00bef9a02d2b
:04014d00befa4fa502
:04014e00befafef700
:04014f00befbae2223
:04015000befc5d276d
:04015100befd0c04df
:04015200befdbabb79
:04015300befe694a39
:04015400beff17b221
:04015500beffc5f331
:04015600bf003a06a6
:04015700bf0090ff56
:04015800bf00e7e419
:04015900bf013eb5ef
:04015a00bf019573d9
:04015b00bf01ec1cd8
:04015c00bf0242b1eb
:04015d00bf02993212
:04015e00bf02ef9f4e
:04015f00bf0345f89d
:04016000bf039c3d00
:04016100bf03f26d79
:04016200bf04488905
:04016300bf049e91a6
:04016400bf04f4845c
:04016500bf054a6226
:04016600bf05a02c05
:04016700bf05f5e2f9
:04016800bf064b8201
:04016900bf06a10e1e
:04016a00bf06f68650
:04016b00bf074be897
:04016c00bf07a136f2
:04016d00bf07f66f63
:04016e00bf084b92e9
:04016f00bf08a0a184
:04017000bf08f59b34
:04017100bf094a7ff9
:04017200bf099f4ed4
:04017300bf09f409c3
:04017400bf0a48adc9
:04017500bf0a9d3de3
:04017600bf0af1b714
:04017700bf0b461c58
:04017800bf0b9a6bb4
:04017900bf0beea525
:04017a00bf0c42c9ab
:04017b00bf0c96d748
:04017c00bf0cead0fa
:04017d00bf0d3eb3c1
:04017e00bf0d92819e
:04017f00bf0de63892
:04018000bf0e39da9b
:04018100bf0e8d65bb
:04018200bf0ee0dbf1
:04018300bf0f343b3b
:04018400bf0f87849e
:04018500bf0fdab816
:04018600bf102dd5a4
:04018700bf1080dc49
:04018800bf10d3cd04
:04018900bf1126a7d5
:04018a00bf11796bbd
:04018b00bf11cc19bb
:04018c00bf121eb0d0
:04018d00bf127130fc
:04018e00bf12c39a3f
:04018f00bf1315ee97
:04019000bf13682a07
:04019100bf13ba508e
:04019200bf140c5f2b
:04019300bf145e58df
:04019400bf14b039ab
:04019500bf1502048c
:04019600bf1553b787
:04019700bf15a55497
:04019800bf15f6d9c0
:04019900bf164847fe
:04019a00bf16999f54
:04019b00bf16eadec3
:04019c00bf173c0746
:04019d00bf178d18e3
:04019e00bf17de1297
:04019f00bf182ef562
:0401a000bf187fc045
:0401a100bf18d07340
:0401a200bf19210f51
:0401a300bf1971947b
:0401a400bf19c200bd
:0401a500bf1a125516
:0401a600bf1a629387
:0401a700bf1ab2b811
:0401a800bf1b02c6b1
:0401a900bf1b52bb6b
:0401aa00bf1ba2993c
:0401ab00bf1bf25f25
:0401ac00bf1c420c26
:0401ad00bf1c91a240
:0401ae00bf1ce11f72
:0401af00bf1d3084bc
:0401b000bf1d7fd11f
:0401b100bf1dcf0699
:0401b200bf1e1e222c
:0401b300bf1e6d26d8
:0401b400bf1ebc129c
:0401b500bf1f0ae579
:0401b600bf1f599f6f
:0401b700bf1fa8417d
:0401b800bf1ff6cba4
:0401b900bf20453be3
:0401ba00bf2093933c
:0401bb00bf20e1d2ae
:0401bc00bf212ff937
:0401bd00bf217e06da
:0401be00bf21cbfb97
:0401bf00bf2219d76b
:0401c000bf2267995a
:0401c100bf22b54361
:0401c200bf2302d382
:0401c300bf23504bbb
:0401c400bf239da90f
:0401c500bf23eaee7c
:0401c600bf24381a00
:0401c700bf24852ca0
:0401c800bf24d22559
:0401c900bf251f042b
:0401ca00bf256bcb17
:0401cb00bf25b8771d
:0401cc00bf26050a3b
:0401cd00bf26518474
:0401ce00bf269de3c8
:0401cf00bf26ea2a33
:0401d000bf273656b9
:0401d100bf2782685a
:0401d200bf27ce6114
:0401d300bf281a40e7
:0401d400bf286605d5
:0401d500bf28b1b0de
:0401d600bf28fd4100
:0401d700bf2948b83c
:0401d800bf29941592
:0401d900bf29df5704
:0401da00bf2a2a808e
:0401db00bf2a758e34
:0401dc00bf2ac082f4
:0401dd00bf2b0b5bce
:0401de00bf2b561bc2
:0401df00bf2ba0bfd3
:0401e000bf2beb4afc
:0401e100bf2c35b941
:0401e200bf2c800f9f
:0401e300bf2cca491a
:0401e400bf2d1469ae
:0401e500bf2d5e6f5d
:0401e600bf2da85928
:0401e700bf2df2290d
:0401e800bf2e3bde0d
:0401e900bf2e857828
:0401ea00bf2ecef75f
:0401eb00bf2f185baf
:0401ec00bf2f61a51b
:0401ed00bf2faad3a3
:0401ee00bf2ff3e646
:0401ef00bf303cde03
:0401f000bf3085bbdc
:0401f100bf30ce7cd1
:0401f200bf311722e0
:0401f300bf315fad0c
:0401f400bf31a81d52
:0401f500bf31f071b5
:0401f600bf3238aa32
:0401f700bf3280c7cc
:0401f800bf32c8c981
:0401f900bf3310af51
:0401fa00bf33587a3d
:0401fb00bf33a02945
:0401fc00bf33e7bc6a
:0401fd00bf342f34a8
:0401fe00bf34768f05
:0401ff00bf34bdcf7d
:04020000bf3504f30f
:04020100bf354bfbbf
:04020200bf3592e78b
:04020300bf35d9b872
:04020400bf36206c75
:04020500bf36670495
:04020600bf36ad7fd3
:04020700bf36f3df2c
:04020800bf373a239f
:04020900bf37804a31
:04020a00bf37c655df
:04020b00bf380c43a9
:04020c00bf3852168f
:04020d00bf3897cb94
:04020e00bf38dd65b3
:04020f00bf3922e1f0
:04021000bf39684248
:04021100bf39ad85bf
:04021200bf39f2ac52
:04021300bf3a37b700
:04021400bf3a7ca4cd
:04021500bf3ac175b6
:04021600bf3b0629bb
:04021700bf3b4ac1de
:04021800bf3b8f3b1e
:04021900bf3bd3987c
:04021a00bf3c17d9f5
:04021b00bf3c5bfc8d
:04021c00bf3ca00340
:04021d00bf3ce3ec13
:04021e00bf3d27b801
:04021f00bf3d6b670d
:04022000bf3daef937
:04022100bf3df26e7d
:04022200bf3e35c5e1
:04022300bf3e78ff63
:04022400bf3ebc1b02
:04022500bf3eff1bbe
:04022600bf3f41fc99
:04022700bf3f84c091
:04022800bf3fc767a6
:04022900bf4009f0d9
:04022a00bf404c5c29
:04022b00bf408ea999
:04022c00bf40d0da25
:04022d00bf4112eccf
:04022e00bf4154e197
:04022f00bf4196b77e
:04023000bf41d87082
:04023100bf421a0ba3
:04023200bf425b89e3
:04023300bf429ce842
:04023400bf42de29be
:04023500bf431f4c58
:04023600bf43605111
:04023700bf43a138e8
:04023800bf43e200de
:04023900bf4422abf1
:04023a00bf44633723
:04023b00bf44a3a574
:04023c00bf44e3f5e3
:04023d00bf4524266f
:04023e00bf4564391b
:04023f00bf45a42de6
:04024000bf45e403cf
:04024100bf4623bbd6
:04024200bf466354fc
:04024300bf46a2ce42
:04024400bf46e22aa5
:04024500bf47216727
:04024600bf476085c9
:04024700bf479f848a
:04024800bf47de6569
:04024900bf481d2766
:04024a00bf485bca84
:04024b00bf489a4ec0
:04024c00bf48d8b31c
:04024d00bf4916fa95
:04024e00bf4955212e
:04024f00bf499329e7
:04025000bf49d112bf
:04025100bf4a0edcb6
:04025200bf4a4c87cc
:04025300bf4a8a1301
:04025400bf4ac77f57
:04025500bf4b04cccb
:04025600bf4b41fa5f
:04025700bf4b7f0911
:04025800bf4bbbf8e5
:04025900bf4bf8c7d8
:04025a00bf4c3578e8
:04025b00bf4c72081a
:04025c00bf4cae796c
:04025d00bf4ceacbdd
:04025e00bf4d26fd6d
:04025f00bf4d63101c
:04026000bf4d9f02ed
:04026100bf4ddad5de
:04026200bf4e1689ec
:04026300bf4e521c1c
:04026400bf4e8d906c
:04026500bf4ec8e4dc
:04026600bf4f04176b
:04026700bf4f3f2b1b
:04026800bf4f7a1feb
:04026900bf4fb4f4db
:04026a00bf4fefa8eb
:04026b00bf502a3b1b
:04026c00bf5064af6c
:04026d00bf509f03dc
:04026e00bf50d9376d
:04026f00bf51134a1e
:04027000bf514d3df0
:04027100bf518710e2
:04027200bf51c0c2f6
:04027300bf51fa5429
:04027400bf5233c67c
:04027500bf526d18ef
:04027600bf52a64984
:04027700bf52df593a
:04027800bf5318490f
:04027900bf53511806
:04027a00bf5389c71e
:04027b00bf53c25556
:04027c00bf53fac3af
:04027d00bf54330f28
:04027e00bf546b3bc3
:04027f00bf54a3477e
:04028000bf54db315b
:04028100bf5512fb58
:04028200bf554aa476
:04028300bf55822cb5
:04028400bf55b99316
:04028500bf55f0d998
:04028600bf5627fe3a
:04028700bf565f02fd
:04028800bf5695e5e3
:04028900bf56cca7e9
:04028a00bf5703480f
:04028b00bf5739c759
:04028c00bf577026c2
:04028d00bf57a6634e
:04028e00bf57dc7ffb
:04028f00bf581279c9
:04029000bf584853b8
:04029100bf587e0bc9
:04029200bf58b3a1fd
:04029300bf58e91651
:04029400bf591e6ac6
:04029500bf59539c5e
:04029600bf5988ad17
:04029700bf59bd9cf2
:04029800bf59f26aee
:04029900bf5a27160b
:04029a00bf5a5ba04c
:04029b00bf5a9009ad
:04029c00bf5ac45031
:04029d00bf5af875d7
:04029e00bf5b2c799d
:04029f00bf5b605a87
:0402a000bf5b941a92
:0402a100bf5bc7b8c0
:0402a200bf5bfb340f
:0402a300bf5c2e8e80
:0402a400bf5c61c713
:0402a500bf5c94ddc9
:0402a600bf5cc7d1a1
:0402a700bf5cfaa39b
:0402a800bf5d2d53b6
:0402a900bf5d5fe1f5
:0402aa00bf5d924d55
:0402ab00bf5dc497d8
:0402ac00bf5df6be7e
:0402ad00bf5e28c345
:0402ae00bf5e5aa62f
:0402af00bf5e8c673b
:0402b000bf5ebe056a
:0402b100bf5eef81bc
:0402b200bf5f20db2f
:0402b300bf5f5212c5
:0402b400bf5f83277e
:0402b500bf5fb4195a
:0402b600bf5fe4e959
:0402b700bf60159679
:0402b800bf604621bc
:0402b900bf60768923
:0402ba00bf60a6cfac
:0402bb00bf60d6f258
:0402bc00bf6106f226
:0402bd00bf6136d017
:0402be00bf61668a2c
:0402bf00bf61962263
:0402c000bf61c598bd
:0402c100bf61f4ea3b
:0402c200bf62241ad9
:0402c300bf6253269d
:0402c400bf62821083
:0402c500bf62b0d78d
:0402c600bf62df7bb9
:0402c700bf630dfc08
:0402c800bf633c5a7a
:0402c900bf636a9510
:0402ca00bf6398acca
:0402cb00bf63c6a1a6
:0402cc00bf63f473a5
:0402cd00bf642221c7
:0402ce00bf644fac0e
:0402cf00bf647d1477
:0402d000bf64aa5904
:0402d100bf64d77bb4
:0402d200bf65047987
:0402d300bf6531547e
:0402d400bf655e0b99
:0402d500bf658aa0d7
:0402d600bf65b71039
:0402d700bf65e35ebe
:0402d800bf660f8866
:0402d900bf663b8e33
:0402da00bf66677123
:0402db00bf66933037
:0402dc00bf66becc6f
:0402dd00bf66ea45c9
:0402de00bf67159948
:0402df00bf6740caeb
:0402e000bf676bd8b1
:0402e100bf6796c19c
:0402e200bf67c187aa
:0402e300bf67ec29dc
:0402e400bf6816a831
:0402e500bf684103aa
:0402e600bf686b3949
:0402e700bf68954c0b
:0402e800bf68bf3cf0
:0402e900bf68e907fa
:0402ea00bf6912ae28
:0402eb00bf693c3279
:0402ec00bf696591f0
:0402ed00bf698ecc8b
:0402ee00bf69b7e449
:0402ef00bf69e0d72c
:0402f000bf6a09a731
:0402f100bf6a32525c
:0402f200bf6a5ad9ac
:0402f300bf6a833c1f
:0402f400bf6aab7bb7
:0402f500bf6ad39574
:0402f600bf6afb8c54
:0402f700bf6b235e58
:0402f800bf6b4b0c81
:0402f900bf6b7295d0
:0402fa00bf6b99fb42
:0402fb00bf6bc13bd9
:0402fc00bf6be85894
:0402fd00bf6c0f5073
:0402fe00bf6c362477
:0402ff00bf6c5cd4a0
:04030000bf6c835eed
:04030100bf6ca9c55f
:04030200bf6cd007f5
:04030300bf6cf624b1
:04030400bf6d1c1d90
:04030500bf6d41f295
:04030600bf6d67a1bf
:04030700bf6d8d2d0c
:04030800bf6db29380
:04030900bf6dd7d518
:04030a00bf6dfcf2d5
:04030b00bf6e21ebb5
:04030c00bf6e46bebc
:04030d00bf6e6b6de7
:04030e00bf6e8ff837
:04030f00bf6eb45dac
:04031000bf6ed89e46
:04031100bf6efcba05
:04031200bf6f20b0e9
:04031300bf6f4483f1
:04031400bf6f68301f
:04031500bf6f8bb873
:04031600bf6faf1beb
:04031700bf6fd25a88
:04031800bf6ff5734b
:04031900bf70186732
:04031a00bf703b373e
:04031b00bf705de171
:04031c00bf708066c8
:04031d00bf70a2c645
:04031e00bf70c501e6
:04031f00bf70e717ad
:04032000bf71090898
:04032100bf712ad4aa
:04032200bf714c7ae1
:04032300bf716dfb3e
:04032400bf718f57bf
:04032500bf71b08e66
:04032600bf71d19f33
:04032700bf71f28c24
:04032800bf7213523b
:04032900bf7233f478
:04032a00bf725470da
:04032b00bf7274c762
:04032c00bf7294f810
:04032d00bf72b504e2
:04032e00bf72d4ebdb
:04032f00bf72f4acf9
:04033000bf7314473c
:04033100bf7333bea5
:04033200bf73530e34
:04033300bf737239e9
:04033400bf73913fc3
:04033500bf73b01fc3
:04033600bf73ced9ea
:04033700bf73ed6e35
:04033800bf740bdda6
:04033900bf742a273c
:04033a00bf74484bf9
:04033b00bf746649dc
:04033c00bf748422e4
:04033d00bf74a1d513
:04033e00bf74bf6267
:04033f00bf74dcc9e2
:04034000bf74fa0b81
:04034100bf75172746
:04034200bf75341d32
:04034300bf7550ed45
:04034400bf756d977d
:04034500bf758a1cda
:04034600bf75a67b5e
:04034700bf75c2b309
:04034800bf75dec6d9
:04034900bf75fab3cf
:04034a00bf76167aea
:04034b00bf76321b2c
:04034c00bf764d9794
:04034d00bf7668ec23
:04034e00bf76841bd7
:04034f00bf769f24b2
:04035000bf76ba07b3
:04035100bf76d4c4db
:04035200bf76ef5b28
:04035300bf7709cc9b
:04035400bf77241734
:04035500bf773e3cf4
:04035600bf77583adb
:04035700bf777213e7
:04035800bf778bc51b
:04035900bf77a55174
:04035a00bf77beb7f4
:04035b00bf77d7f79a
:04035c00bf77f11066
:04035d00bf780a0457
:04035e00bf7822d171
:04035f00bf783b77b1
:04036000bf7853f817
:04036100bf786c52a3
:04036200bf78848656
:04036300bf789c9330
:04036400bf78b47b2f
:04036500bf78cc3b56
:04036600bf78e3d6a3
:04036700bf78fb4a16
:04036800bf791298af
:04036900bf7929bf70
:04036a00bf7940c057
:04036b00bf79579a65
:04036c00bf796e4e99
:04036d00bf7984dcf4
:04036e00bf799b4375
:04036f00bf79b1831e
:04037000bf79c79ded
:04037100bf79dd91e2
:04037200bf79f35efe
:04037300bf7a090440
:04037400bf7a1e84aa
:04037500bf7a33dd3b
:04037600bf7a4910f1
:04037700bf7a5e1ccf
:04037800bf7a7302d3
:04037900bf7a87c1ff
:04037a00bf7a9c5951
:04037b00bf7ab0cbca
:04037c00bf7ac51669
:04037d00bf7ad93a30
:04037e00bf7aed371e
:04037f00bf7b010e31
:04038000bf7b14be6d
:04038100bf7b2848ce
:04038200bf7b3bab57
:04038300bf7b4ee707
:04038400bf7b61fcde
:04038500bf7b74eadc
:04038600bf7b87b200
:04038700bf7b9a534b
:04038800bf7baccdbe
:04038900bf7bbf2057
:04038a00bf7bd14d17
:04038b00bf7be353fe
:04038c00bf7bf5310d
:04038d00bf7c06e942
:04038e00bf7c187a9e
:04038f00bf7c29e521
:04039000bf7c3b28cb
:04039100bf7c4c449d
:04039200bf7c5d3a95
:04039300bf7c6e08b5
:04039400bf7c7eb0fc
:04039500bf7c8f3169
:04039600bf7c9f8aff
:04039700bf7cafbdbb
:04039800bf7cbfc99e
:04039900bf7ccfaea8
:04039a00bf7cdf6cd9
:04039b00bf7cef0331
:04039c00bf7cfe73b1
:04039d00bf7d0dbc57
:04039e00bf7d1cdd26
:04039f00bf7d2bd81b
:0403a000bf7d3aac37
:0403a100bf7d49597a
:0403a200bf7d57dee6
:0403a300bf7d663d77
:0403a400bf7d747431
:0403a500bf7d828511
:0403a600bf7d906e19
:0403a700bf7d9e3048
:0403a800bf7dabcc9e
:0403a900bf7db9401b
:0403aa00bf7dc68cc1
:0403ab00bf7dd3b28d
:0403ac00bf7de0b180
:0403ad00bf7ded889b
:0403ae00bf7dfa38dd
:0403af00bf7e06c245
:0403b000bf7e1324d5
:0403b100bf7e1f5e8e
:0403b200bf7e2b726d
:0403b300bf7e375e74
:0403b400bf7e4323a2
:0403b500bf7e4ec1f8
:0403b600bf7e5a3874
:0403b700bf7e658818
:0403b800bf7e70b0e4
:0403b900bf7e7bb1d7
:0403ba00bf7e868bf1
:0403bb00bf7e913d33
:0403bc00bf7e9bc99c
:0403bd00bf7ea62d2c
:0403be00bf7eb069e5
:0403bf00bf7eba7fc4
:0403c000bf7ec46dcb
:0403c100bf7ece34f9
:0403c200bf7ed7d44f
:0403c300bf7ee14ccc
:0403c400bf7eea9d71
:0403c500bf7ef3c73d
:0403c600bf7efcc931
:0403c700bf7f05a44b
:0403c800bf7f0e588d
:0403c900bf7f16e4f8
:0403ca00bf7f1f4989
:0403cb00bf7f278742
:0403cc00bf7f2f9d23
:0403cd00bf7f378c2b
:0403ce00bf7f3f545a
:0403cf00bf7f46f4b2
:0403d000bf7f4e6d30
:0403d100bf7f55bfd6
:0403d200bf7f5ce9a4
:0403d300bf7f63ec99
:0403d400bf7f6ac7b6
:0403d500bf7f717bfa
:0403d600bf7f780865
:0403d700bf7f7e6df9
:0403d800bf7f84abb4
:0403d900bf7f8ac296
:0403da00bf7f90b1a0
:0403db00bf7f9678d2
:0403dc00bf7f9c182b
:0403dd00bf7fa191ac
:0403de00bf7fa6e354
:0403df00bf7fac0d23
:0403e000bf7fb10f1b
:0403e100bf7fb5ea3b
:0403e200bf7fba9e81
:0403e300bf7fbf2aef
:0403e400bf7fc38f85
:0403e500bf7fc7cc43
:0403e600bf7fcbe228
:0403e700bf7fcfd134
:0403e800bf7fd39769
:0403e900bf7fd737c4
:0403ea00bf7fdaaf48
:0403eb00bf7fde00f2
:0403ec00bf7fe129c5
:0403ed00bf7fe42bbf
:0403ee00bf7fe705e1
:0403ef00bf7fe9b82b
:0403f000bf7fec439c
:0403f100bf7feea735
:0403f200bf7ff0e3f6
:0403f300bf7ff2f8de
:0403f400bf7ff4e6ed
:0403f500bf7ff6ac24
:0403f600bf7ff84a83
:0403f700bf7ff9c10a
:0403f800bf7ffb11b7
:0403f900bf7ffc398d
:0403fa00bf7ffd398b
:0403fb00bf7ffe13af
:0403fc00bf7ffec4fd
:0403fd00bf7fff4e71
:0403fe00bf7fffb10d
:0403ff00bf7fffecd1
:04040000bf800000b9
:04040100bf7fffecce
:04040200bf7fffb108
:04040300bf7fff4e6a
:04040400bf7ffec4f4
:04040500bf7ffe13a4
:04040600bf7ffd397e
:04040700bf7ffc397e
:04040800bf7ffb11a6
:04040900bf7ff9c1f7
:04040a00bf7ff84a6e
:04040b00bf7ff6ac0d
:04040c00bf7ff4e6d4
:04040d00bf7ff2f8c3
:04040e00bf7ff0e3d9
:04040f00bf7feea716
:04041000bf7fec437b
:04041100bf7fe9b808
:04041200bf7fe705bc
:04041300bf7fe42b98
:04041400bf7fe1299c
:04041500bf7fde00c7
:04041600bf7fdaaf1b
:04041700bf7fd73795
:04041800bf7fd39738
:04041900bf7fcfd101
:04041a00bf7fcbe2f3
:04041b00bf7fc7cc0c
:04041c00bf7fc38f4c
:04041d00bf7fbf2ab4
:04041e00bf7fba9e44
:04041f00bf7fb5eafc
:04042000bf7fb10fda
:04042100bf7fac0de0
:04042200bf7fa6e30f
:04042300bf7fa19165
:04042400bf7f9c18e2
:04042500bf7f967887
:04042600bf7f90b153
:04042700bf7f8ac247
:04042800bf7f84ab63
:04042900bf7f7e6da6
:04042a00bf7f780810
:04042b00bf7f717ba3
:04042c00bf7f6ac75d
:04042d00bf7f63ec3e
:04042e00bf7f5ce947
:04042f00bf7f55bf77
:04043000bf7f4e6dcf
:04043100bf7f46f44f
:04043200bf7f3f54f5
:04043300bf7f378cc4
:04043400bf7f2f9dba
:04043500bf7f2787d7
:04043600bf7f1f491c
:04043700bf7f16e489
:04043800bf7f0e581c
:04043900bf7f05a4d8
:04043a00bf7efcc9bc
:04043b00bf7ef3c7c6
:04043c00bf7eea9df8
:04043d00bf7ee14c51
:04043e00bf7ed7d4d2
:04043f00bf7ece347a
:04044000bf7ec46d4a
:04044100bf7eba7f41
:04044200bf7eb06960
:04044300bf7ea62da5
:04044400bf7e9bc913
:04044500bf7e913da8
:04044600bf7e868b64
:04044700bf7e7bb148
:04044800bf7e70b053
:04044900bf7e658885
:04044a00bf7e5a38df
:04044b00bf7e4ec161
:04044c00bf7e432309
:04044d00bf7e375ed9
:04044e00bf7e2b72d0
:04044f00bf7e1f5eef
:04045000bf7e132434
:04045100bf7e06c2a2
:04045200bf7dfa3838
:04045300bf7ded88f4
:04045400bf7de0b1d7
:04045500bf7dd3b2e2
:04045600bf7dc68c14
:04045700bf7db9406c
:04045800bf7dabcced
:04045900bf7d9e3095
:04045a00bf7d906e64
:04045b00bf7d82855a
:04045c00bf7d747478
:04045d00bf7d663dbc
:04045e00bf7d57de29
:04045f00bf7d4959bb
:04046000bf7d3aac76
:04046100bf7d2bd858
:04046200bf7d1cdd61
:04046300bf7d0dbc90
:04046400bf7cfe73e8
:04046500bf7cef0366
:04046600bf7cdf6c0c
:04046700bf7ccfaed9
:04046800bf7cbfc9cd
:04046900bf7cafbde8
:04046a00bf7c9f8a2a
:04046b00bf7c8f3192
:04046c00bf7c7eb023
:04046d00bf7c6e08da
:04046e00bf7c5d3ab8
:04046f00bf7c4c44be
:04047000bf7c3b28ea
:04047100bf7c29e53e
:04047200bf7c187ab9
:04047300bf7c06e95b
:04047400bf7bf53124
:04047500bf7be35313
:04047600bf7bd14d2a
:04047700bf7bbf2068
:04047800bf7baccdcd
:04047900bf7b9a5358
:04047a00bf7b87b20b
:04047b00bf7b74eae5
:04047c00bf7b61fce5
:04047d00bf7b4ee70c
:04047e00bf7b3bab5a
:04047f00bf7b2848cf
:04048000bf7b14be6c
:04048100bf7b010e2e
:04048200bf7aed3719
:04048300bf7ad93a29
:04048400bf7ac51660
:04048500bf7ab0cbbf
:04048600bf7a9c5944
:04048700bf7a87c1f0
:04048800bf7a7302c2
:04048900bf7a5e1cbc
:04048a00bf7a4910dc
:04048b00bf7a33dd24
:04048c00bf7a1e8491
:04048d00bf7a090425
:04048e00bf79f35ee1
:04048f00bf79dd91c3
:04049000bf79c79dcc
:04049100bf79b183fb
:04049200bf799b4350
:04049300bf7984dccd
:04049400bf796e4e70
:04049500bf79579a3a
:04049600bf7940c02a
:04049700bf7929bf41
:04049800bf7912987e
:04049900bf78fb4ae3
:04049a00bf78e3d66e
:04049b00bf78cc3b1f
:04049c00bf78b47bf6
:04049d00bf789c93f5
:04049e00bf78848619
:04049f00bf786c5264
:0404a000bf7853f8d6
:0404a100bf783b776e
:0404a200bf7822d12c
:0404a300bf780a0410
:0404a400bf77f1101d
:0404a500bf77d7f74f
:0404a600bf77beb7a7
:0404a700bf77a55125
:0404a800bf778bc5ca
:0404a900bf77721394
:0404aa00bf77583a86
:0404ab00bf773e3c9d
:0404ac00bf772417db
:0404ad00bf7709cc40
:0404ae00bf76ef5bcb
:0404af00bf76d4c47c
:0404b000bf76ba0752
:0404b100bf769f244f
:0404b200bf76841b72
:0404b300bf7668ecbc
:0404b400bf764d972b
:0404b500bf76321bc1
:0404b600bf76167a7d
:0404b700bf75fab360
:0404b800bf75dec668
:0404b900bf75c2b396
:0404ba00bf75a67be9
:0404bb00bf758a1c63
:0404bc00bf756d9704
:0404bd00bf7550edca
:0404be00bf75341db5
:0404bf00bf751727c7
:0404c000bf74fa0b00
:0404c100bf74dcc95f
:0404c200bf74bf62e2
:0404c300bf74a1d58c
:0404c400bf7484225b
:0404c500bf74664951
:0404c600bf74484b6c
:0404c700bf742a27ad
:0404c800bf740bdd15
:0404c900bf73ed6ea2
:0404ca00bf73ced955
:0404cb00bf73b01f2c
:0404cc00bf73913f2a
:0404cd00bf7372394e
:0404ce00bf73530e97
:0404cf00bf7333be06
:0404d000bf7314479b
:0404d100bf72f4ac56
:0404d200bf72d4eb36
:0404d300bf72b5043b
:0404d400bf7294f867
:0404d500bf7274c7b7
:0404d600bf7254702d
:0404d700bf7233f4c9
:0404d800bf7213528a
:0404d900bf71f28c71
:0404da00bf71d19f7e
:0404db00bf71b08eaf
:0404dc00bf718f5706
:0404dd00bf716dfb83
:0404de00bf714c7a24
:0404df00bf712ad4eb
:0404e000bf710908d7
:0404e100bf70e717ea
:0404e200bf70c50121
:0404e300bf70a2c67e
:0404e400bf708066ff
:0404e500bf705de1a6
:0404e600bf703b3771
:0404e700bf70186763
:0404e800bf6ff5737a
:0404e900bf6fd25ab5
:0404ea00bf6faf1b16
:0404eb00bf6f8bb89c
:0404ec00bf6f683046
:0404ed00bf6f448316
:0404ee00bf6f20b00c
:0404ef00bf6efcba26
:0404f000bf6ed89e65
:0404f100bf6eb45dc9
:0404f200bf6e8ff852
:0404f300bf6e6b6d00
:0404f400bf6e46bed3
:0404f500bf6e21ebca
:0404f600bf6dfcf2e8
:0404f700bf6dd7d529
:0404f800bf6db2938f
:0404f900bf6d8d2d19
:0404fa00bf6d67a1ca
:0404fb00bf6d41f29e
:0404fc00bf6d1c1d97
:0404fd00bf6cf624b6
:0404fe00bf6cd007f8
:0404ff00bf6ca9c560
:04050000bf6c835eeb
:04050100bf6c5cd49b
:04050200bf6c362470
:04050300bf6c0f506a
:04050400bf6be85889
:04050500bf6bc13bcc
:04050600bf6b99fb33
:04050700bf6b7295bf
:04050800bf6b4b0c6e
:04050900bf6b235e43
:04050a00bf6afb8c3d
:04050b00bf6ad3955b
:04050c00bf6aab7b9c
:04050d00bf6a833c02
:04050e00bf6a5ad98d
:04050f00bf6a32523b
:04051000bf6a09a70e
:04051100bf69e0d707
:04051200bf69b7e422
:04051300bf698ecc62
:04051400bf696591c5
:04051500bf693c324c
:04051600bf6912aef9
:04051700bf68e907c9
:04051800bf68bf3cbd
:04051900bf68954cd6
:04051a00bf686b3912
:04051b00bf68410371
:04051c00bf6816a8f6
:04051d00bf67ec299f
:04051e00bf67c1876b
:04051f00bf6796c15b
:04052000bf676bd86e
:04052100bf6740caa6
:04052200bf67159901
:04052300bf66ea4580
:04052400bf66becc24
:04052500bf669330ea
:04052600bf666771d4
:04052700bf663b8ee2
:04052800bf660f8813
:04052900bf65e35e69
:04052a00bf65b710e2
:04052b00bf658aa07e
:04052c00bf655e0b3e
:04052d00bf65315421
:04052e00bf65047928
:04052f00bf64d77b53
:04053000bf64aa59a1
:04053100bf647d1412
:04053200bf644faca7
:04053300bf6422215e
:04053400bf63f4733a
:04053500bf63c6a139
:04053600bf6398ac5b
:04053700bf636a959f
:04053800bf633c5a07
:04053900bf630dfc93
:04053a00bf62df7b42
:04053b00bf62b0d714
:04053c00bf62821008
:04053d00bf62532620
:04053e00bf62241a5a
:04053f00bf61f4eaba
:04054000bf61c5983a
:04054100bf619622de
:04054200bf61668aa5
:04054300bf6136d08e
:04054400bf6106f29b
:04054500bf60d6f2cb
:04054600bf60a6cf1d
:04054700bf60768992
:04054800bf60462129
:04054900bf601596e4
:04054a00bf5fe4e9c2
:04054b00bf5fb419c1
:04054c00bf5f8327e3
:04054d00bf5f521228
:04054e00bf5f20db90
:04054f00bf5eef811b
:04055000bf5ebe05c7
:04055100bf5e8c6796
:04055200bf5e5aa688
:04055300bf5e28c39c
:04055400bf5df6bed3
:04055500bf5dc4972b
:04055600bf5d924da6
:04055700bf5d5fe144
:04055800bf5d2d5303
:04055900bf5cfaa3e6
:04055a00bf5cc7d1ea
:04055b00bf5c94dd10
:04055c00bf5c61c758
:04055d00bf5c2e8ec3
:04055e00bf5bfb3450
:04055f00bf5bc7b8ff
:04056000bf5b941acf
:04056100bf5b605ac2
:04056200bf5b2c79d6
:04056300bf5af8750e
:04056400bf5ac45066
:04056500bf5a9009e0
:04056600bf5a5ba07d
:04056700bf5a27163a
:04056800bf59f26a1b
:04056900bf59bd9c1d
:04056a00bf5988ad40
:04056b00bf59539c85
:04056c00bf591e6aeb
:04056d00bf58e91674
:04056e00bf58b3a11e
:04056f00bf587e0be8
:04057000bf584853d5
:04057100bf581279e4
:04057200bf57dc7f14
:04057300bf57a66365
:04057400bf577026d7
:04057500bf5739c76c
:04057600bf57034820
:04057700bf56cca7f8
:04057800bf5695e5f0
:04057900bf565f0208
:04057a00bf5627fe43
:04057b00bf55f0d99f
:04057c00bf55b9931b
:04057d00bf55822cb8
:04057e00bf554aa477
:04057f00bf5512fb57
:04058000bf54db3158
:04058100bf54a34779
:04058200bf546b3bbc
:04058300bf54330f1f
:04058400bf53fac3a4
:04058500bf53c25549
:04058600bf5389c70f
:04058700bf535118f5
:04058800bf531849fc
:04058900bf52df5925
:04058a00bf52a6496d
:04058b00bf526d18d6
:04058c00bf5233c661
:04058d00bf51fa540c
:04058e00bf51c0c2d7
:04058f00bf518710c1
:04059000bf514d3dcd
:04059100bf51134af9
:04059200bf50d93746
:04059300bf509f03b3
:04059400bf5064af41
:04059500bf502a3bee
:04059600bf4fefa8bc
:04059700bf4fb4f4aa
:04059800bf4f7a1fb8
:04059900bf4f3f2be6
:04059a00bf4f041734
:04059b00bf4ec8e4a3
:04059c00bf4e8d9031
:04059d00bf4e521cdf
:04059e00bf4e1689ad
:04059f00bf4ddad59d
:0405a000bf4d9f02aa
:0405a100bf4d6310d7
:0405a200bf4d26fd26
:0405a300bf4ceacb94
:0405a400bf4cae7921
:0405a500bf4c7208cd
:0405a600bf4c357899
:0405a700bf4bf8c787
:0405a800bf4bbbf892
:0405a900bf4b7f09bc
:0405aa00bf4b41fa08
:0405ab00bf4b04cc72
:0405ac00bf4ac77ffc
:0405ad00bf4a8a13a4
:0405ae00bf4a4c876d
:0405af00bf4a0edc55
:0405b000bf49d1125c
:0405b100bf49932982
:0405b200bf495521c7
:0405b300bf4916fa2c
:0405b400bf48d8b3b1
:0405b500bf489a4e53
:0405b600bf485bca15
:0405b700bf481d27f5
:0405b800bf47de65f6
:0405b900bf479f8415
:0405ba00bf47608552
:0405bb00bf472167ae
:0405bc00bf46e22a2a
:0405bd00bf46a2cec5
:0405be00bf4663547d
:0405bf00bf4623bb55
:0405c000bf45e4034c
:0405c100bf45a42d61
:0405c200bf45643994
:0405c300bf452426e6
:0405c400bf44e3f558
:0405c500bf44a3a5e7
:0405c600bf44633794
:0405c700bf4422ab60
:0405c800bf43e2004b
:0405c900bf43a13853
:0405ca00bf4360517a
:0405cb00bf431f4cbf
:0405cc00bf42de2923
:0405cd00bf429ce8a5
:0405ce00bf425b8944
:0405cf00bf421a0b02
:0405d000bf41d870df
:0405d100bf4196b7d9
:0405d200bf4154e1f0
:0405d300bf4112ec26
:0405d400bf40d0da7a
:0405d500bf408ea9ec
:0405d600bf404c5c7a
:0405d700bf4009f028
:0405d800bf3fc767f3
:0405d900bf3f84c0dc
:0405da00bf3f41fce2
:0405db00bf3eff1b05
:0405dc00bf3ebc1b47
:0405dd00bf3e78ffa6
:0405de00bf3e35c522
:0405df00bf3df26ebc
:0405e000bf3daef974
:0405e100bf3d6b6748
:0405e200bf3d27b83a
:0405e300bf3ce3ec4a
:0405e400bf3ca00375
:0405e500bf3c5bfcc0
:0405e600bf3c17d926
:0405e700bf3bd398ab
:0405e800bf3b8f3b4b
:0405e900bf3b4ac109
:0405ea00bf3b0629e4
:0405eb00bf3ac175dd
:0405ec00bf3a7ca4f2
:0405ed00bf3a37b723
:0405ee00bf39f2ac73
:0405ef00bf39ad85de
:0405f000bf39684265
:0405f100bf3922e10b
:0405f200bf38dd65cc
:0405f300bf3897cbab
:0405f400bf385216a4
:0405f500bf380c43bc
:0405f600bf37c655f0
:0405f700bf37804a40
:0405f800bf373a23ac
:0405f900bf36f3df37
:0405fa00bf36ad7fdc
:0405fb00bf3667049c
:0405fc00bf36206c7a
:0405fd00bf35d9b875
:0405fe00bf3592e78c
:0405ff00bf354bfbbe
:04060000bf3504f30b
:04060100bf34bdcf76
:04060200bf34768ffc
:04060300bf342f349d
:04060400bf33e7bc5d
:04060500bf33a02936
:04060600bf33587a2c
:04060700bf3310af3e
:04060800bf32c8c96c
:04060900bf3280c7b5
:04060a00bf3238aa19
:04060b00bf31f0719a
:04060c00bf31a81d35
:04060d00bf315faded
:04060e00bf311722bf
:04060f00bf30ce7cae
:04061000bf3085bbb7
:04061100bf303cdedc
:04061200bf2ff3e61d
:04061300bf2faad378
:04061400bf2f61a5ee
:04061500bf2f185b80
:04061600bf2ecef72e
:04061700bf2e8578f5
:04061800bf2e3bded8
:04061900bf2df229d6
:04061a00bf2da859ef
:04061b00bf2d5e6f22
:04061c00bf2d146971
:04061d00bf2cca49db
:04061e00bf2c800f5e
:04061f00bf2c35b9fe
:04062000bf2beb4ab7
:04062100bf2ba0bf8c
:04062200bf2b561b79
:04062300bf2b0b5b83
:04062400bf2ac082a7
:04062500bf2a758ee5
:04062600bf2a2a803d
:04062700bf29df57b1
:04062800bf2994153d
:04062900bf2948b8e5
:04062a00bf28fd41a7
:04062b00bf28b1b083
:04062c00bf28660578
:04062d00bf281a4088
:04062e00bf27ce61b3
:04062f00bf278268f7
:04063000bf27365654
:04063100bf26ea2acc
:04063200bf269de35f
:04063300bf26518409
:04063400bf26050ace
:04063500bf25b877ae
:04063600bf256bcba6
:04063700bf251f04b8
:04063800bf24d225e4
:04063900bf24852c29
:04063a00bf24381a87
:04063b00bf23eaee01
:04063c00bf239da992
:04063d00bf23504b3c
:04063e00bf2302d301
:04063f00bf22b543de
:04064000bf226799d5
:04064100bf2219d7e4
:04064200bf21cbfb0e
:04064300bf217e064f
:04064400bf212ff9aa
:04064500bf20e1d21f
:04064600bf209393ab
:04064700bf20453b50
:04064800bf1ff6cb0f
:04064900bf1fa841e6
:04064a00bf1f599fd6
:04064b00bf1f0ae5de
:04064c00bf1ebc12ff
:04064d00bf1e6d2639
:04064e00bf1e1e228b
:04064f00bf1dcf06f6
:04065000bf1d7fd17a
:04065100bf1d308415
:04065200bf1ce11fc9
:04065300bf1c91a295
:04065400bf1c420c79
:04065500bf1bf25f76
:04065600bf1ba2998b
:04065700bf1b52bbb8
:04065800bf1b02c6fc
:04065900bf1ab2b85a
:04065a00bf1a6293ce
:04065b00bf1a12555b
:04065c00bf19c20000
:04065d00bf197194bc
:04065e00bf19210f90
:04065f00bf18d0737d
:04066000bf187fc080
:04066100bf182ef59b
:04066200bf17de12ce
:04066300bf178d1818
:04066400bf173c0779
:04066500bf16eadef4
:04066600bf16999f83
:04066700bf1648472b
:04066800bf15f6d9eb
:04066900bf15a554c0
:04066a00bf1553b7ae
:04066b00bf150204b1
:04066c00bf14b039ce
:04066d00bf145e5800
:04066e00bf140c5f4a
:04066f00bf13ba50ab
:04067000bf13682a22
:04067100bf1315eeb0
:04067200bf12c39a56
:04067300bf12713011
:04067400bf121eb0e3
:04067500bf11cc19cc
:04067600bf11796bcc
:04067700bf1126a7e2
:04067800bf10d3cd0f
:04067900bf1080dc52
:04067a00bf102dd5ab
:04067b00bf0fdab81b
:04067c00bf0f8784a1
:04067d00bf0f343b3c
:04067e00bf0ee0dbf0
:04067f00bf0e8d65b8
:04068000bf0e39da96
:04068100bf0de6388b
:04068200bf0d928195
:04068300bf0d3eb3b6
:04068400bf0cead0ed
:04068500bf0c96d739
:04068600bf0c42c99a
:04068700bf0beea512
:04068800bf0b9a6b9f
:04068900bf0b461c41
:04068a00bf0af1b7fb
:04068b00bf0a9d3dc8
:04068c00bf0a48adac
:04068d00bf09f409a4
:04068e00bf099f4eb3
:04068f00bf094a7fd6
:04069000bf08f59b0f
:04069100bf08a0a15d
:04069200bf084b92c0
:04069300bf07f66f38
:04069400bf07a136c5
:04069500bf074be868
:04069600bf06f6861f
:04069700bf06a10eeb
:04069800bf064b82cc
:04069900bf05f5e2c2
:04069a00bf05a02ccc
:04069b00bf054a62eb
:04069c00bf04f4841f
:04069d00bf049e9167
:04069e00bf044889c4
:04069f00bf03f26d36
:0406a000bf039c3dbb
:0406a100bf0345f856
:0406a200bf02ef9f05
:0406a300bf029932c7
:0406a400bf0242b19e
:0406a500bf01ec1c89
:0406a600bf01957388
:0406a700bf013eb59c
:0406a800bf00e7e4c4
:0406a900bf0090ffff
:0406aa00bf003a064d
:0406ab00beffc5f3d6
:0406ac00beff17b2c4
:0406ad00befe694ada
:0406ae00befdbabb18
:0406af00befd0c047c
:0406b000befc5d2708
:0406b100befbae22bc
:0406b200befafef797
:0406b300befa4fa597
:0406b400bef9a02dbe
:0406b500bef8f08e0d
:0406b600bef840c882
:0406b700bef790dc1e
:0406b800bef6e0cbdf
:0406b900bef63093c6
:0406ba00bef58035d4
:0406bb00bef4cfb109
:0406bc00bef41f0762
:0406bd00bef36e38e2
:0406be00bef2bd4388
:0406bf00bef20c2952
:0406c000bef15aea43
:0406c100bef0a98559
:0406c200beeff7fb95
:0406c300beef464cf4
:0406c400beee947979
:0406c500beede28024
:0406c600beed3063f2
:0406c700beec7e21e6
:0406c800beebcbbbff
:0406c900beeb19303b
:0406ca00beea66819d
:0406cb00bee9b3ae23
:0406cc00bee900b7cc
:0406cd00bee84d9c9a
:0406ce00bee79a5d8c
:0406cf00bee6e6fba2
:0406d000bee63375da
:0406d100bee57fcb38
:0406d200bee4cbfeb9
:0406d300bee4180e5b
:0406d400bee363fa24
:0406d500bee2afc40e
:0406d600bee1fb6a1c
:0406d700bee146ee4c
:0406d800bee0924f9f
:0406d900bedfdd8d16
:0406da00bedf28a9ae
:0406db00bede73a26a
:0406dc00beddbe7948
:0406dd00bedd092e47
:0406de00bedc53c16a
:0406df00bedb9e31af
:0406e000bedae88016
:0406e100beda32ad9e
:0406e200bed97cb948
:0406e300bed8c6a314
:0406e400bed8106b01
:0406e500bed75a130f
:0406e600bed6a39940
:0406e700bed5ecfd93
:0406e800bed5364104
:0406e900bed47f6498
:0406ea00bed3c8674c
:0406eb00bed3114821
:0406ec00bed25a0917
:0406ed00bed1a2aa2e
:0406ee00bed0eb2a65
:0406ef00bed0338abc
:0406f000becf7bca34
:0406f100becec3eacc
:0406f200bece0bea83
:0406f300becd53ca5b
:0406f400becc9b8b52
:0406f500becbe32c69
:0406f600becb2aae9f
:0406f700beca7210f5
:0406f800bec9b9536b
:0406f900bec90077ff
:0406fa00bec8477cb3
:0406fb00bec78e6286
:0406fc00bec6d52978
:0406fd00bec61bd288
:0406fe00bec5625cb7
:0406ff00bec4a8c805
:04070000bec3ef1570
:04070100bec33544fa
:04070200bec27b55a3
:04070300bec1c1486a
:04070400bec1071e4d
:04070500bec04cd551
:04070600bebf926f71
:04070700bebed7ebb0
:04070800bebe1d4a0a
:04070900bebd628b84
:04070a00bebca7af1b
:04070b00bebbecb6cf
:04070c00bebb31a09f
:04070d00beba766e8c
:04070e00beb9bb1e97
:04070f00beb8ffb2bf
:04071000beb8442a01
:04071100beb7888463
:04071200beb6ccc3e0
:04071300beb610e678
:04071400beb554ec2e
:04071500beb498d600
:04071600beb3dca5ed
:04071700beb32058f5
:04071800beb263ef1b
:04071900beb1a76b5b
:04071a00beb0eacbb8
:04071b00beb02e102e
:04071c00beaf713ac1
:04071d00beaeb4496f
:04071e00beadf73c39
:04071f00bead3a151c
:04072000beac7cd41b
:04072100beabbf7735
:04072200beab020167
:04072300beaa446fb7
:04072400bea986c420
:04072500bea8c8fea4
:04072600bea80b1f3f
:04072700bea74d25f7
:04072800bea68f12c8
:04072900bea5d0e5b4
:04072a00bea5129fb7
:04072b00bea4543fd5
:04072c00bea395c50e
:04072d00bea2d7335e
:04072e00bea21887c8
:04072f00bea159c24c
:04073000bea09ae5e8
:04073100be9fdbee9e
:04073200be9f1cdf6b
:04073300be9e5db851
:04073400be9d9e7850
:04073500be9cdf2067
:04073600be9c1faf97
:04073700be9b6027de
:04073800be9aa0863f
:04073900be99e0ceb7
:04073a00be9920fe46
:04073b00be986116ed
:04073c00be97a117ac
:04073d00be96e10083
:04073e00be9620d271
:04073f00be95608d76
:04074000be94a03192
:04074100be93dfbfc5
:04074200be931f350e
:04074300be925e9470
:04074400be919ddde8
:04074500be90dd1075
:04074600be901c2c19
:04074700be8f5b32d4
:04074800be8e9a22a5
:04074900be8dd8fc8d
:04074a00be8d17c089
:04074b00be8c566e9c
:04074c00be8b9507c4
:04074d00be8ad38a03
:04074e00be8a11f757
:04074f00be895050bf
:04075000be888e933e
:04075100be87ccc1d2
:04075200be870ada7a
:04075300be8648df37
:04075400be8586ce0a
:04075500be84c4aaf0
:04075600be840270eb
:04075700be834022fb
:04075800be827dc020
:04075900be81bb4a58
:04075a00be80f8c0a5
:04075b00be80362204
:04075c00be7ee6e196
:04075d00be7d6156a6
:04075e00be7bdba4df
:04075f00be7a55cb3e
:04076000be78cfccc4
:04076100be7749a670
:04076200be75c35a43
:04076300be743ce83c
:04076400be72b6515a
:04076500be712f949e
:04076600be6fa8b208
:04076700be6e21ab96
:04076800be6c9a7f4a
:04076900be6b132f21
:04076a00be698bba1f
:04076b00be6804223e
:04076c00be667c6683
:04076d00be64f486ec
:04076e00be636c8377
:04076f00be61e45c27
:04077000be605c13f8
:04077100be5ed3a8ed
:04077200be5d4b1a03
:04077300be5bc26a3d
:04077400be5a399799
:04077500be58b0a416
:04077600be57278fb4
:04077700be559e5875
:04077800be54150155
:04077900be528b8958
:04077a00be5101f17a
:04077b00be4f7838bd
:04077c00be4dee6020
:04077d00be4c6467a3
:04077e00be4ada4f46
:04077f00be49501807
:04078000be47c5c2e9
:04078100be463b4de8
:04078200be44b0b908
:04078300be43260744
:04078400be419b37a0
:04078500be40104919
:04078600be3e853eb0
:04078700be3cfa1565
:04078800be3b6ecf37
:04078900be39e36c26
:04078a00be3857ec32
:04078b00be36cc505a
:04078c00be3540989e
:04078d00be33b4c4ff
:04078e00be3228d47b
:04078f00be309cc913
:04079000be2f10a2c6
:04079100be2d846194
:04079200be2bf8047e
:04079300be2a6b8d82
:04079400be28defca1
:04079500be275251d8
:04079600be25c58c2b
:04079700be2438ad97
:04079800be22abb61c
:04079900be211ea5ba
:04079a00be1f917b72
:04079b00be1e043842
:04079c00be1c76de2b
:04079d00be1ae96b2c
:04079e00be195be045
:04079f00be17ce3d76
:0407a000be164083be
:0407a100be14b2b21e
:0407a200be1324ca94
:0407a300be1196cc21
:0407a400be1008b7c4
:0407a500be0e7a8b7f
:0407a600be0cec4a4f
:0407a700be0b5df335
:0407a800be09cf8631
:0407a900be08410540
:0407aa00be06b26e67
:0407ab00be0523c2a2
:0407ac00be039502f1
:0407ad00be02062e54
:0407ae00be007745cd
:0407af00bdfdd0922a
:0407b000bdfab27369
:0407b100bdf7942cd0
:0407b200bdf475c05d
:0407b300bdf1572e0f
:0407b400bdee3876e8
:0407b500bdeb199ae5
:0407b600bde7fa9a07
:0407b700bde4db764c
:0407b800bde1bc2eb5
:0407b900bdde9cc441
:0407ba00bddb7d37ef
:0407bb00bdd85d89bf
:0407bc00bdd53db9b1
:0407bd00bdd21dc8c4
:0407be00bdcefdb7f8
:0407bf00bdcbdd864b
:0407c000bdc8bd36bd
:0407c100bdc59cc650
:0407c200bdc27c39ff
:0407c300bdbf5b8dce
:0407c400bdbc3ac3bb
:0407c500bdb919ddc4
:0407c600bdb5f8daeb
:0407c700bdb2d7bb2d
:0407c800bdafb6808b
:0407c900bdac952b03
:0407ca00bda973ba98
:0407cb00bda6523045
:0407cc00bda3308c0d
:0407cd00bda00ecfee
:0407ce00bd9cecf9e9
:0407cf00bd99cb0afb
:0407d000bd96a90524
:0407d100bd9386e767
:0407d200bd9064b4be
:0407d300bd8d426a2c
:0407d400bd8a200ab0
:0407d500bd86fd944c
:0407d600bd83db0afa
:0407d700bd80b86cbd
:0407d800bd7b2b7446
:0407d900bd74e5e91d
:0407da00bd6ea03818
:0407db00bd685a6239
:0407dc00bd6214697d
:0407dd00bd5bce4ce6
:0407de00bd55880e6f
:0407df00bd4f41af1a
:0407e000bd48fb30e5
:0407e100bd42b491d0
:0407e200bd3c6dd5d8
:0407e300bd3626fcfd
:0407e400bd2fe0073e
:0407e500bd2998f69c
:0407e600bd2351cb13
:0407e700bd1d0a88a2
:0407e800bd16c32c4b
:0407e900bd107bb80c
:0407ea00bd0a342fe1
:0407eb00bd03ec90ce
:0407ec00bcfb49ba4f
:0407ed00bceeba2c78
:0407ee00bce22a7ac5
:0407ef00bcd59aa635
:0407f000bcc90ab0c6
:0407f100bcbc7a9b77
:0407f200bcafea6945
:0407f300bca35a1c2d
:0407f400bc96c9b630
:0407f500bc8a393849
:0407f600bc7b514b2c
:0407f700bc622fffb2
:0407f800bc490e905a
:0407f900bc2fed0222
:0407fa00bc16cb5806
:0407fb00bbfb5330c1
:0407fc00bbc90f88de
:0407fd00bb96cbc11b
:0407fe00bb490fc61e
:0407ff00bac90fd58f
:04080000a50d3132df
:040801003ac90fd50c
:040802003b490fc699
:040803003b96cbc194
:040804003bc90f8855
:040805003bfb533036
:040806003c16cb5879
:040807003c2fed0293
:040808003c490e90c9
:040809003c622fff1f
:04080a003c7b514b97
:04080b003c8a3938b2
:04080c003c96c9b697
:04080d003ca35a1c92
:04080e003cafea69a8
:04080f003cbc7a9bd8
:040810003cc90ab025
:040811003cd59aa692
:040812003ce22a7a20
:040813003ceeba2cd1
:040814003cfb49baa6
:040815003d03ec9023
:040816003d0a342f34
:040817003d107bb85d
:040818003d16c32c9a
:040819003d1d0a88ef
:04081a003d2351cb5e
:04081b003d2998f6e5
:04081c003d2fe00785
:04081d003d3626fc42
:04081e003d3c6dd51b
:04081f003d42b49111
:040820003d48fb3024
:040821003d4f41af57
:040822003d55880eaa
:040823003d5bce4c1f
:040824003d621469b4
:040825003d685a626e
:040826003d6ea0384b
:040827003d74e5e94e
:040828003d7b2b7475
:040829003d80b86cea
:04082a003d83db0a25
:04082b003d86fd9475
:04082c003d8a200ad7
:04082d003d8d426a51
:04082e003d9064b4e1
:04082f003d9386e788
:040830003d96a90543
:040831003d99cb0a18
:040832003d9cecf904
:040833003da00ecf07
:040834003da3308c24
:040835003da652305a
:040836003da973baab
:040837003dac952b14
:040838003dafb6809a
:040839003db2d7bb3a
:04083a003db5f8daf6
:04083b003db919ddcd
:04083c003dbc3ac3c2
:04083d003dbf5b8dd3
:04083e003dc27c3902
:04083f003dc59cc651
:040840003dc8bd36bc
:040841003dcbdd8648
:040842003dcefdb7f3
:040843003dd21dc8bd
:040844003dd53db9a8
:040845003dd85d89b4
:040846003ddb7d37e2
:040847003dde9cc432
:040848003de1bc2ea4
:040849003de4db7639
:04084a003de7fa9af2
:04084b003deb199ace
:04084c003dee3876cf
:04084d003df1572ef4
:04084e003df475c040
:04084f003df7942cb1
:040850003dfab27348
:040851003dfdd09207
:040852003e007745a8
:040853003e02062e2d
:040854003e039502c8
:040855003e0523c277
:040856003e06b26e3a
:040857003e08410511
:040858003e09cf8600
:040859003e0b5df302
:04085a003e0cec4a1a
:04085b003e0e7a8b48
:04085c003e1008b78b
:04085d003e1196cce6
:04085e003e1324ca57
:04085f003e14b2b2df
:040860003e1640837d
:040861003e17ce3d33
:040862003e195be000
:040863003e1ae96be5
:040864003e1c76dee2
:040865003e1e0438f7
:040866003e1f917b25
:040867003e211ea56b
:040868003e22abb6cb
:040869003e2438ad44
:04086a003e25c58cd6
:04086b003e27525181
:04086c003e28defc48
:04086d003e2a6b8d27
:04086e003e2bf80421
:04086f003e2d846135
:040870003e2f10a265
:040871003e309cc9b0
:040872003e3228d416
:040873003e33b4c498
:040874003e35409835
:040875003e36cc50ef
:040876003e3857ecc5
:040877003e39e36cb7
:040878003e3b6ecfc6
:040879003e3cfa15f2
:04087a003e3e853e3b
:04087b003e401049a2
:04087c003e419b3727
:04087d003e432607c9
:04087e003e44b0b98b
:04087f003e463b4d69
:040880003e47c5c268
:040881003e49501884
:040882003e4ada4fc1
:040883003e4c64671c
:040884003e4dee6097
:040885003e4f783832
:040886003e5101f1ed
:040887003e528b89c9
:040888003e541501c4
:040889003e559e58e2
:04088a003e57278f1f
:04088b003e58b0a47f
:04088c003e5a399700
:04088d003e5bc26aa2
:04088e003e5d4b1a66
:04088f003e5ed3a84e
:040890003e605c1357
:040891003e61e45c84
:040892003e636c83d2
:040893003e64f48645
:040894003e667c66da
:040895003e68042293
:040896003e698bba72
:040897003e6b132f72
:040898003e6c9a7f99
:040899003e6e21abe3
:04089a003e6fa8b253
:04089b003e712f94e7
:04089c003e72b651a1
:04089d003e743ce881
:04089e003e75c35a86
:04089f003e7749a6b1
:0408a0003e78cfcc03
:0408a1003e7a55cb7b
:0408a2003e7bdba41a
:0408a3003e7d6156df
:0408a4003e7ee6e1cd
:0408a5003e80362239
:0408a6003e80f8c0d8
:0408a7003e81bb4a89
:0408a8003e827dc04f
:0408a9003e83402228
:0408aa003e84027016
:0408ab003e84c4aa19
:0408ac003e8586ce31
:0408ad003e8648df5c
:0408ae003e870ada9d
:0408af003e87ccc1f3
:0408b0003e888e935d
:0408b1003e895050dc
:0408b2003e8a11f772
:0408b3003e8ad38a1c
:0408b4003e8b9507db
:0408b5003e8c566eb1
:0408b6003e8d17c09c
:0408b7003e8dd8fc9e
:0408b8003e8e9a22b4
:0408b9003e8f5b32e1
:0408ba003e901c2c24
:0408bb003e90dd107e
:0408bc003e919dddef
:0408bd003e925e9475
:0408be003e931f3511
:0408bf003e93dfbfc6
:0408c0003e94a03191
:0408c1003e95608d73
:0408c2003e9620d26c
:0408c3003e96e1007c
:0408c4003e97a117a3
:0408c5003e986116e2
:0408c6003e9920fe39
:0408c7003e99e0cea8
:0408c8003e9aa0862e
:0408c9003e9b6027cb
:0408ca003e9c1faf82
:0408cb003e9cdf2050
:0408cc003e9d9e7837
:0408cd003e9e5db836
:0408ce003e9f1cdf4e
:0408cf003e9fdbee7f
:0408d0003ea09ae5c7
:0408d1003ea159c229
:0408d2003ea21887a3
:0408d3003ea2d73337
:0408d4003ea395c5e5
:0408d5003ea4543faa
:0408d6003ea5129f8a
:0408d7003ea5d0e585
:0408d8003ea68f1297
:0408d9003ea74d25c4
:0408da003ea80b1f0a
:0408db003ea8c8fe6d
:0408dc003ea986c4e7
:0408dd003eaa446f7c
:0408de003eab02012a
:0408df003eabbf77f6
:0408e0003eac7cd4da
:0408e1003ead3a15d9
:0408e2003eadf73cf4
:0408e3003eaeb44928
:0408e4003eaf713a78
:0408e5003eb02e10e3
:0408e6003eb0eacb6b
:0408e7003eb1a76b0c
:0408e8003eb263efca
:0408e9003eb32058a2
:0408ea003eb3dca598
:0408eb003eb498d6a9
:0408ec003eb554ecd5
:0408ed003eb610e61d
:0408ee003eb6ccc383
:0408ef003eb7888404
:0408f0003eb8442aa0
:0408f1003eb8ffb25c
:0408f2003eb9bb1e32
:0408f3003eba766e25
:0408f4003ebb31a036
:0408f5003ebbecb664
:0408f6003ebca7afae
:0408f7003ebd628b15
:0408f8003ebe1d4a99
:0408f9003ebed7eb3d
:0408fa003ebf926ffc
:0408fb003ec04cd5da
:0408fc003ec1071ed4
:0408fd003ec1c148ef
:0408fe003ec27b5526
:0408ff003ec335447b
:040900003ec3ef15ee
:040901003ec4a8c880
:040902003ec5625c30
:040903003ec61bd2ff
:040904003ec6d529ed
:040905003ec78e62f9
:040906003ec8477c24
:040907003ec900776e
:040908003ec9b953d8
:040909003eca721060
:04090a003ecb2aae08
:04090b003ecbe32cd0
:04090c003ecc9b8bb7
:04090d003ecd53cabe
:04090e003ece0beae4
:04090f003ecec3ea2b
:040910003ecf7bca91
:040911003ed0338a17
:040912003ed0eb2abe
:040913003ed1a2aa85
:040914003ed25a096c
:040915003ed3114874
:040916003ed3c8679d
:040917003ed47f64e7
:040918003ed5364151
:040919003ed5ecfdde
:04091a003ed6a39989
:04091b003ed75a1356
:04091c003ed8106b46
:04091d003ed8c6a357
:04091e003ed97cb989
:04091f003eda32addd
:040920003edae88053
:040921003edb9e31ea
:040922003edc53c1a3
:040923003edd092e7e
:040924003eddbe797d
:040925003ede73a29d
:040926003edf28a9df
:040927003edfdd8d45
:040928003ee0924fcc
:040929003ee146ee77
:04092a003ee1fb6a45
:04092b003ee2afc435
:04092c003ee363fa49
:04092d003ee4180e7e
:04092e003ee4cbfeda
:04092f003ee57fcb57
:040930003ee63375f7
:040931003ee6e6fbbd
:040932003ee79a5da5
:040933003ee84d9cb1
:040934003ee900b7e1
:040935003ee9b3ae36
:040936003eea6681ae
:040937003eeb19304a
:040938003eebcbbb0c
:040939003eec7e21f1
:04093a003eed3063fb
:04093b003eede2802b
:04093c003eee94797e
:04093d003eef464cf7
:04093e003eeff7fb96
:04093f003ef0a98558
:040940003ef15aea40
:040941003ef20c294d
:040942003ef2bd4381
:040943003ef36e38d9
:040944003ef41f0757
:040945003ef4cfb1fc
:040946003ef58035c5
:040947003ef63093b5
:040948003ef6e0cbcc
:040949003ef790dc09
:04094a003ef840c86b
:04094b003ef8f08ef4
:04094c003ef9a02da3
:04094d003efa4fa57a
:04094e003efafef778
:04094f003efbae229b
:040950003efc5d27e5
:040951003efd0c0457
:040952003efdbabbf1
:040953003efe694ab1
:040954003eff17b299
:040955003effc5f3a9
:040956003f003a061e
:040957003f0090ffce
:040958003f00e7e491
:040959003f013eb567
:04095a003f01957351
:04095b003f01ec1c50
:04095c003f0242b163
:04095d003f0299328a
:04095e003f02ef9fc6
:04095f003f0345f815
:040960003f039c3d78
:040961003f03f26df1
:040962003f0448897d
:040963003f049e911e
:040964003f04f484d4
:040965003f054a629e
:040966003f05a02c7d
:040967003f05f5e271
:040968003f064b8279
:040969003f06a10e96
:04096a003f06f686c8
:04096b003f074be80f
:04096c003f07a1366a
:04096d003f07f66fdb
:04096e003f084b9261
:04096f003f08a0a1fc
:040970003f08f59bac
:040971003f094a7f71
:040972003f099f4e4c
:040973003f09f4093b
:040974003f0a48ad41
:040975003f0a9d3d5b
:040976003f0af1b78c
:040977003f0b461cd0
:040978003f0b9a6b2c
:040979003f0beea59d
:04097a003f0c42c923
:04097b003f0c96d7c0
:04097c003f0cead072
:04097d003f0d3eb339
:04097e003f0d928116
:04097f003f0de6380a
:040980003f0e39da13
:040981003f0e8d6533
:040982003f0ee0db69
:040983003f0f343bb3
:040984003f0f878416
:040985003f0fdab88e
:040986003f102dd51c
:040987003f1080dcc1
:040988003f10d3cd7c
:040989003f1126a74d
:04098a003f11796b35
:04098b003f11cc1933
:04098c003f121eb048
:04098d003f12713074
:04098e003f12c39ab7
:04098f003f1315ee0f
:040990003f13682a7f
:040991003f13ba5006
:040992003f140c5fa3
:040993003f145e5857
:040994003f14b03923
:040995003f15020404
:040996003f1553b7ff
:040997003f15a5540f
:040998003f15f6d938
:040999003f16484776
:04099a003f16999fcc
:04099b003f16eade3b
:04099c003f173c07be
:04099d003f178d185b
:04099e003f17de120f
:04099f003f182ef5da
:0409a0003f187fc0bd
:0409a1003f18d073b8
:0409a2003f19210fc9
:0409a3003f197194f3
:0409a4003f19c20035
:0409a5003f1a12558e
:0409a6003f1a6293ff
:0409a7003f1ab2b889
:0409a8003f1b02c629
:0409a9003f1b52bbe3
:0409aa003f1ba299b4
:0409ab003f1bf25f9d
:0409ac003f1c420c9e
:0409ad003f1c91a2b8
:0409ae003f1ce11fea
:0409af003f1d308434
:0409b0003f1d7fd197
:0409b1003f1dcf0611
:0409b2003f1e1e22a4
:0409b3003f1e6d2650
:0409b4003f1ebc1214
:0409b5003f1f0ae5f1
:0409b6003f1f599fe7
:0409b7003f1fa841f5
:0409b8003f1ff6cb1c
:0409b9003f20453b5b
:0409ba003f209393b4
:0409bb003f20e1d226
:0409bc003f212ff9af
:0409bd003f217e0652
:0409be003f21cbfb0f
:0409bf003f2219d7e3
:0409c0003f226799d2
:0409c1003f22b543d9
:0409c2003f2302d3fa
:0409c3003f23504b33
:0409c4003f239da987
:0409c5003f23eaeef4
:0409c6003f24381a78
:0409c7003f24852c18
:0409c8003f24d225d1
:0409c9003f251f04a3
:0409ca003f256bcb8f
:0409cb003f25b87795
:0409cc003f26050ab3
:0409cd003f265184ec
:0409ce003f269de340
:0409cf003f26ea2aab
:0409d0003f27365631
:0409d1003f278268d2
:0409d2003f27ce618c
:0409d3003f281a405f
:0409d4003f2866054d
:0409d5003f28b1b056
:0409d6003f28fd4178
:0409d7003f2948b8b4
:0409d8003f2994150a
:0409d9003f29df577c
:0409da003f2a2a8006
:0409db003f2a758eac
:0409dc003f2ac0826c
:0409dd003f2b0b5b46
:0409de003f2b561b3a
:0409df003f2ba0bf4b
:0409e0003f2beb4a74
:0409e1003f2c35b9b9
:0409e2003f2c800f17
:0409e3003f2cca4992
:0409e4003f2d146926
:0409e5003f2d5e6fd5
:0409e6003f2da859a0
:0409e7003f2df22985
:0409e8003f2e3bde85
:0409e9003f2e8578a0
:0409ea003f2ecef7d7
:0409eb003f2f185b27
:0409ec003f2f61a593
:0409ed003f2faad31b
:0409ee003f2ff3e6be
:0409ef003f303cde7b
:0409f0003f3085bb54
:0409f1003f30ce7c49
:0409f2003f31172258
:0409f3003f315fad84
:0409f4003f31a81dca
:0409f5003f31f0712d
:0409f6003f3238aaaa
:0409f7003f3280c744
:0409f8003f32c8c9f9
:0409f9003f3310afc9
:0409fa003f33587ab5
:0409fb003f33a029bd
:0409fc003f33e7bce2
:0409fd003f342f3420
:0409fe003f34768f7d
:0409ff003f34bdcff5
:040a00003f3504f387
:040a01003f354bfb37
:040a02003f3592e703
:040a03003f35d9b8ea
:040a04003f36206ced
:040a05003f3667040d
:040a06003f36ad7f4b
:040a07003f36f3dfa4
:040a08003f373a2317
:040a09003f37804aa9
:040a0a003f37c65557
:040a0b003f380c4321
:040a0c003f38521607
:040a0d003f3897cb0c
:040a0e003f38dd652b
:040a0f003f3922e168
:040a10003f396842c0
:040a11003f39ad8537
:040a12003f39f2acca
:040a13003f3a37b778
:040a14003f3a7ca445
:040a15003f3ac1752e
:040a16003f3b062933
:040a17003f3b4ac156
:040a18003f3b8f3b96
:040a19003f3bd398f4
:040a1a003f3c17d96d
:040a1b003f3c5bfc05
:040a1c003f3ca003b8
:040a1d003f3ce3ec8b
:040a1e003f3d27b879
:040a1f003f3d6b6785
:040a20003f3daef9af
:040a21003f3df26ef5
:040a22003f3e35c559
:040a23003f3e78ffdb
:040a24003f3ebc1b7a
:040a25003f3eff1b36
:040a26003f3f41fc11
:040a27003f3f84c009
:040a28003f3fc7671e
:040a29003f4009f051
:040a2a003f404c5ca1
:040a2b003f408ea911
:040a2c003f40d0da9d
:040a2d003f4112ec47
:040a2e003f4154e10f
:040a2f003f4196b7f6
:040a30003f41d870fa
:040a31003f421a0b1b
:040a32003f425b895b
:040a33003f429ce8ba
:040a34003f42de2936
:040a35003f431f4cd0
:040a36003f43605189
:040a37003f43a13860
:040a38003f43e20056
:040a39003f4422ab69
:040a3a003f4463379b
:040a3b003f44a3a5ec
:040a3c003f44e3f55b
:040a3d003f452426e7
:040a3e003f45643993
:040a3f003f45a42d5e
:040a40003f45e40347
:040a41003f4623bb4e
:040a42003f46635474
:040a43003f46a2ceba
:040a44003f46e22a1d
:040a45003f4721679f
:040a46003f47608541
:040a47003f479f8402
:040a48003f47de65e1
:040a49003f481d27de
:040a4a003f485bcafc
:040a4b003f489a4e38
:040a4c003f48d8b394
:040a4d003f4916fa0d
:040a4e003f495521a6
:040a4f003f4993295f
:040a50003f49d11237
:040a51003f4a0edc2e
:040a52003f4a4c8744
:040a53003f4a8a1379
:040a54003f4ac77fcf
:040a55003f4b04cc43
:040a56003f4b41fad7
:040a57003f4b7f0989
:040a58003f4bbbf85d
:040a59003f4bf8c750
:040a5a003f4c357860
:040a5b003f4c720892
:040a5c003f4cae79e4
:040a5d003f4ceacb55
:040a5e003f4d26fde5
:040a5f003f4d631094
:040a60003f4d9f0265
:040a61003f4ddad556
:040a62003f4e168964
:040a63003f4e521c94
:040a64003f4e8d90e4
:040a65003f4ec8e454
:040a66003f4f0417e3
:040a67003f4f3f2b93
:040a68003f4f7a1f63
:040a69003f4fb4f453
:040a6a003f4fefa863
:040a6b003f502a3b93
:040a6c003f5064afe4
:040a6d003f509f0354
:040a6e003f50d937e5
:040a6f003f51134a96
:040a70003f514d3d68
:040a71003f5187105a
:040a72003f51c0c26e
:040a73003f51fa54a1
:040a74003f5233c6f4
:040a75003f526d1867
:040a76003f52a649fc
:040a77003f52df59b2
:040a78003f53184987
:040a79003f5351187e
:040a7a003f5389c796
:040a7b003f53c255ce
:040a7c003f53fac327
:040a7d003f54330fa0
:040a7e003f546b3b3b
:040a7f003f54a347f6
:040a80003f54db31d3
:040a81003f5512fbd0
:040a82003f554aa4ee
:040a83003f55822c2d
:040a84003f55b9938e
:040a85003f55f0d910
:040a86003f5627feb2
:040a87003f565f0275
:040a88003f5695e55b
:040a89003f56cca761
:040a8a003f57034887
:040a8b003f5739c7d1
:040a8c003f5770263a
:040a8d003f57a663c6
:040a8e003f57dc7f73
:040a8f003f58127941
:040a90003f58485330
:040a91003f587e0b41
:040a92003f58b3a175
:040a93003f58e916c9
:040a94003f591e6a3e
:040a95003f59539cd6
:040a96003f5988ad8f
:040a97003f59bd9c6a
:040a98003f59f26a66
:040a99003f5a271683
:040a9a003f5a5ba0c4
:040a9b003f5a900925
:040a9c003f5ac450a9
:040a9d003f5af8754f
:040a9e003f5b2c7915
:040a9f003f5b605aff
:040aa0003f5b941a0a
:040aa1003f5bc7b838
:040aa2003f5bfb3487
:040aa3003f5c2e8ef8
:040aa4003f5c61c78b
:040aa5003f5c94dd41
:040aa6003f5cc7d119
:040aa7003f5cfaa313
:040aa8003f5d2d532e
:040aa9003f5d5fe16d
:040aaa003f5d924dcd
:040aab003f5dc49750
:040aac003f5df6bef6
:040aad003f5e28c3bd
:040aae003f5e5aa6a7
:040aaf003f5e8c67b3
:040ab0003f5ebe05e2
:040ab1003f5eef8134
:040ab2003f5f20dba7
:040ab3003f5f52123d
:040ab4003f5f8327f6
:040ab5003f5fb419d2
:040ab6003f5fe4e9d1
:040ab7003f601596f1
:040ab8003f60462134
:040ab9003f6076899b
:040aba003f60a6cf24
:040abb003f60d6f2d0
:040abc003f6106f29e
:040abd003f6136d08f
:040abe003f61668aa4
:040abf003f619622db
:040ac0003f61c59835
:040ac1003f61f4eab3
:040ac2003f62241a51
:040ac3003f62532615
:040ac4003f628210fb
:040ac5003f62b0d705
:040ac6003f62df7b31
:040ac7003f630dfc80
:040ac8003f633c5af2
:040ac9003f636a9588
:040aca003f6398ac42
:040acb003f63c6a11e
:040acc003f63f4731d
:040acd003f6422213f
:040ace003f644fac86
:040acf003f647d14ef
:040ad0003f64aa597c
:040ad1003f64d77b2c
:040ad2003f650479ff
:040ad3003f653154f6
:040ad4003f655e0b11
:040ad5003f658aa04f
:040ad6003f65b710b1
:040ad7003f65e35e36
:040ad8003f660f88de
:040ad9003f663b8eab
:040ada003f6667719b
:040adb003f669330af
:040adc003f66becce7
:040add003f66ea4541
:040ade003f671599c0
:040adf003f6740ca63
:040ae0003f676bd829
:040ae1003f6796c114
:040ae2003f67c18722
:040ae3003f67ec2954
:040ae4003f6816a8a9
:040ae5003f68410322
:040ae6003f686b39c1
:040ae7003f68954c83
:040ae8003f68bf3c68
:040ae9003f68e90772
:040aea003f6912aea0
:040aeb003f693c32f1
:040aec003f69659168
:040aed003f698ecc03
:040aee003f69b7e4c1
:040aef003f69e0d7a4
:040af0003f6a09a7a9
:040af1003f6a3252d4
:040af2003f6a5ad924
:040af3003f6a833c97
:040af4003f6aab7b2f
:040af5003f6ad395ec
:040af6003f6afb8ccc
:040af7003f6b235ed0
:040af8003f6b4b0cf9
:040af9003f6b729548
:040afa003f6b99fbba
:040afb003f6bc13b51
:040afc003f6be8580c
:040afd003f6c0f50eb
:040afe003f6c3624ef
:040aff003f6c5cd418
:040b00003f6c835e65
:040b01003f6ca9c5d7
:040b02003f6cd0076d
:040b03003f6cf62429
:040b04003f6d1c1d08
:040b05003f6d41f20d
:040b06003f6d67a137
:040b07003f6d8d2d84
:040b08003f6db293f8
:040b09003f6dd7d590
:040b0a003f6dfcf24d
:040b0b003f6e21eb2d
:040b0c003f6e46be34
:040b0d003f6e6b6d5f
:040b0e003f6e8ff8af
:040b0f003f6eb45d24
:040b10003f6ed89ebe
:040b11003f6efcba7d
:040b12003f6f20b061
:040b13003f6f448369
:040b14003f6f683097
:040b15003f6f8bb8eb
:040b16003f6faf1b63
:040b17003f6fd25a00
:040b18003f6ff573c3
:040b19003f701867aa
:040b1a003f703b37b6
:040b1b003f705de1e9
:040b1c003f70806640
:040b1d003f70a2c6bd
:040b1e003f70c5015e
:040b1f003f70e71725
:040b20003f71090810
:040b21003f712ad422
:040b22003f714c7a59
:040b23003f716dfbb6
:040b24003f718f5737
:040b25003f71b08ede
:040b26003f71d19fab
:040b27003f71f28c9c
:040b28003f721352b3
:040b29003f7233f4f0
:040b2a003f72547052
:040b2b003f7274c7da
:040b2c003f7294f888
:040b2d003f72b5045a
:040b2e003f72d4eb53
:040b2f003f72f4ac71
:040b30003f731447b4
:040b31003f7333be1d
:040b32003f73530eac
:040b33003f73723961
:040b34003f73913f3b
:040b35003f73b01f3b
:040b36003f73ced962
:040b37003f73ed6ead
:040b38003f740bdd1e
:040b39003f742a27b4
:040b3a003f74484b71
:040b3b003f74664954
:040b3c003f7484225c
:040b3d003f74a1d58b
:040b3e003f74bf62df
:040b3f003f74dcc95a
:040b40003f74fa0bf9
:040b41003f751727be
:040b42003f75341daa
:040b43003f7550edbd
:040b44003f756d97f5
:040b45003f758a1c52
:040b46003f75a67bd6
:040b47003f75c2b381
:040b48003f75dec651
:040b49003f75fab347
:040b4a003f76167a62
:040b4b003f76321ba4
:040b4c003f764d970c
:040b4d003f7668ec9b
:040b4e003f76841b4f
:040b4f003f769f242a
:040b50003f76ba072b
:040b51003f76d4c453
:040b52003f76ef5ba0
:040b53003f7709cc13
:040b54003f772417ac
:040b55003f773e3c6c
:040b56003f77583a53
:040b57003f7772135f
:040b58003f778bc593
:040b59003f77a551ec
:040b5a003f77beb76c
:040b5b003f77d7f712
:040b5c003f77f110de
:040b5d003f780a04cf
:040b5e003f7822d1e9
:040b5f003f783b7729
:040b60003f7853f88f
:040b61003f786c521b
:040b62003f788486ce
:040b63003f789c93a8
:040b64003f78b47ba7
:040b65003f78cc3bce
:040b66003f78e3d61b
:040b67003f78fb4a8e
:040b68003f79129827
:040b69003f7929bfe8
:040b6a003f7940c0cf
:040b6b003f79579add
:040b6c003f796e4e11
:040b6d003f7984dc6c
:040b6e003f799b43ed
:040b6f003f79b18396
:040b70003f79c79d65
:040b71003f79dd915a
:040b72003f79f35e76
:040b73003f7a0904b8
:040b74003f7a1e8422
:040b75003f7a33ddb3
:040b76003f7a491069
:040b77003f7a5e1c47
:040b78003f7a73024b
:040b79003f7a87c177
:040b7a003f7a9c59c9
:040b7b003f7ab0cb42
:040b7c003f7ac516e1
:040b7d003f7ad93aa8
:040b7e003f7aed3796
:040b7f003f7b010ea9
:040b80003f7b14bee5
:040b81003f7b284846
:040b82003f7b3babcf
:040b83003f7b4ee77f
:040b84003f7b61fc56
:040b85003f7b74ea54
:040b86003f7b87b278
:040b87003f7b9a53c3
:040b88003f7baccd36
:040b89003f7bbf20cf
:040b8a003f7bd14d8f
:040b8b003f7be35376
:040b8c003f7bf53185
:040b8d003f7c06e9ba
:040b8e003f7c187a16
:040b8f003f7c29e599
:040b90003f7c3b2843
:040b91003f7c4c4415
:040b92003f7c5d3a0d
:040b93003f7c6e082d
:040b94003f7c7eb074
:040b95003f7c8f31e1
:040b96003f7c9f8a77
:040b97003f7cafbd33
:040b98003f7cbfc916
:040b99003f7ccfae20
:040b9a003f7cdf6c51
:040b9b003f7cef03a9
:040b9c003f7cfe7329
:040b9d003f7d0dbccf
:040b9e003f7d1cdd9e
:040b9f003f7d2bd893
:040ba0003f7d3aacaf
:040ba1003f7d4959f2
:040ba2003f7d57de5e
:040ba3003f7d663def
:040ba4003f7d7474a9
:040ba5003f7d828589
:040ba6003f7d906e91
:040ba7003f7d9e30c0
:040ba8003f7dabcc16
:040ba9003f7db94093
:040baa003f7dc68c39
:040bab003f7dd3b205
:040bac003f7de0b1f8
:040bad003f7ded8813
:040bae003f7dfa3855
:040baf003f7e06c2bd
:040bb0003f7e13244d
:040bb1003f7e1f5e06
:040bb2003f7e2b72e5
:040bb3003f7e375eec
:040bb4003f7e43231a
:040bb5003f7e4ec170
:040bb6003f7e5a38ec
:040bb7003f7e658890
:040bb8003f7e70b05c
:040bb9003f7e7bb14f
:040bba003f7e868b69
:040bbb003f7e913dab
:040bbc003f7e9bc914
:040bbd003f7ea62da4
:040bbe003f7eb0695d
:040bbf003f7eba7f3c
:040bc0003f7ec46d43
:040bc1003f7ece3471
:040bc2003f7ed7d4c7
:040bc3003f7ee14c44
:040bc4003f7eea9de9
:040bc5003f7ef3c7b5
:040bc6003f7efcc9a9
:040bc7003f7f05a4c3
:040bc8003f7f0e5805
:040bc9003f7f16e470
:040bca003f7f1f4901
:040bcb003f7f2787ba
:040bcc003f7f2f9d9b
:040bcd003f7f378ca3
:040bce003f7f3f54d2
:040bcf003f7f46f42a
:040bd0003f7f4e6da8
:040bd1003f7f55bf4e
:040bd2003f7f5ce91c
:040bd3003f7f63ec11
:040bd4003f7f6ac72e
:040bd5003f7f717b72
:040bd6003f7f7808dd
:040bd7003f7f7e6d71
:040bd8003f7f84ab2c
:040bd9003f7f8ac20e
:040bda003f7f90b118
:040bdb003f7f96784a
:040bdc003f7f9c18a3
:040bdd003f7fa19124
:040bde003f7fa6e3cc
:040bdf003f7fac0d9b
:040be0003f7fb10f93
:040be1003f7fb5eab3
:040be2003f7fba9ef9
:040be3003f7fbf2a67
:040be4003f7fc38ffd
:040be5003f7fc7ccbb
:040be6003f7fcbe2a0
:040be7003f7fcfd1ac
:040be8003f7fd397e1
:040be9003f7fd7373c
:040bea003f7fdaafc0
:040beb003f7fde006a
:040bec003f7fe1293d
:040bed003f7fe42b37
:040bee003f7fe70559
:040bef003f7fe9b8a3
:040bf0003f7fec4314
:040bf1003f7feea7ad
:040bf2003f7ff0e36e
:040bf3003f7ff2f856
:040bf4003f7ff4e665
:040bf5003f7ff6ac9c
:040bf6003f7ff84afb
:040bf7003f7ff9c182
:040bf8003f7ffb112f
:040bf9003f7ffc3905
:040bfa003f7ffd3903
:040bfb003f7ffe1327
:040bfc003f7ffec475
:040bfd003f7fff4ee9
:040bfe003f7fffb185
:040bff003f7fffec49
:00000001FF
