:040000003f8000003d
:040001003f7fffec52
:040002003f7fffb18c
:040003003f7fff4eee
:040004003f7ffec478
:040005003f7ffe1328
:040006003f7ffd3902
:040007003f7ffc3902
:040008003f7ffb112a
:040009003f7ff9c17b
:04000a003f7ff84af2
:04000b003f7ff6ac91
:04000c003f7ff4e658
:04000d003f7ff2f847
:04000e003f7ff0e35d
:04000f003f7feea79a
:040010003f7fec43ff
:040011003f7fe9b88c
:040012003f7fe70540
:040013003f7fe42b1c
:040014003f7fe12920
:040015003f7fde004b
:040016003f7fdaaf9f
:040017003f7fd73719
:040018003f7fd397bc
:040019003f7fcfd185
:04001a003f7fcbe277
:04001b003f7fc7cc90
:04001c003f7fc38fd0
:04001d003f7fbf2a38
:04001e003f7fba9ec8
:04001f003f7fb5ea80
:040020003f7fb10f5e
:040021003f7fac0d64
:040022003f7fa6e393
:040023003f7fa191e9
:040024003f7f9c1866
:040025003f7f96780b
:040026003f7f90b1d7
:040027003f7f8ac2cb
:040028003f7f84abe7
:040029003f7f7e6d2a
:04002a003f7f780894
:04002b003f7f717b27
:04002c003f7f6ac7e1
:04002d003f7f63ecc2
:04002e003f7f5ce9cb
:04002f003f7f55bffb
:040030003f7f4e6d53
:040031003f7f46f4d3
:040032003f7f3f5479
:040033003f7f378c48
:040034003f7f2f9d3e
:040035003f7f27875b
:040036003f7f1f49a0
:040037003f7f16e40d
:040038003f7f0e58a0
:040039003f7f05a45c
:04003a003f7efcc940
:04003b003f7ef3c74a
:04003c003f7eea9d7c
:04003d003f7ee14cd5
:04003e003f7ed7d456
:04003f003f7ece34fe
:040040003f7ec46dce
:040041003f7eba7fc5
:040042003f7eb069e4
:040043003f7ea62d29
:040044003f7e9bc997
:040045003f7e913d2c
:040046003f7e868be8
:040047003f7e7bb1cc
:040048003f7e70b0d7
:040049003f7e658809
:04004a003f7e5a3863
:04004b003f7e4ec1e5
:04004c003f7e43238d
:04004d003f7e375e5d
:04004e003f7e2b7254
:04004f003f7e1f5e73
:040050003f7e1324b8
:040051003f7e06c226
:040052003f7dfa38bc
:040053003f7ded8878
:040054003f7de0b15b
:040055003f7dd3b266
:040056003f7dc68c98
:040057003f7db940f0
:040058003f7dabcc71
:040059003f7d9e3019
:04005a003f7d906ee8
:04005b003f7d8285de
:04005c003f7d7474fc
:04005d003f7d663d40
:04005e003f7d57dead
:04005f003f7d49593f
:040060003f7d3aacfa
:040061003f7d2bd8dc
:040062003f7d1cdde5
:040063003f7d0dbc14
:040064003f7cfe736c
:040065003f7cef03ea
:040066003f7cdf6c90
:040067003f7ccfae5d
:040068003f7cbfc951
:040069003f7cafbd6c
:04006a003f7c9f8aae
:04006b003f7c8f3116
:04006c003f7c7eb0a7
:04006d003f7c6e085e
:04006e003f7c5d3a3c
:04006f003f7c4c4442
:040070003f7c3b286e
:040071003f7c29e5c2
:040072003f7c187a3d
:040073003f7c06e9df
:040074003f7bf531a8
:040075003f7be35397
:040076003f7bd14dae
:040077003f7bbf20ec
:040078003f7baccd51
:040079003f7b9a53dc
:04007a003f7b87b28f
:04007b003f7b74ea69
:04007c003f7b61fc69
:04007d003f7b4ee790
:04007e003f7b3babde
:04007f003f7b284853
:040080003f7b14bef0
:040081003f7b010eb2
:040082003f7aed379d
:040083003f7ad93aad
:040084003f7ac516e4
:040085003f7ab0cb43
:040086003f7a9c59c8
:040087003f7a87c174
:040088003f7a730246
:040089003f7a5e1c40
:04008a003f7a491060
:04008b003f7a33dda8
:04008c003f7a1e8415
:04008d003f7a0904a9
:04008e003f79f35e65
:04008f003f79dd9147
:040090003f79c79d50
:040091003f79b1837f
:040092003f799b43d4
:040093003f7984dc51
:040094003f796e4ef4
:040095003f79579abe
:040096003f7940c0ae
:040097003f7929bfc5
:040098003f79129802
:040099003f78fb4a67
:04009a003f78e3d6f2
:04009b003f78cc3ba3
:04009c003f78b47b7a
:04009d003f789c9379
:04009e003f7884869d
:04009f003f786c52e8
:0400a0003f7853f85a
:0400a1003f783b77f2
:0400a2003f7822d1b0
:0400a3003f780a0494
:0400a4003f77f110a1
:0400a5003f77d7f7d3
:0400a6003f77beb72b
:0400a7003f77a551a9
:0400a8003f778bc54e
:0400a9003f77721318
:0400aa003f77583a0a
:0400ab003f773e3c21
:0400ac003f7724175f
:0400ad003f7709ccc4
:0400ae003f76ef5b4f
:0400af003f76d4c400
:0400b0003f76ba07d6
:0400b1003f769f24d3
:0400b2003f76841bf6
:0400b3003f7668ec40
:0400b4003f764d97af
:0400b5003f76321b45
:0400b6003f76167a01
:0400b7003f75fab3e4
:0400b8003f75dec6ec
:0400b9003f75c2b31a
:0400ba003f75a67b6d
:0400bb003f758a1ce7
:0400bc003f756d9788
:0400bd003f7550ed4e
:0400be003f75341d39
:0400bf003f7517274b
:0400c0003f74fa0b84
:0400c1003f74dcc9e3
:0400c2003f74bf6266
:0400c3003f74a1d510
:0400c4003f748422df
:0400c5003f746649d5
:0400c6003f74484bf0
:0400c7003f742a2731
:0400c8003f740bdd99
:0400c9003f73ed6e26
:0400ca003f73ced9d9
:0400cb003f73b01fb0
:0400cc003f73913fae
:0400cd003f737239d2
:0400ce003f73530e1b
:0400cf003f7333be8a
:0400d0003f7314471f
:0400d1003f72f4acda
:0400d2003f72d4ebba
:0400d3003f72b504bf
:0400d4003f7294f8eb
:0400d5003f7274c73b
:0400d6003f725470b1
:0400d7003f7233f44d
:0400d8003f7213520e
:0400d9003f71f28cf5
:0400da003f71d19f02
:0400db003f71b08e33
:0400dc003f718f578a
:0400dd003f716dfb07
:0400de003f714c7aa8
:0400df003f712ad46f
:0400e0003f7109085b
:0400e1003f70e7176e
:0400e2003f70c501a5
:0400e3003f70a2c602
:0400e4003f70806683
:0400e5003f705de12a
:0400e6003f703b37f5
:0400e7003f701867e7
:0400e8003f6ff573fe
:0400e9003f6fd25a39
:0400ea003f6faf1b9a
:0400eb003f6f8bb820
:0400ec003f6f6830ca
:0400ed003f6f44839a
:0400ee003f6f20b090
:0400ef003f6efcbaaa
:0400f0003f6ed89ee9
:0400f1003f6eb45d4d
:0400f2003f6e8ff8d6
:0400f3003f6e6b6d84
:0400f4003f6e46be57
:0400f5003f6e21eb4e
:0400f6003f6dfcf26c
:0400f7003f6dd7d5ad
:0400f8003f6db29313
:0400f9003f6d8d2d9d
:0400fa003f6d67a14e
:0400fb003f6d41f222
:0400fc003f6d1c1d1b
:0400fd003f6cf6243a
:0400fe003f6cd0077c
:0400ff003f6ca9c5e4
:040100003f6c835e6f
:040101003f6c5cd41f
:040102003f6c3624f4
:040103003f6c0f50ee
:040104003f6be8580d
:040105003f6bc13b50
:040106003f6b99fbb7
:040107003f6b729543
:040108003f6b4b0cf2
:040109003f6b235ec7
:04010a003f6afb8cc1
:04010b003f6ad395df
:04010c003f6aab7b20
:04010d003f6a833c86
:04010e003f6a5ad911
:04010f003f6a3252bf
:040110003f6a09a792
:040111003f69e0d78b
:040112003f69b7e4a6
:040113003f698ecce6
:040114003f69659149
:040115003f693c32d0
:040116003f6912ae7d
:040117003f68e9074d
:040118003f68bf3c41
:040119003f68954c5a
:04011a003f686b3996
:04011b003f684103f5
:04011c003f6816a87a
:04011d003f67ec2923
:04011e003f67c187ef
:04011f003f6796c1df
:040120003f676bd8f2
:040121003f6740ca2a
:040122003f67159985
:040123003f66ea4504
:040124003f66becca8
:040125003f6693306e
:040126003f66677158
:040127003f663b8e66
:040128003f660f8897
:040129003f65e35eed
:04012a003f65b71066
:04012b003f658aa002
:04012c003f655e0bc2
:04012d003f653154a5
:04012e003f650479ac
:04012f003f64d77bd7
:040130003f64aa5925
:040131003f647d1496
:040132003f644fac2b
:040133003f642221e2
:040134003f63f473be
:040135003f63c6a1bd
:040136003f6398acdf
:040137003f636a9523
:040138003f633c5a8b
:040139003f630dfc17
:04013a003f62df7bc6
:04013b003f62b0d798
:04013c003f6282108c
:04013d003f625326a4
:04013e003f62241ade
:04013f003f61f4ea3e
:040140003f61c598be
:040141003f61962262
:040142003f61668a29
:040143003f6136d012
:040144003f6106f21f
:040145003f60d6f24f
:040146003f60a6cfa1
:040147003f60768916
:040148003f604621ad
:040149003f60159668
:04014a003f5fe4e946
:04014b003f5fb41945
:04014c003f5f832767
:04014d003f5f5212ac
:04014e003f5f20db14
:04014f003f5eef819f
:040150003f5ebe054b
:040151003f5e8c671a
:040152003f5e5aa60c
:040153003f5e28c320
:040154003f5df6be57
:040155003f5dc497af
:040156003f5d924d2a
:040157003f5d5fe1c8
:040158003f5d2d5387
:040159003f5cfaa36a
:04015a003f5cc7d16e
:04015b003f5c94dd94
:04015c003f5c61c7dc
:04015d003f5c2e8e47
:04015e003f5bfb34d4
:04015f003f5bc7b883
:040160003f5b941a53
:040161003f5b605a46
:040162003f5b2c795a
:040163003f5af87592
:040164003f5ac450ea
:040165003f5a900964
:040166003f5a5ba001
:040167003f5a2716be
:040168003f59f26a9f
:040169003f59bd9ca1
:04016a003f5988adc4
:04016b003f59539c09
:04016c003f591e6a6f
:04016d003f58e916f8
:04016e003f58b3a1a2
:04016f003f587e0b6c
:040170003f58485359
:040171003f58127968
:040172003f57dc7f98
:040173003f57a663e9
:040174003f5770265b
:040175003f5739c7f0
:040176003f570348a4
:040177003f56cca77c
:040178003f5695e574
:040179003f565f028c
:04017a003f5627fec7
:04017b003f55f0d923
:04017c003f55b9939f
:04017d003f55822c3c
:04017e003f554aa4fb
:04017f003f5512fbdb
:040180003f54db31dc
:040181003f54a347fd
:040182003f546b3b40
:040183003f54330fa3
:040184003f53fac328
:040185003f53c255cd
:040186003f5389c793
:040187003f53511879
:040188003f53184980
:040189003f52df59a9
:04018a003f52a649f1
:04018b003f526d185a
:04018c003f5233c6e5
:04018d003f51fa5490
:04018e003f51c0c25b
:04018f003f51871045
:040190003f514d3d51
:040191003f51134a7d
:040192003f50d937ca
:040193003f509f0337
:040194003f5064afc5
:040195003f502a3b72
:040196003f4fefa840
:040197003f4fb4f42e
:040198003f4f7a1f3c
:040199003f4f3f2b6a
:04019a003f4f0417b8
:04019b003f4ec8e427
:04019c003f4e8d90b5
:04019d003f4e521c63
:04019e003f4e168931
:04019f003f4ddad521
:0401a0003f4d9f022e
:0401a1003f4d63105b
:0401a2003f4d26fdaa
:0401a3003f4ceacb18
:0401a4003f4cae79a5
:0401a5003f4c720851
:0401a6003f4c35781d
:0401a7003f4bf8c70b
:0401a8003f4bbbf816
:0401a9003f4b7f0940
:0401aa003f4b41fa8c
:0401ab003f4b04ccf6
:0401ac003f4ac77f80
:0401ad003f4a8a1328
:0401ae003f4a4c87f1
:0401af003f4a0edcd9
:0401b0003f49d112e0
:0401b1003f49932906
:0401b2003f4955214b
:0401b3003f4916fab0
:0401b4003f48d8b335
:0401b5003f489a4ed7
:0401b6003f485bca99
:0401b7003f481d2779
:0401b8003f47de657a
:0401b9003f479f8499
:0401ba003f476085d6
:0401bb003f47216732
:0401bc003f46e22aae
:0401bd003f46a2ce49
:0401be003f46635401
:0401bf003f4623bbd9
:0401c0003f45e403d0
:0401c1003f45a42de5
:0401c2003f45643918
:0401c3003f4524266a
:0401c4003f44e3f5dc
:0401c5003f44a3a56b
:0401c6003f44633718
:0401c7003f4422abe4
:0401c8003f43e200cf
:0401c9003f43a138d7
:0401ca003f436051fe
:0401cb003f431f4c43
:0401cc003f42de29a7
:0401cd003f429ce829
:0401ce003f425b89c8
:0401cf003f421a0b86
:0401d0003f41d87063
:0401d1003f4196b75d
:0401d2003f4154e174
:0401d3003f4112ecaa
:0401d4003f40d0dafe
:0401d5003f408ea970
:0401d6003f404c5cfe
:0401d7003f4009f0ac
:0401d8003f3fc76777
:0401d9003f3f84c060
:0401da003f3f41fc66
:0401db003f3eff1b89
:0401dc003f3ebc1bcb
:0401dd003f3e78ff2a
:0401de003f3e35c5a6
:0401df003f3df26e40
:0401e0003f3daef9f8
:0401e1003f3d6b67cc
:0401e2003f3d27b8be
:0401e3003f3ce3ecce
:0401e4003f3ca003f9
:0401e5003f3c5bfc44
:0401e6003f3c17d9aa
:0401e7003f3bd3982f
:0401e8003f3b8f3bcf
:0401e9003f3b4ac18d
:0401ea003f3b062968
:0401eb003f3ac17561
:0401ec003f3a7ca476
:0401ed003f3a37b7a7
:0401ee003f39f2acf7
:0401ef003f39ad8562
:0401f0003f396842e9
:0401f1003f3922e18f
:0401f2003f38dd6550
:0401f3003f3897cb2f
:0401f4003f38521628
:0401f5003f380c4340
:0401f6003f37c65574
:0401f7003f37804ac4
:0401f8003f373a2330
:0401f9003f36f3dfbb
:0401fa003f36ad7f60
:0401fb003f36670420
:0401fc003f36206cfe
:0401fd003f35d9b8f9
:0401fe003f3592e710
:0401ff003f354bfb42
:040200003f3504f38f
:040201003f34bdcffa
:040202003f34768f80
:040203003f342f3421
:040204003f33e7bce1
:040205003f33a029ba
:040206003f33587ab0
:040207003f3310afc2
:040208003f32c8c9f0
:040209003f3280c739
:04020a003f3238aa9d
:04020b003f31f0711e
:04020c003f31a81db9
:04020d003f315fad71
:04020e003f31172243
:04020f003f30ce7c32
:040210003f3085bb3b
:040211003f303cde60
:040212003f2ff3e6a1
:040213003f2faad3fc
:040214003f2f61a572
:040215003f2f185b04
:040216003f2ecef7b2
:040217003f2e857879
:040218003f2e3bde5c
:040219003f2df2295a
:04021a003f2da85973
:04021b003f2d5e6fa6
:04021c003f2d1469f5
:04021d003f2cca495f
:04021e003f2c800fe2
:04021f003f2c35b982
:040220003f2beb4a3b
:040221003f2ba0bf10
:040222003f2b561bfd
:040223003f2b0b5b07
:040224003f2ac0822b
:040225003f2a758e69
:040226003f2a2a80c1
:040227003f29df5735
:040228003f299415c1
:040229003f2948b869
:04022a003f28fd412b
:04022b003f28b1b007
:04022c003f286605fc
:04022d003f281a400c
:04022e003f27ce6137
:04022f003f2782687b
:040230003f273656d8
:040231003f26ea2a50
:040232003f269de3e3
:040233003f2651848d
:040234003f26050a52
:040235003f25b87732
:040236003f256bcb2a
:040237003f251f043c
:040238003f24d22568
:040239003f24852cad
:04023a003f24381a0b
:04023b003f23eaee85
:04023c003f239da916
:04023d003f23504bc0
:04023e003f2302d385
:04023f003f22b54362
:040240003f22679959
:040241003f2219d768
:040242003f21cbfb92
:040243003f217e06d3
:040244003f212ff92e
:040245003f20e1d2a3
:040246003f2093932f
:040247003f20453bd4
:040248003f1ff6cb93
:040249003f1fa8416a
:04024a003f1f599f5a
:04024b003f1f0ae562
:04024c003f1ebc1283
:04024d003f1e6d26bd
:04024e003f1e1e220f
:04024f003f1dcf067a
:040250003f1d7fd1fe
:040251003f1d308499
:040252003f1ce11f4d
:040253003f1c91a219
:040254003f1c420cfd
:040255003f1bf25ffa
:040256003f1ba2990f
:040257003f1b52bb3c
:040258003f1b02c680
:040259003f1ab2b8de
:04025a003f1a629352
:04025b003f1a1255df
:04025c003f19c20084
:04025d003f19719440
:04025e003f19210f14
:04025f003f18d07301
:040260003f187fc004
:040261003f182ef51f
:040262003f17de1252
:040263003f178d189c
:040264003f173c07fd
:040265003f16eade78
:040266003f16999f07
:040267003f164847af
:040268003f15f6d96f
:040269003f15a55444
:04026a003f1553b732
:04026b003f15020435
:04026c003f14b03952
:04026d003f145e5884
:04026e003f140c5fce
:04026f003f13ba502f
:040270003f13682aa6
:040271003f1315ee34
:040272003f12c39ada
:040273003f12713095
:040274003f121eb067
:040275003f11cc1950
:040276003f11796b50
:040277003f1126a766
:040278003f10d3cd93
:040279003f1080dcd6
:04027a003f102dd52f
:04027b003f0fdab89f
:04027c003f0f878425
:04027d003f0f343bc0
:04027e003f0ee0db74
:04027f003f0e8d653c
:040280003f0e39da1a
:040281003f0de6380f
:040282003f0d928119
:040283003f0d3eb33a
:040284003f0cead071
:040285003f0c96d7bd
:040286003f0c42c91e
:040287003f0beea596
:040288003f0b9a6b23
:040289003f0b461cc5
:04028a003f0af1b77f
:04028b003f0a9d3d4c
:04028c003f0a48ad30
:04028d003f09f40928
:04028e003f099f4e37
:04028f003f094a7f5a
:040290003f08f59b93
:040291003f08a0a1e1
:040292003f084b9244
:040293003f07f66fbc
:040294003f07a13649
:040295003f074be8ec
:040296003f06f686a3
:040297003f06a10e6f
:040298003f064b8250
:040299003f05f5e246
:04029a003f05a02c50
:04029b003f054a626f
:04029c003f04f484a3
:04029d003f049e91eb
:04029e003f04488948
:04029f003f03f26dba
:0402a0003f039c3d3f
:0402a1003f0345f8da
:0402a2003f02ef9f89
:0402a3003f0299324b
:0402a4003f0242b122
:0402a5003f01ec1c0d
:0402a6003f0195730c
:0402a7003f013eb520
:0402a8003f00e7e448
:0402a9003f0090ff83
:0402aa003f003a06d1
:0402ab003effc5f35a
:0402ac003eff17b248
:0402ad003efe694a5e
:0402ae003efdbabb9c
:0402af003efd0c0400
:0402b0003efc5d278c
:0402b1003efbae2240
:0402b2003efafef71b
:0402b3003efa4fa51b
:0402b4003ef9a02d42
:0402b5003ef8f08e91
:0402b6003ef840c806
:0402b7003ef790dca2
:0402b8003ef6e0cb63
:0402b9003ef630934a
:0402ba003ef5803558
:0402bb003ef4cfb18d
:0402bc003ef41f07e6
:0402bd003ef36e3866
:0402be003ef2bd430c
:0402bf003ef20c29d6
:0402c0003ef15aeac7
:0402c1003ef0a985dd
:0402c2003eeff7fb19
:0402c3003eef464c78
:0402c4003eee9479fd
:0402c5003eede280a8
:0402c6003eed306376
:0402c7003eec7e216a
:0402c8003eebcbbb83
:0402c9003eeb1930bf
:0402ca003eea668121
:0402cb003ee9b3aea7
:0402cc003ee900b750
:0402cd003ee84d9c1e
:0402ce003ee79a5d10
:0402cf003ee6e6fb26
:0402d0003ee633755e
:0402d1003ee57fcbbc
:0402d2003ee4cbfe3d
:0402d3003ee4180edf
:0402d4003ee363faa8
:0402d5003ee2afc492
:0402d6003ee1fb6aa0
:0402d7003ee146eed0
:0402d8003ee0924f23
:0402d9003edfdd8d9a
:0402da003edf28a932
:0402db003ede73a2ee
:0402dc003eddbe79cc
:0402dd003edd092ecb
:0402de003edc53c1ee
:0402df003edb9e3133
:0402e0003edae8809a
:0402e1003eda32ad22
:0402e2003ed97cb9cc
:0402e3003ed8c6a398
:0402e4003ed8106b85
:0402e5003ed75a1393
:0402e6003ed6a399c4
:0402e7003ed5ecfd17
:0402e8003ed5364188
:0402e9003ed47f641c
:0402ea003ed3c867d0
:0402eb003ed31148a5
:0402ec003ed25a099b
:0402ed003ed1a2aab2
:0402ee003ed0eb2ae9
:0402ef003ed0338a40
:0402f0003ecf7bcab8
:0402f1003ecec3ea50
:0402f2003ece0bea07
:0402f3003ecd53cadf
:0402f4003ecc9b8bd6
:0402f5003ecbe32ced
:0402f6003ecb2aae23
:0402f7003eca721079
:0402f8003ec9b953ef
:0402f9003ec9007783
:0402fa003ec8477c37
:0402fb003ec78e620a
:0402fc003ec6d529fc
:0402fd003ec61bd20c
:0402fe003ec5625c3b
:0402ff003ec4a8c889
:040300003ec3ef15f4
:040301003ec335447e
:040302003ec27b5527
:040303003ec1c148ee
:040304003ec1071ed1
:040305003ec04cd5d5
:040306003ebf926ff5
:040307003ebed7eb34
:040308003ebe1d4a8e
:040309003ebd628b08
:04030a003ebca7af9f
:04030b003ebbecb653
:04030c003ebb31a023
:04030d003eba766e10
:04030e003eb9bb1e1b
:04030f003eb8ffb243
:040310003eb8442a85
:040311003eb78884e7
:040312003eb6ccc364
:040313003eb610e6fc
:040314003eb554ecb2
:040315003eb498d684
:040316003eb3dca571
:040317003eb3205879
:040318003eb263ef9f
:040319003eb1a76bdf
:04031a003eb0eacb3c
:04031b003eb02e10b2
:04031c003eaf713a45
:04031d003eaeb449f3
:04031e003eadf73cbd
:04031f003ead3a15a0
:040320003eac7cd49f
:040321003eabbf77b9
:040322003eab0201eb
:040323003eaa446f3b
:040324003ea986c4a4
:040325003ea8c8fe28
:040326003ea80b1fc3
:040327003ea74d257b
:040328003ea68f124c
:040329003ea5d0e538
:04032a003ea5129f3b
:04032b003ea4543f59
:04032c003ea395c592
:04032d003ea2d733e2
:04032e003ea218874c
:04032f003ea159c2d0
:040330003ea09ae56c
:040331003e9fdbee22
:040332003e9f1cdfef
:040333003e9e5db8d5
:040334003e9d9e78d4
:040335003e9cdf20eb
:040336003e9c1faf1b
:040337003e9b602762
:040338003e9aa086c3
:040339003e99e0ce3b
:04033a003e9920feca
:04033b003e98611671
:04033c003e97a11730
:04033d003e96e10007
:04033e003e9620d2f5
:04033f003e95608dfa
:040340003e94a03116
:040341003e93dfbf49
:040342003e931f3592
:040343003e925e94f4
:040344003e919ddd6c
:040345003e90dd10f9
:040346003e901c2c9d
:040347003e8f5b3258
:040348003e8e9a2229
:040349003e8dd8fc11
:04034a003e8d17c00d
:04034b003e8c566e20
:04034c003e8b950748
:04034d003e8ad38a87
:04034e003e8a11f7db
:04034f003e89505043
:040350003e888e93c2
:040351003e87ccc156
:040352003e870adafe
:040353003e8648dfbb
:040354003e8586ce8e
:040355003e84c4aa74
:040356003e8402706f
:040357003e8340227f
:040358003e827dc0a4
:040359003e81bb4adc
:04035a003e80f8c029
:04035b003e80362288
:04035c003e7ee6e11a
:04035d003e7d61562a
:04035e003e7bdba463
:04035f003e7a55cbc2
:040360003e78cfcc48
:040361003e7749a6f4
:040362003e75c35ac7
:040363003e743ce8c0
:040364003e72b651de
:040365003e712f9422
:040366003e6fa8b28c
:040367003e6e21ab1a
:040368003e6c9a7fce
:040369003e6b132fa5
:04036a003e698bbaa3
:04036b003e680422c2
:04036c003e667c6607
:04036d003e64f48670
:04036e003e636c83fb
:04036f003e61e45cab
:040370003e605c137c
:040371003e5ed3a871
:040372003e5d4b1a87
:040373003e5bc26ac1
:040374003e5a39971d
:040375003e58b0a49a
:040376003e57278f38
:040377003e559e58f9
:040378003e541501d9
:040379003e528b89dc
:04037a003e5101f1fe
:04037b003e4f783841
:04037c003e4dee60a4
:04037d003e4c646727
:04037e003e4ada4fca
:04037f003e4950188b
:040380003e47c5c26d
:040381003e463b4d6c
:040382003e44b0b98c
:040383003e432607c8
:040384003e419b3724
:040385003e4010499d
:040386003e3e853e34
:040387003e3cfa15e9
:040388003e3b6ecfbb
:040389003e39e36caa
:04038a003e3857ecb6
:04038b003e36cc50de
:04038c003e35409822
:04038d003e33b4c483
:04038e003e3228d4ff
:04038f003e309cc997
:040390003e2f10a24a
:040391003e2d846118
:040392003e2bf80402
:040393003e2a6b8d06
:040394003e28defc25
:040395003e2752515c
:040396003e25c58caf
:040397003e2438ad1b
:040398003e22abb6a0
:040399003e211ea53e
:04039a003e1f917bf6
:04039b003e1e0438c6
:04039c003e1c76deaf
:04039d003e1ae96bb0
:04039e003e195be0c9
:04039f003e17ce3dfa
:0403a0003e16408342
:0403a1003e14b2b2a2
:0403a2003e1324ca18
:0403a3003e1196cca5
:0403a4003e1008b748
:0403a5003e0e7a8b03
:0403a6003e0cec4ad3
:0403a7003e0b5df3b9
:0403a8003e09cf86b5
:0403a9003e084105c4
:0403aa003e06b26eeb
:0403ab003e0523c226
:0403ac003e03950275
:0403ad003e02062ed8
:0403ae003e00774551
:0403af003dfdd092ae
:0403b0003dfab273ed
:0403b1003df7942c54
:0403b2003df475c0e1
:0403b3003df1572e93
:0403b4003dee38766c
:0403b5003deb199a69
:0403b6003de7fa9a8b
:0403b7003de4db76d0
:0403b8003de1bc2e39
:0403b9003dde9cc4c5
:0403ba003ddb7d3773
:0403bb003dd85d8943
:0403bc003dd53db935
:0403bd003dd21dc848
:0403be003dcefdb77c
:0403bf003dcbdd86cf
:0403c0003dc8bd3641
:0403c1003dc59cc6d4
:0403c2003dc27c3983
:0403c3003dbf5b8d52
:0403c4003dbc3ac33f
:0403c5003db919dd48
:0403c6003db5f8da6f
:0403c7003db2d7bbb1
:0403c8003dafb6800f
:0403c9003dac952b87
:0403ca003da973ba1c
:0403cb003da65230c9
:0403cc003da3308c91
:0403cd003da00ecf72
:0403ce003d9cecf96d
:0403cf003d99cb0a7f
:0403d0003d96a905a8
:0403d1003d9386e7eb
:0403d2003d9064b442
:0403d3003d8d426ab0
:0403d4003d8a200a34
:0403d5003d86fd94d0
:0403d6003d83db0a7e
:0403d7003d80b86c41
:0403d8003d7b2b74ca
:0403d9003d74e5e9a1
:0403da003d6ea0389c
:0403db003d685a62bd
:0403dc003d62146901
:0403dd003d5bce4c6a
:0403de003d55880ef3
:0403df003d4f41af9e
:0403e0003d48fb3069
:0403e1003d42b49154
:0403e2003d3c6dd55c
:0403e3003d3626fc81
:0403e4003d2fe007c2
:0403e5003d2998f620
:0403e6003d2351cb97
:0403e7003d1d0a8826
:0403e8003d16c32ccf
:0403e9003d107bb890
:0403ea003d0a342f65
:0403eb003d03ec9052
:0403ec003cfb49bad3
:0403ed003ceeba2cfc
:0403ee003ce22a7a49
:0403ef003cd59aa6b9
:0403f0003cc90ab04a
:0403f1003cbc7a9bfb
:0403f2003cafea69c9
:0403f3003ca35a1cb1
:0403f4003c96c9b6b4
:0403f5003c8a3938cd
:0403f6003c7b514bb0
:0403f7003c622fff36
:0403f8003c490e90de
:0403f9003c2fed02a6
:0403fa003c16cb588a
:0403fb003bfb533045
:0403fc003bc90f8862
:0403fd003b96cbc19f
:0403fe003b490fc6a2
:0403ff003ac90fd513
:00000001FF
