:04000000800000007c
:04000100bdc8bd3683
:04000200be47c5c26e
:04000300be94a031d6
:04000400bec3ef1573
:04000500bef15aea04
:04000600bf0e39da16
:04000700bf22679914
:04000800bf3504f309
:04000900bf45e40308
:04000a00bf54db31d3
:04000b00bf61c59874
:04000c00bf6c835ee4
:04000d00bf74fa0bb7
:04000e00bf7b14bee2
:04000f00bf7ec46d7f
:04001000bf800000ad
:04001100bf7ec46d7d
:04001200bf7b14bede
:04001300bf74fa0bb1
:04001400bf6c835edc
:04001500bf61c5986a
:04001600bf54db31c7
:04001700bf45e403fa
:04001800bf3504f3f9
:04001900bf22679902
:04001a00bf0e39da02
:04001b00bef15aeaee
:04001c00bec3ef155b
:04001d00be94a031bc
:04001e00be47c5c252
:04001f00bdc8bd3665
:04002000a50d3132c7
:040021003dc8bd36e3
:040022003e47c5c2ce
:040023003e94a03136
:040024003ec3ef15d3
:040025003ef15aea64
:040026003f0e39da76
:040027003f22679974
:040028003f3504f369
:040029003f45e40368
:04002a003f54db3133
:04002b003f61c598d4
:04002c003f6c835e44
:04002d003f74fa0b17
:04002e003f7b14be42
:04002f003f7ec46ddf
:00000001FF
