:040000003f8000003d
:040001003f7fffec52
:040002003f7fffb18c
:040003003f7fff4eee
:040004003f7ffec478
:040005003f7ffe1328
:040006003f7ffd3902
:040007003f7ffc3902
:040008003f7ffb112a
:040009003f7ff9c17b
:04000a003f7ff84af2
:04000b003f7ff6ac91
:04000c003f7ff4e658
:04000d003f7ff2f847
:04000e003f7ff0e35d
:04000f003f7feea79a
:040010003f7fec43ff
:040011003f7fe9b88c
:040012003f7fe70540
:040013003f7fe42b1c
:040014003f7fe12920
:040015003f7fde004b
:040016003f7fdaaf9f
:040017003f7fd73719
:040018003f7fd397bc
:040019003f7fcfd185
:04001a003f7fcbe277
:04001b003f7fc7cc90
:04001c003f7fc38fd0
:04001d003f7fbf2a38
:04001e003f7fba9ec8
:04001f003f7fb5ea80
:040020003f7fb10f5e
:040021003f7fac0d64
:040022003f7fa6e393
:040023003f7fa191e9
:040024003f7f9c1866
:040025003f7f96780b
:040026003f7f90b1d7
:040027003f7f8ac2cb
:040028003f7f84abe7
:040029003f7f7e6d2a
:04002a003f7f780894
:04002b003f7f717b27
:04002c003f7f6ac7e1
:04002d003f7f63ecc2
:04002e003f7f5ce9cb
:04002f003f7f55bffb
:040030003f7f4e6d53
:040031003f7f46f4d3
:040032003f7f3f5479
:040033003f7f378c48
:040034003f7f2f9d3e
:040035003f7f27875b
:040036003f7f1f49a0
:040037003f7f16e40d
:040038003f7f0e58a0
:040039003f7f05a45c
:04003a003f7efcc940
:04003b003f7ef3c74a
:04003c003f7eea9d7c
:04003d003f7ee14cd5
:04003e003f7ed7d456
:04003f003f7ece34fe
:040040003f7ec46dce
:040041003f7eba7fc5
:040042003f7eb069e4
:040043003f7ea62d29
:040044003f7e9bc997
:040045003f7e913d2c
:040046003f7e868be8
:040047003f7e7bb1cc
:040048003f7e70b0d7
:040049003f7e658809
:04004a003f7e5a3863
:04004b003f7e4ec1e5
:04004c003f7e43238d
:04004d003f7e375e5d
:04004e003f7e2b7254
:04004f003f7e1f5e73
:040050003f7e1324b8
:040051003f7e06c226
:040052003f7dfa38bc
:040053003f7ded8878
:040054003f7de0b15b
:040055003f7dd3b266
:040056003f7dc68c98
:040057003f7db940f0
:040058003f7dabcc71
:040059003f7d9e3019
:04005a003f7d906ee8
:04005b003f7d8285de
:04005c003f7d7474fc
:04005d003f7d663d40
:04005e003f7d57dead
:04005f003f7d49593f
:040060003f7d3aacfa
:040061003f7d2bd8dc
:040062003f7d1cdde5
:040063003f7d0dbc14
:040064003f7cfe736c
:040065003f7cef03ea
:040066003f7cdf6c90
:040067003f7ccfae5d
:040068003f7cbfc951
:040069003f7cafbd6c
:04006a003f7c9f8aae
:04006b003f7c8f3116
:04006c003f7c7eb0a7
:04006d003f7c6e085e
:04006e003f7c5d3a3c
:04006f003f7c4c4442
:040070003f7c3b286e
:040071003f7c29e5c2
:040072003f7c187a3d
:040073003f7c06e9df
:040074003f7bf531a8
:040075003f7be35397
:040076003f7bd14dae
:040077003f7bbf20ec
:040078003f7baccd51
:040079003f7b9a53dc
:04007a003f7b87b28f
:04007b003f7b74ea69
:04007c003f7b61fc69
:04007d003f7b4ee790
:04007e003f7b3babde
:04007f003f7b284853
:040080003f7b14bef0
:040081003f7b010eb2
:040082003f7aed379d
:040083003f7ad93aad
:040084003f7ac516e4
:040085003f7ab0cb43
:040086003f7a9c59c8
:040087003f7a87c174
:040088003f7a730246
:040089003f7a5e1c40
:04008a003f7a491060
:04008b003f7a33dda8
:04008c003f7a1e8415
:04008d003f7a0904a9
:04008e003f79f35e65
:04008f003f79dd9147
:040090003f79c79d50
:040091003f79b1837f
:040092003f799b43d4
:040093003f7984dc51
:040094003f796e4ef4
:040095003f79579abe
:040096003f7940c0ae
:040097003f7929bfc5
:040098003f79129802
:040099003f78fb4a67
:04009a003f78e3d6f2
:04009b003f78cc3ba3
:04009c003f78b47b7a
:04009d003f789c9379
:04009e003f7884869d
:04009f003f786c52e8
:0400a0003f7853f85a
:0400a1003f783b77f2
:0400a2003f7822d1b0
:0400a3003f780a0494
:0400a4003f77f110a1
:0400a5003f77d7f7d3
:0400a6003f77beb72b
:0400a7003f77a551a9
:0400a8003f778bc54e
:0400a9003f77721318
:0400aa003f77583a0a
:0400ab003f773e3c21
:0400ac003f7724175f
:0400ad003f7709ccc4
:0400ae003f76ef5b4f
:0400af003f76d4c400
:0400b0003f76ba07d6
:0400b1003f769f24d3
:0400b2003f76841bf6
:0400b3003f7668ec40
:0400b4003f764d97af
:0400b5003f76321b45
:0400b6003f76167a01
:0400b7003f75fab3e4
:0400b8003f75dec6ec
:0400b9003f75c2b31a
:0400ba003f75a67b6d
:0400bb003f758a1ce7
:0400bc003f756d9788
:0400bd003f7550ed4e
:0400be003f75341d39
:0400bf003f7517274b
:0400c0003f74fa0b84
:0400c1003f74dcc9e3
:0400c2003f74bf6266
:0400c3003f74a1d510
:0400c4003f748422df
:0400c5003f746649d5
:0400c6003f74484bf0
:0400c7003f742a2731
:0400c8003f740bdd99
:0400c9003f73ed6e26
:0400ca003f73ced9d9
:0400cb003f73b01fb0
:0400cc003f73913fae
:0400cd003f737239d2
:0400ce003f73530e1b
:0400cf003f7333be8a
:0400d0003f7314471f
:0400d1003f72f4acda
:0400d2003f72d4ebba
:0400d3003f72b504bf
:0400d4003f7294f8eb
:0400d5003f7274c73b
:0400d6003f725470b1
:0400d7003f7233f44d
:0400d8003f7213520e
:0400d9003f71f28cf5
:0400da003f71d19f02
:0400db003f71b08e33
:0400dc003f718f578a
:0400dd003f716dfb07
:0400de003f714c7aa8
:0400df003f712ad46f
:0400e0003f7109085b
:0400e1003f70e7176e
:0400e2003f70c501a5
:0400e3003f70a2c602
:0400e4003f70806683
:0400e5003f705de12a
:0400e6003f703b37f5
:0400e7003f701867e7
:0400e8003f6ff573fe
:0400e9003f6fd25a39
:0400ea003f6faf1b9a
:0400eb003f6f8bb820
:0400ec003f6f6830ca
:0400ed003f6f44839a
:0400ee003f6f20b090
:0400ef003f6efcbaaa
:0400f0003f6ed89ee9
:0400f1003f6eb45d4d
:0400f2003f6e8ff8d6
:0400f3003f6e6b6d84
:0400f4003f6e46be57
:0400f5003f6e21eb4e
:0400f6003f6dfcf26c
:0400f7003f6dd7d5ad
:0400f8003f6db29313
:0400f9003f6d8d2d9d
:0400fa003f6d67a14e
:0400fb003f6d41f222
:0400fc003f6d1c1d1b
:0400fd003f6cf6243a
:0400fe003f6cd0077c
:0400ff003f6ca9c5e4
:040100003f6c835e6f
:040101003f6c5cd41f
:040102003f6c3624f4
:040103003f6c0f50ee
:040104003f6be8580d
:040105003f6bc13b50
:040106003f6b99fbb7
:040107003f6b729543
:040108003f6b4b0cf2
:040109003f6b235ec7
:04010a003f6afb8cc1
:04010b003f6ad395df
:04010c003f6aab7b20
:04010d003f6a833c86
:04010e003f6a5ad911
:04010f003f6a3252bf
:040110003f6a09a792
:040111003f69e0d78b
:040112003f69b7e4a6
:040113003f698ecce6
:040114003f69659149
:040115003f693c32d0
:040116003f6912ae7d
:040117003f68e9074d
:040118003f68bf3c41
:040119003f68954c5a
:04011a003f686b3996
:04011b003f684103f5
:04011c003f6816a87a
:04011d003f67ec2923
:04011e003f67c187ef
:04011f003f6796c1df
:040120003f676bd8f2
:040121003f6740ca2a
:040122003f67159985
:040123003f66ea4504
:040124003f66becca8
:040125003f6693306e
:040126003f66677158
:040127003f663b8e66
:040128003f660f8897
:040129003f65e35eed
:04012a003f65b71066
:04012b003f658aa002
:04012c003f655e0bc2
:04012d003f653154a5
:04012e003f650479ac
:04012f003f64d77bd7
:040130003f64aa5925
:040131003f647d1496
:040132003f644fac2b
:040133003f642221e2
:040134003f63f473be
:040135003f63c6a1bd
:040136003f6398acdf
:040137003f636a9523
:040138003f633c5a8b
:040139003f630dfc17
:04013a003f62df7bc6
:04013b003f62b0d798
:04013c003f6282108c
:04013d003f625326a4
:04013e003f62241ade
:04013f003f61f4ea3e
:040140003f61c598be
:040141003f61962262
:040142003f61668a29
:040143003f6136d012
:040144003f6106f21f
:040145003f60d6f24f
:040146003f60a6cfa1
:040147003f60768916
:040148003f604621ad
:040149003f60159668
:04014a003f5fe4e946
:04014b003f5fb41945
:04014c003f5f832767
:04014d003f5f5212ac
:04014e003f5f20db14
:04014f003f5eef819f
:040150003f5ebe054b
:040151003f5e8c671a
:040152003f5e5aa60c
:040153003f5e28c320
:040154003f5df6be57
:040155003f5dc497af
:040156003f5d924d2a
:040157003f5d5fe1c8
:040158003f5d2d5387
:040159003f5cfaa36a
:04015a003f5cc7d16e
:04015b003f5c94dd94
:04015c003f5c61c7dc
:04015d003f5c2e8e47
:04015e003f5bfb34d4
:04015f003f5bc7b883
:040160003f5b941a53
:040161003f5b605a46
:040162003f5b2c795a
:040163003f5af87592
:040164003f5ac450ea
:040165003f5a900964
:040166003f5a5ba001
:040167003f5a2716be
:040168003f59f26a9f
:040169003f59bd9ca1
:04016a003f5988adc4
:04016b003f59539c09
:04016c003f591e6a6f
:04016d003f58e916f8
:04016e003f58b3a1a2
:04016f003f587e0b6c
:040170003f58485359
:040171003f58127968
:040172003f57dc7f98
:040173003f57a663e9
:040174003f5770265b
:040175003f5739c7f0
:040176003f570348a4
:040177003f56cca77c
:040178003f5695e574
:040179003f565f028c
:04017a003f5627fec7
:04017b003f55f0d923
:04017c003f55b9939f
:04017d003f55822c3c
:04017e003f554aa4fb
:04017f003f5512fbdb
:040180003f54db31dc
:040181003f54a347fd
:040182003f546b3b40
:040183003f54330fa3
:040184003f53fac328
:040185003f53c255cd
:040186003f5389c793
:040187003f53511879
:040188003f53184980
:040189003f52df59a9
:04018a003f52a649f1
:04018b003f526d185a
:04018c003f5233c6e5
:04018d003f51fa5490
:04018e003f51c0c25b
:04018f003f51871045
:040190003f514d3d51
:040191003f51134a7d
:040192003f50d937ca
:040193003f509f0337
:040194003f5064afc5
:040195003f502a3b72
:040196003f4fefa840
:040197003f4fb4f42e
:040198003f4f7a1f3c
:040199003f4f3f2b6a
:04019a003f4f0417b8
:04019b003f4ec8e427
:04019c003f4e8d90b5
:04019d003f4e521c63
:04019e003f4e168931
:04019f003f4ddad521
:0401a0003f4d9f022e
:0401a1003f4d63105b
:0401a2003f4d26fdaa
:0401a3003f4ceacb18
:0401a4003f4cae79a5
:0401a5003f4c720851
:0401a6003f4c35781d
:0401a7003f4bf8c70b
:0401a8003f4bbbf816
:0401a9003f4b7f0940
:0401aa003f4b41fa8c
:0401ab003f4b04ccf6
:0401ac003f4ac77f80
:0401ad003f4a8a1328
:0401ae003f4a4c87f1
:0401af003f4a0edcd9
:0401b0003f49d112e0
:0401b1003f49932906
:0401b2003f4955214b
:0401b3003f4916fab0
:0401b4003f48d8b335
:0401b5003f489a4ed7
:0401b6003f485bca99
:0401b7003f481d2779
:0401b8003f47de657a
:0401b9003f479f8499
:0401ba003f476085d6
:0401bb003f47216732
:0401bc003f46e22aae
:0401bd003f46a2ce49
:0401be003f46635401
:0401bf003f4623bbd9
:0401c0003f45e403d0
:0401c1003f45a42de5
:0401c2003f45643918
:0401c3003f4524266a
:0401c4003f44e3f5dc
:0401c5003f44a3a56b
:0401c6003f44633718
:0401c7003f4422abe4
:0401c8003f43e200cf
:0401c9003f43a138d7
:0401ca003f436051fe
:0401cb003f431f4c43
:0401cc003f42de29a7
:0401cd003f429ce829
:0401ce003f425b89c8
:0401cf003f421a0b86
:0401d0003f41d87063
:0401d1003f4196b75d
:0401d2003f4154e174
:0401d3003f4112ecaa
:0401d4003f40d0dafe
:0401d5003f408ea970
:0401d6003f404c5cfe
:0401d7003f4009f0ac
:0401d8003f3fc76777
:0401d9003f3f84c060
:0401da003f3f41fc66
:0401db003f3eff1b89
:0401dc003f3ebc1bcb
:0401dd003f3e78ff2a
:0401de003f3e35c5a6
:0401df003f3df26e40
:0401e0003f3daef9f8
:0401e1003f3d6b67cc
:0401e2003f3d27b8be
:0401e3003f3ce3ecce
:0401e4003f3ca003f9
:0401e5003f3c5bfc44
:0401e6003f3c17d9aa
:0401e7003f3bd3982f
:0401e8003f3b8f3bcf
:0401e9003f3b4ac18d
:0401ea003f3b062968
:0401eb003f3ac17561
:0401ec003f3a7ca476
:0401ed003f3a37b7a7
:0401ee003f39f2acf7
:0401ef003f39ad8562
:0401f0003f396842e9
:0401f1003f3922e18f
:0401f2003f38dd6550
:0401f3003f3897cb2f
:0401f4003f38521628
:0401f5003f380c4340
:0401f6003f37c65574
:0401f7003f37804ac4
:0401f8003f373a2330
:0401f9003f36f3dfbb
:0401fa003f36ad7f60
:0401fb003f36670420
:0401fc003f36206cfe
:0401fd003f35d9b8f9
:0401fe003f3592e710
:0401ff003f354bfb42
:040200003f3504f38f
:040201003f34bdcffa
:040202003f34768f80
:040203003f342f3421
:040204003f33e7bce1
:040205003f33a029ba
:040206003f33587ab0
:040207003f3310afc2
:040208003f32c8c9f0
:040209003f3280c739
:04020a003f3238aa9d
:04020b003f31f0711e
:04020c003f31a81db9
:04020d003f315fad71
:04020e003f31172243
:04020f003f30ce7c32
:040210003f3085bb3b
:040211003f303cde60
:040212003f2ff3e6a1
:040213003f2faad3fc
:040214003f2f61a572
:040215003f2f185b04
:040216003f2ecef7b2
:040217003f2e857879
:040218003f2e3bde5c
:040219003f2df2295a
:04021a003f2da85973
:04021b003f2d5e6fa6
:04021c003f2d1469f5
:04021d003f2cca495f
:04021e003f2c800fe2
:04021f003f2c35b982
:040220003f2beb4a3b
:040221003f2ba0bf10
:040222003f2b561bfd
:040223003f2b0b5b07
:040224003f2ac0822b
:040225003f2a758e69
:040226003f2a2a80c1
:040227003f29df5735
:040228003f299415c1
:040229003f2948b869
:04022a003f28fd412b
:04022b003f28b1b007
:04022c003f286605fc
:04022d003f281a400c
:04022e003f27ce6137
:04022f003f2782687b
:040230003f273656d8
:040231003f26ea2a50
:040232003f269de3e3
:040233003f2651848d
:040234003f26050a52
:040235003f25b87732
:040236003f256bcb2a
:040237003f251f043c
:040238003f24d22568
:040239003f24852cad
:04023a003f24381a0b
:04023b003f23eaee85
:04023c003f239da916
:04023d003f23504bc0
:04023e003f2302d385
:04023f003f22b54362
:040240003f22679959
:040241003f2219d768
:040242003f21cbfb92
:040243003f217e06d3
:040244003f212ff92e
:040245003f20e1d2a3
:040246003f2093932f
:040247003f20453bd4
:040248003f1ff6cb93
:040249003f1fa8416a
:04024a003f1f599f5a
:04024b003f1f0ae562
:04024c003f1ebc1283
:04024d003f1e6d26bd
:04024e003f1e1e220f
:04024f003f1dcf067a
:040250003f1d7fd1fe
:040251003f1d308499
:040252003f1ce11f4d
:040253003f1c91a219
:040254003f1c420cfd
:040255003f1bf25ffa
:040256003f1ba2990f
:040257003f1b52bb3c
:040258003f1b02c680
:040259003f1ab2b8de
:04025a003f1a629352
:04025b003f1a1255df
:04025c003f19c20084
:04025d003f19719440
:04025e003f19210f14
:04025f003f18d07301
:040260003f187fc004
:040261003f182ef51f
:040262003f17de1252
:040263003f178d189c
:040264003f173c07fd
:040265003f16eade78
:040266003f16999f07
:040267003f164847af
:040268003f15f6d96f
:040269003f15a55444
:04026a003f1553b732
:04026b003f15020435
:04026c003f14b03952
:04026d003f145e5884
:04026e003f140c5fce
:04026f003f13ba502f
:040270003f13682aa6
:040271003f1315ee34
:040272003f12c39ada
:040273003f12713095
:040274003f121eb067
:040275003f11cc1950
:040276003f11796b50
:040277003f1126a766
:040278003f10d3cd93
:040279003f1080dcd6
:04027a003f102dd52f
:04027b003f0fdab89f
:04027c003f0f878425
:04027d003f0f343bc0
:04027e003f0ee0db74
:04027f003f0e8d653c
:040280003f0e39da1a
:040281003f0de6380f
:040282003f0d928119
:040283003f0d3eb33a
:040284003f0cead071
:040285003f0c96d7bd
:040286003f0c42c91e
:040287003f0beea596
:040288003f0b9a6b23
:040289003f0b461cc5
:04028a003f0af1b77f
:04028b003f0a9d3d4c
:04028c003f0a48ad30
:04028d003f09f40928
:04028e003f099f4e37
:04028f003f094a7f5a
:040290003f08f59b93
:040291003f08a0a1e1
:040292003f084b9244
:040293003f07f66fbc
:040294003f07a13649
:040295003f074be8ec
:040296003f06f686a3
:040297003f06a10e6f
:040298003f064b8250
:040299003f05f5e246
:04029a003f05a02c50
:04029b003f054a626f
:04029c003f04f484a3
:04029d003f049e91eb
:04029e003f04488948
:04029f003f03f26dba
:0402a0003f039c3d3f
:0402a1003f0345f8da
:0402a2003f02ef9f89
:0402a3003f0299324b
:0402a4003f0242b122
:0402a5003f01ec1c0d
:0402a6003f0195730c
:0402a7003f013eb520
:0402a8003f00e7e448
:0402a9003f0090ff83
:0402aa003f003a06d1
:0402ab003effc5f35a
:0402ac003eff17b248
:0402ad003efe694a5e
:0402ae003efdbabb9c
:0402af003efd0c0400
:0402b0003efc5d278c
:0402b1003efbae2240
:0402b2003efafef71b
:0402b3003efa4fa51b
:0402b4003ef9a02d42
:0402b5003ef8f08e91
:0402b6003ef840c806
:0402b7003ef790dca2
:0402b8003ef6e0cb63
:0402b9003ef630934a
:0402ba003ef5803558
:0402bb003ef4cfb18d
:0402bc003ef41f07e6
:0402bd003ef36e3866
:0402be003ef2bd430c
:0402bf003ef20c29d6
:0402c0003ef15aeac7
:0402c1003ef0a985dd
:0402c2003eeff7fb19
:0402c3003eef464c78
:0402c4003eee9479fd
:0402c5003eede280a8
:0402c6003eed306376
:0402c7003eec7e216a
:0402c8003eebcbbb83
:0402c9003eeb1930bf
:0402ca003eea668121
:0402cb003ee9b3aea7
:0402cc003ee900b750
:0402cd003ee84d9c1e
:0402ce003ee79a5d10
:0402cf003ee6e6fb26
:0402d0003ee633755e
:0402d1003ee57fcbbc
:0402d2003ee4cbfe3d
:0402d3003ee4180edf
:0402d4003ee363faa8
:0402d5003ee2afc492
:0402d6003ee1fb6aa0
:0402d7003ee146eed0
:0402d8003ee0924f23
:0402d9003edfdd8d9a
:0402da003edf28a932
:0402db003ede73a2ee
:0402dc003eddbe79cc
:0402dd003edd092ecb
:0402de003edc53c1ee
:0402df003edb9e3133
:0402e0003edae8809a
:0402e1003eda32ad22
:0402e2003ed97cb9cc
:0402e3003ed8c6a398
:0402e4003ed8106b85
:0402e5003ed75a1393
:0402e6003ed6a399c4
:0402e7003ed5ecfd17
:0402e8003ed5364188
:0402e9003ed47f641c
:0402ea003ed3c867d0
:0402eb003ed31148a5
:0402ec003ed25a099b
:0402ed003ed1a2aab2
:0402ee003ed0eb2ae9
:0402ef003ed0338a40
:0402f0003ecf7bcab8
:0402f1003ecec3ea50
:0402f2003ece0bea07
:0402f3003ecd53cadf
:0402f4003ecc9b8bd6
:0402f5003ecbe32ced
:0402f6003ecb2aae23
:0402f7003eca721079
:0402f8003ec9b953ef
:0402f9003ec9007783
:0402fa003ec8477c37
:0402fb003ec78e620a
:0402fc003ec6d529fc
:0402fd003ec61bd20c
:0402fe003ec5625c3b
:0402ff003ec4a8c889
:040300003ec3ef15f4
:040301003ec335447e
:040302003ec27b5527
:040303003ec1c148ee
:040304003ec1071ed1
:040305003ec04cd5d5
:040306003ebf926ff5
:040307003ebed7eb34
:040308003ebe1d4a8e
:040309003ebd628b08
:04030a003ebca7af9f
:04030b003ebbecb653
:04030c003ebb31a023
:04030d003eba766e10
:04030e003eb9bb1e1b
:04030f003eb8ffb243
:040310003eb8442a85
:040311003eb78884e7
:040312003eb6ccc364
:040313003eb610e6fc
:040314003eb554ecb2
:040315003eb498d684
:040316003eb3dca571
:040317003eb3205879
:040318003eb263ef9f
:040319003eb1a76bdf
:04031a003eb0eacb3c
:04031b003eb02e10b2
:04031c003eaf713a45
:04031d003eaeb449f3
:04031e003eadf73cbd
:04031f003ead3a15a0
:040320003eac7cd49f
:040321003eabbf77b9
:040322003eab0201eb
:040323003eaa446f3b
:040324003ea986c4a4
:040325003ea8c8fe28
:040326003ea80b1fc3
:040327003ea74d257b
:040328003ea68f124c
:040329003ea5d0e538
:04032a003ea5129f3b
:04032b003ea4543f59
:04032c003ea395c592
:04032d003ea2d733e2
:04032e003ea218874c
:04032f003ea159c2d0
:040330003ea09ae56c
:040331003e9fdbee22
:040332003e9f1cdfef
:040333003e9e5db8d5
:040334003e9d9e78d4
:040335003e9cdf20eb
:040336003e9c1faf1b
:040337003e9b602762
:040338003e9aa086c3
:040339003e99e0ce3b
:04033a003e9920feca
:04033b003e98611671
:04033c003e97a11730
:04033d003e96e10007
:04033e003e9620d2f5
:04033f003e95608dfa
:040340003e94a03116
:040341003e93dfbf49
:040342003e931f3592
:040343003e925e94f4
:040344003e919ddd6c
:040345003e90dd10f9
:040346003e901c2c9d
:040347003e8f5b3258
:040348003e8e9a2229
:040349003e8dd8fc11
:04034a003e8d17c00d
:04034b003e8c566e20
:04034c003e8b950748
:04034d003e8ad38a87
:04034e003e8a11f7db
:04034f003e89505043
:040350003e888e93c2
:040351003e87ccc156
:040352003e870adafe
:040353003e8648dfbb
:040354003e8586ce8e
:040355003e84c4aa74
:040356003e8402706f
:040357003e8340227f
:040358003e827dc0a4
:040359003e81bb4adc
:04035a003e80f8c029
:04035b003e80362288
:04035c003e7ee6e11a
:04035d003e7d61562a
:04035e003e7bdba463
:04035f003e7a55cbc2
:040360003e78cfcc48
:040361003e7749a6f4
:040362003e75c35ac7
:040363003e743ce8c0
:040364003e72b651de
:040365003e712f9422
:040366003e6fa8b28c
:040367003e6e21ab1a
:040368003e6c9a7fce
:040369003e6b132fa5
:04036a003e698bbaa3
:04036b003e680422c2
:04036c003e667c6607
:04036d003e64f48670
:04036e003e636c83fb
:04036f003e61e45cab
:040370003e605c137c
:040371003e5ed3a871
:040372003e5d4b1a87
:040373003e5bc26ac1
:040374003e5a39971d
:040375003e58b0a49a
:040376003e57278f38
:040377003e559e58f9
:040378003e541501d9
:040379003e528b89dc
:04037a003e5101f1fe
:04037b003e4f783841
:04037c003e4dee60a4
:04037d003e4c646727
:04037e003e4ada4fca
:04037f003e4950188b
:040380003e47c5c26d
:040381003e463b4d6c
:040382003e44b0b98c
:040383003e432607c8
:040384003e419b3724
:040385003e4010499d
:040386003e3e853e34
:040387003e3cfa15e9
:040388003e3b6ecfbb
:040389003e39e36caa
:04038a003e3857ecb6
:04038b003e36cc50de
:04038c003e35409822
:04038d003e33b4c483
:04038e003e3228d4ff
:04038f003e309cc997
:040390003e2f10a24a
:040391003e2d846118
:040392003e2bf80402
:040393003e2a6b8d06
:040394003e28defc25
:040395003e2752515c
:040396003e25c58caf
:040397003e2438ad1b
:040398003e22abb6a0
:040399003e211ea53e
:04039a003e1f917bf6
:04039b003e1e0438c6
:04039c003e1c76deaf
:04039d003e1ae96bb0
:04039e003e195be0c9
:04039f003e17ce3dfa
:0403a0003e16408342
:0403a1003e14b2b2a2
:0403a2003e1324ca18
:0403a3003e1196cca5
:0403a4003e1008b748
:0403a5003e0e7a8b03
:0403a6003e0cec4ad3
:0403a7003e0b5df3b9
:0403a8003e09cf86b5
:0403a9003e084105c4
:0403aa003e06b26eeb
:0403ab003e0523c226
:0403ac003e03950275
:0403ad003e02062ed8
:0403ae003e00774551
:0403af003dfdd092ae
:0403b0003dfab273ed
:0403b1003df7942c54
:0403b2003df475c0e1
:0403b3003df1572e93
:0403b4003dee38766c
:0403b5003deb199a69
:0403b6003de7fa9a8b
:0403b7003de4db76d0
:0403b8003de1bc2e39
:0403b9003dde9cc4c5
:0403ba003ddb7d3773
:0403bb003dd85d8943
:0403bc003dd53db935
:0403bd003dd21dc848
:0403be003dcefdb77c
:0403bf003dcbdd86cf
:0403c0003dc8bd3641
:0403c1003dc59cc6d4
:0403c2003dc27c3983
:0403c3003dbf5b8d52
:0403c4003dbc3ac33f
:0403c5003db919dd48
:0403c6003db5f8da6f
:0403c7003db2d7bbb1
:0403c8003dafb6800f
:0403c9003dac952b87
:0403ca003da973ba1c
:0403cb003da65230c9
:0403cc003da3308c91
:0403cd003da00ecf72
:0403ce003d9cecf96d
:0403cf003d99cb0a7f
:0403d0003d96a905a8
:0403d1003d9386e7eb
:0403d2003d9064b442
:0403d3003d8d426ab0
:0403d4003d8a200a34
:0403d5003d86fd94d0
:0403d6003d83db0a7e
:0403d7003d80b86c41
:0403d8003d7b2b74ca
:0403d9003d74e5e9a1
:0403da003d6ea0389c
:0403db003d685a62bd
:0403dc003d62146901
:0403dd003d5bce4c6a
:0403de003d55880ef3
:0403df003d4f41af9e
:0403e0003d48fb3069
:0403e1003d42b49154
:0403e2003d3c6dd55c
:0403e3003d3626fc81
:0403e4003d2fe007c2
:0403e5003d2998f620
:0403e6003d2351cb97
:0403e7003d1d0a8826
:0403e8003d16c32ccf
:0403e9003d107bb890
:0403ea003d0a342f65
:0403eb003d03ec9052
:0403ec003cfb49bad3
:0403ed003ceeba2cfc
:0403ee003ce22a7a49
:0403ef003cd59aa6b9
:0403f0003cc90ab04a
:0403f1003cbc7a9bfb
:0403f2003cafea69c9
:0403f3003ca35a1cb1
:0403f4003c96c9b6b4
:0403f5003c8a3938cd
:0403f6003c7b514bb0
:0403f7003c622fff36
:0403f8003c490e90de
:0403f9003c2fed02a6
:0403fa003c16cb588a
:0403fb003bfb533045
:0403fc003bc90f8862
:0403fd003b96cbc19f
:0403fe003b490fc6a2
:0403ff003ac90fd513
:04040000248d3132e4
:04040100bac90fd590
:04040200bb490fc61d
:04040300bb96cbc118
:04040400bbc90f88d9
:04040500bbfb5330ba
:04040600bc16cb58fd
:04040700bc2fed0217
:04040800bc490e904d
:04040900bc622fffa3
:04040a00bc7b514b1b
:04040b00bc8a393836
:04040c00bc96c9b61b
:04040d00bca35a1c16
:04040e00bcafea692c
:04040f00bcbc7a9b5c
:04041000bcc90ab0a9
:04041100bcd59aa616
:04041200bce22a7aa4
:04041300bceeba2c55
:04041400bcfb49ba2a
:04041500bd03ec90a7
:04041600bd0a342fb8
:04041700bd107bb8e1
:04041800bd16c32c1e
:04041900bd1d0a8873
:04041a00bd2351cbe2
:04041b00bd2998f669
:04041c00bd2fe00709
:04041d00bd3626fcc6
:04041e00bd3c6dd59f
:04041f00bd42b49195
:04042000bd48fb30a8
:04042100bd4f41afdb
:04042200bd55880e2e
:04042300bd5bce4ca3
:04042400bd62146938
:04042500bd685a62f2
:04042600bd6ea038cf
:04042700bd74e5e9d2
:04042800bd7b2b74f9
:04042900bd80b86c6e
:04042a00bd83db0aa9
:04042b00bd86fd94f9
:04042c00bd8a200a5b
:04042d00bd8d426ad5
:04042e00bd9064b465
:04042f00bd9386e70c
:04043000bd96a905c7
:04043100bd99cb0a9c
:04043200bd9cecf988
:04043300bda00ecf8b
:04043400bda3308ca8
:04043500bda65230de
:04043600bda973ba2f
:04043700bdac952b98
:04043800bdafb6801e
:04043900bdb2d7bbbe
:04043a00bdb5f8da7a
:04043b00bdb919dd51
:04043c00bdbc3ac346
:04043d00bdbf5b8d57
:04043e00bdc27c3986
:04043f00bdc59cc6d5
:04044000bdc8bd3640
:04044100bdcbdd86cc
:04044200bdcefdb777
:04044300bdd21dc841
:04044400bdd53db92c
:04044500bdd85d8938
:04044600bddb7d3766
:04044700bdde9cc4b6
:04044800bde1bc2e28
:04044900bde4db76bd
:04044a00bde7fa9a76
:04044b00bdeb199a52
:04044c00bdee387653
:04044d00bdf1572e78
:04044e00bdf475c0c4
:04044f00bdf7942c35
:04045000bdfab273cc
:04045100bdfdd0928b
:04045200be0077452c
:04045300be02062eb1
:04045400be0395024c
:04045500be0523c2fb
:04045600be06b26ebe
:04045700be08410595
:04045800be09cf8684
:04045900be0b5df386
:04045a00be0cec4a9e
:04045b00be0e7a8bcc
:04045c00be1008b70f
:04045d00be1196cc6a
:04045e00be1324cadb
:04045f00be14b2b263
:04046000be16408301
:04046100be17ce3db7
:04046200be195be084
:04046300be1ae96b69
:04046400be1c76de66
:04046500be1e04387b
:04046600be1f917ba9
:04046700be211ea5ef
:04046800be22abb64f
:04046900be2438adc8
:04046a00be25c58c5a
:04046b00be27525105
:04046c00be28defccc
:04046d00be2a6b8dab
:04046e00be2bf804a5
:04046f00be2d8461b9
:04047000be2f10a2e9
:04047100be309cc934
:04047200be3228d49a
:04047300be33b4c41c
:04047400be354098b9
:04047500be36cc5073
:04047600be3857ec49
:04047700be39e36c3b
:04047800be3b6ecf4a
:04047900be3cfa1576
:04047a00be3e853ebf
:04047b00be40104926
:04047c00be419b37ab
:04047d00be4326074d
:04047e00be44b0b90f
:04047f00be463b4ded
:04048000be47c5c2ec
:04048100be49501808
:04048200be4ada4f45
:04048300be4c6467a0
:04048400be4dee601b
:04048500be4f7838b6
:04048600be5101f171
:04048700be528b894d
:04048800be54150148
:04048900be559e5866
:04048a00be57278fa3
:04048b00be58b0a403
:04048c00be5a399784
:04048d00be5bc26a26
:04048e00be5d4b1aea
:04048f00be5ed3a8d2
:04049000be605c13db
:04049100be61e45c08
:04049200be636c8356
:04049300be64f486c9
:04049400be667c665e
:04049500be68042217
:04049600be698bbaf6
:04049700be6b132ff6
:04049800be6c9a7f1d
:04049900be6e21ab67
:04049a00be6fa8b2d7
:04049b00be712f946b
:04049c00be72b65125
:04049d00be743ce805
:04049e00be75c35a0a
:04049f00be7749a635
:0404a000be78cfcc87
:0404a100be7a55cbff
:0404a200be7bdba49e
:0404a300be7d615663
:0404a400be7ee6e151
:0404a500be803622bd
:0404a600be80f8c05c
:0404a700be81bb4a0d
:0404a800be827dc0d3
:0404a900be834022ac
:0404aa00be8402709a
:0404ab00be84c4aa9d
:0404ac00be8586ceb5
:0404ad00be8648dfe0
:0404ae00be870ada21
:0404af00be87ccc177
:0404b000be888e93e1
:0404b100be89505060
:0404b200be8a11f7f6
:0404b300be8ad38aa0
:0404b400be8b95075f
:0404b500be8c566e35
:0404b600be8d17c020
:0404b700be8dd8fc22
:0404b800be8e9a2238
:0404b900be8f5b3265
:0404ba00be901c2ca8
:0404bb00be90dd1002
:0404bc00be919ddd73
:0404bd00be925e94f9
:0404be00be931f3595
:0404bf00be93dfbf4a
:0404c000be94a03115
:0404c100be95608df7
:0404c200be9620d2f0
:0404c300be96e10000
:0404c400be97a11727
:0404c500be98611666
:0404c600be9920febd
:0404c700be99e0ce2c
:0404c800be9aa086b2
:0404c900be9b60274f
:0404ca00be9c1faf06
:0404cb00be9cdf20d4
:0404cc00be9d9e78bb
:0404cd00be9e5db8ba
:0404ce00be9f1cdfd2
:0404cf00be9fdbee03
:0404d000bea09ae54b
:0404d100bea159c2ad
:0404d200bea2188727
:0404d300bea2d733bb
:0404d400bea395c569
:0404d500bea4543f2e
:0404d600bea5129f0e
:0404d700bea5d0e509
:0404d800bea68f121b
:0404d900bea74d2548
:0404da00bea80b1f8e
:0404db00bea8c8fef1
:0404dc00bea986c46b
:0404dd00beaa446f00
:0404de00beab0201ae
:0404df00beabbf777a
:0404e000beac7cd45e
:0404e100bead3a155d
:0404e200beadf73c78
:0404e300beaeb449ac
:0404e400beaf713afc
:0404e500beb02e1067
:0404e600beb0eacbef
:0404e700beb1a76b90
:0404e800beb263ef4e
:0404e900beb3205826
:0404ea00beb3dca51c
:0404eb00beb498d62d
:0404ec00beb554ec59
:0404ed00beb610e6a1
:0404ee00beb6ccc307
:0404ef00beb7888488
:0404f000beb8442a24
:0404f100beb8ffb2e0
:0404f200beb9bb1eb6
:0404f300beba766ea9
:0404f400bebb31a0ba
:0404f500bebbecb6e8
:0404f600bebca7af32
:0404f700bebd628b99
:0404f800bebe1d4a1d
:0404f900bebed7ebc1
:0404fa00bebf926f80
:0404fb00bec04cd55e
:0404fc00bec1071e58
:0404fd00bec1c14873
:0404fe00bec27b55aa
:0404ff00bec33544ff
:04050000bec3ef1572
:04050100bec4a8c804
:04050200bec5625cb4
:04050300bec61bd283
:04050400bec6d52971
:04050500bec78e627d
:04050600bec8477ca8
:04050700bec90077f2
:04050800bec9b9535c
:04050900beca7210e4
:04050a00becb2aae8c
:04050b00becbe32c54
:04050c00becc9b8b3b
:04050d00becd53ca42
:04050e00bece0bea68
:04050f00becec3eaaf
:04051000becf7bca15
:04051100bed0338a9b
:04051200bed0eb2a42
:04051300bed1a2aa09
:04051400bed25a09f0
:04051500bed31148f8
:04051600bed3c86721
:04051700bed47f646b
:04051800bed53641d5
:04051900bed5ecfd62
:04051a00bed6a3990d
:04051b00bed75a13da
:04051c00bed8106bca
:04051d00bed8c6a3db
:04051e00bed97cb90d
:04051f00beda32ad61
:04052000bedae880d7
:04052100bedb9e316e
:04052200bedc53c127
:04052300bedd092e02
:04052400beddbe7901
:04052500bede73a221
:04052600bedf28a963
:04052700bedfdd8dc9
:04052800bee0924f50
:04052900bee146eefb
:04052a00bee1fb6ac9
:04052b00bee2afc4b9
:04052c00bee363facd
:04052d00bee4180e02
:04052e00bee4cbfe5e
:04052f00bee57fcbdb
:04053000bee633757b
:04053100bee6e6fb41
:04053200bee79a5d29
:04053300bee84d9c35
:04053400bee900b765
:04053500bee9b3aeba
:04053600beea668132
:04053700beeb1930ce
:04053800beebcbbb90
:04053900beec7e2175
:04053a00beed30637f
:04053b00beede280af
:04053c00beee947902
:04053d00beef464c7b
:04053e00beeff7fb1a
:04053f00bef0a985dc
:04054000bef15aeac4
:04054100bef20c29d1
:04054200bef2bd4305
:04054300bef36e385d
:04054400bef41f07db
:04054500bef4cfb180
:04054600bef5803549
:04054700bef6309339
:04054800bef6e0cb50
:04054900bef790dc8d
:04054a00bef840c8ef
:04054b00bef8f08e78
:04054c00bef9a02d27
:04054d00befa4fa5fe
:04054e00befafef7fc
:04054f00befbae221f
:04055000befc5d2769
:04055100befd0c04db
:04055200befdbabb75
:04055300befe694a35
:04055400beff17b21d
:04055500beffc5f32d
:04055600bf003a06a2
:04055700bf0090ff52
:04055800bf00e7e415
:04055900bf013eb5eb
:04055a00bf019573d5
:04055b00bf01ec1cd4
:04055c00bf0242b1e7
:04055d00bf0299320e
:04055e00bf02ef9f4a
:04055f00bf0345f899
:04056000bf039c3dfc
:04056100bf03f26d75
:04056200bf04488901
:04056300bf049e91a2
:04056400bf04f48458
:04056500bf054a6222
:04056600bf05a02c01
:04056700bf05f5e2f5
:04056800bf064b82fd
:04056900bf06a10e1a
:04056a00bf06f6864c
:04056b00bf074be893
:04056c00bf07a136ee
:04056d00bf07f66f5f
:04056e00bf084b92e5
:04056f00bf08a0a180
:04057000bf08f59b30
:04057100bf094a7ff5
:04057200bf099f4ed0
:04057300bf09f409bf
:04057400bf0a48adc5
:04057500bf0a9d3ddf
:04057600bf0af1b710
:04057700bf0b461c54
:04057800bf0b9a6bb0
:04057900bf0beea521
:04057a00bf0c42c9a7
:04057b00bf0c96d744
:04057c00bf0cead0f6
:04057d00bf0d3eb3bd
:04057e00bf0d92819a
:04057f00bf0de6388e
:04058000bf0e39da97
:04058100bf0e8d65b7
:04058200bf0ee0dbed
:04058300bf0f343b37
:04058400bf0f87849a
:04058500bf0fdab812
:04058600bf102dd5a0
:04058700bf1080dc45
:04058800bf10d3cd00
:04058900bf1126a7d1
:04058a00bf11796bb9
:04058b00bf11cc19b7
:04058c00bf121eb0cc
:04058d00bf127130f8
:04058e00bf12c39a3b
:04058f00bf1315ee93
:04059000bf13682a03
:04059100bf13ba508a
:04059200bf140c5f27
:04059300bf145e58db
:04059400bf14b039a7
:04059500bf15020488
:04059600bf1553b783
:04059700bf15a55493
:04059800bf15f6d9bc
:04059900bf164847fa
:04059a00bf16999f50
:04059b00bf16eadebf
:04059c00bf173c0742
:04059d00bf178d18df
:04059e00bf17de1293
:04059f00bf182ef55e
:0405a000bf187fc041
:0405a100bf18d0733c
:0405a200bf19210f4d
:0405a300bf19719477
:0405a400bf19c200b9
:0405a500bf1a125512
:0405a600bf1a629383
:0405a700bf1ab2b80d
:0405a800bf1b02c6ad
:0405a900bf1b52bb67
:0405aa00bf1ba29938
:0405ab00bf1bf25f21
:0405ac00bf1c420c22
:0405ad00bf1c91a23c
:0405ae00bf1ce11f6e
:0405af00bf1d3084b8
:0405b000bf1d7fd11b
:0405b100bf1dcf0695
:0405b200bf1e1e2228
:0405b300bf1e6d26d4
:0405b400bf1ebc1298
:0405b500bf1f0ae575
:0405b600bf1f599f6b
:0405b700bf1fa84179
:0405b800bf1ff6cba0
:0405b900bf20453bdf
:0405ba00bf20939338
:0405bb00bf20e1d2aa
:0405bc00bf212ff933
:0405bd00bf217e06d6
:0405be00bf21cbfb93
:0405bf00bf2219d767
:0405c000bf22679956
:0405c100bf22b5435d
:0405c200bf2302d37e
:0405c300bf23504bb7
:0405c400bf239da90b
:0405c500bf23eaee78
:0405c600bf24381afc
:0405c700bf24852c9c
:0405c800bf24d22555
:0405c900bf251f0427
:0405ca00bf256bcb13
:0405cb00bf25b87719
:0405cc00bf26050a37
:0405cd00bf26518470
:0405ce00bf269de3c4
:0405cf00bf26ea2a2f
:0405d000bf273656b5
:0405d100bf27826856
:0405d200bf27ce6110
:0405d300bf281a40e3
:0405d400bf286605d1
:0405d500bf28b1b0da
:0405d600bf28fd41fc
:0405d700bf2948b838
:0405d800bf2994158e
:0405d900bf29df5700
:0405da00bf2a2a808a
:0405db00bf2a758e30
:0405dc00bf2ac082f0
:0405dd00bf2b0b5bca
:0405de00bf2b561bbe
:0405df00bf2ba0bfcf
:0405e000bf2beb4af8
:0405e100bf2c35b93d
:0405e200bf2c800f9b
:0405e300bf2cca4916
:0405e400bf2d1469aa
:0405e500bf2d5e6f59
:0405e600bf2da85924
:0405e700bf2df22909
:0405e800bf2e3bde09
:0405e900bf2e857824
:0405ea00bf2ecef75b
:0405eb00bf2f185bab
:0405ec00bf2f61a517
:0405ed00bf2faad39f
:0405ee00bf2ff3e642
:0405ef00bf303cdeff
:0405f000bf3085bbd8
:0405f100bf30ce7ccd
:0405f200bf311722dc
:0405f300bf315fad08
:0405f400bf31a81d4e
:0405f500bf31f071b1
:0405f600bf3238aa2e
:0405f700bf3280c7c8
:0405f800bf32c8c97d
:0405f900bf3310af4d
:0405fa00bf33587a39
:0405fb00bf33a02941
:0405fc00bf33e7bc66
:0405fd00bf342f34a4
:0405fe00bf34768f01
:0405ff00bf34bdcf79
:04060000bf3504f30b
:04060100bf354bfbbb
:04060200bf3592e787
:04060300bf35d9b86e
:04060400bf36206c71
:04060500bf36670491
:04060600bf36ad7fcf
:04060700bf36f3df28
:04060800bf373a239b
:04060900bf37804a2d
:04060a00bf37c655db
:04060b00bf380c43a5
:04060c00bf3852168b
:04060d00bf3897cb90
:04060e00bf38dd65af
:04060f00bf3922e1ec
:04061000bf39684244
:04061100bf39ad85bb
:04061200bf39f2ac4e
:04061300bf3a37b7fc
:04061400bf3a7ca4c9
:04061500bf3ac175b2
:04061600bf3b0629b7
:04061700bf3b4ac1da
:04061800bf3b8f3b1a
:04061900bf3bd39878
:04061a00bf3c17d9f1
:04061b00bf3c5bfc89
:04061c00bf3ca0033c
:04061d00bf3ce3ec0f
:04061e00bf3d27b8fd
:04061f00bf3d6b6709
:04062000bf3daef933
:04062100bf3df26e79
:04062200bf3e35c5dd
:04062300bf3e78ff5f
:04062400bf3ebc1bfe
:04062500bf3eff1bba
:04062600bf3f41fc95
:04062700bf3f84c08d
:04062800bf3fc767a2
:04062900bf4009f0d5
:04062a00bf404c5c25
:04062b00bf408ea995
:04062c00bf40d0da21
:04062d00bf4112eccb
:04062e00bf4154e193
:04062f00bf4196b77a
:04063000bf41d8707e
:04063100bf421a0b9f
:04063200bf425b89df
:04063300bf429ce83e
:04063400bf42de29ba
:04063500bf431f4c54
:04063600bf4360510d
:04063700bf43a138e4
:04063800bf43e200da
:04063900bf4422abed
:04063a00bf4463371f
:04063b00bf44a3a570
:04063c00bf44e3f5df
:04063d00bf4524266b
:04063e00bf45643917
:04063f00bf45a42de2
:04064000bf45e403cb
:04064100bf4623bbd2
:04064200bf466354f8
:04064300bf46a2ce3e
:04064400bf46e22aa1
:04064500bf47216723
:04064600bf476085c5
:04064700bf479f8486
:04064800bf47de6565
:04064900bf481d2762
:04064a00bf485bca80
:04064b00bf489a4ebc
:04064c00bf48d8b318
:04064d00bf4916fa91
:04064e00bf4955212a
:04064f00bf499329e3
:04065000bf49d112bb
:04065100bf4a0edcb2
:04065200bf4a4c87c8
:04065300bf4a8a13fd
:04065400bf4ac77f53
:04065500bf4b04ccc7
:04065600bf4b41fa5b
:04065700bf4b7f090d
:04065800bf4bbbf8e1
:04065900bf4bf8c7d4
:04065a00bf4c3578e4
:04065b00bf4c720816
:04065c00bf4cae7968
:04065d00bf4ceacbd9
:04065e00bf4d26fd69
:04065f00bf4d631018
:04066000bf4d9f02e9
:04066100bf4ddad5da
:04066200bf4e1689e8
:04066300bf4e521c18
:04066400bf4e8d9068
:04066500bf4ec8e4d8
:04066600bf4f041767
:04066700bf4f3f2b17
:04066800bf4f7a1fe7
:04066900bf4fb4f4d7
:04066a00bf4fefa8e7
:04066b00bf502a3b17
:04066c00bf5064af68
:04066d00bf509f03d8
:04066e00bf50d93769
:04066f00bf51134a1a
:04067000bf514d3dec
:04067100bf518710de
:04067200bf51c0c2f2
:04067300bf51fa5425
:04067400bf5233c678
:04067500bf526d18eb
:04067600bf52a64980
:04067700bf52df5936
:04067800bf5318490b
:04067900bf53511802
:04067a00bf5389c71a
:04067b00bf53c25552
:04067c00bf53fac3ab
:04067d00bf54330f24
:04067e00bf546b3bbf
:04067f00bf54a3477a
:04068000bf54db3157
:04068100bf5512fb54
:04068200bf554aa472
:04068300bf55822cb1
:04068400bf55b99312
:04068500bf55f0d994
:04068600bf5627fe36
:04068700bf565f02f9
:04068800bf5695e5df
:04068900bf56cca7e5
:04068a00bf5703480b
:04068b00bf5739c755
:04068c00bf577026be
:04068d00bf57a6634a
:04068e00bf57dc7ff7
:04068f00bf581279c5
:04069000bf584853b4
:04069100bf587e0bc5
:04069200bf58b3a1f9
:04069300bf58e9164d
:04069400bf591e6ac2
:04069500bf59539c5a
:04069600bf5988ad13
:04069700bf59bd9cee
:04069800bf59f26aea
:04069900bf5a271607
:04069a00bf5a5ba048
:04069b00bf5a9009a9
:04069c00bf5ac4502d
:04069d00bf5af875d3
:04069e00bf5b2c7999
:04069f00bf5b605a83
:0406a000bf5b941a8e
:0406a100bf5bc7b8bc
:0406a200bf5bfb340b
:0406a300bf5c2e8e7c
:0406a400bf5c61c70f
:0406a500bf5c94ddc5
:0406a600bf5cc7d19d
:0406a700bf5cfaa397
:0406a800bf5d2d53b2
:0406a900bf5d5fe1f1
:0406aa00bf5d924d51
:0406ab00bf5dc497d4
:0406ac00bf5df6be7a
:0406ad00bf5e28c341
:0406ae00bf5e5aa62b
:0406af00bf5e8c6737
:0406b000bf5ebe0566
:0406b100bf5eef81b8
:0406b200bf5f20db2b
:0406b300bf5f5212c1
:0406b400bf5f83277a
:0406b500bf5fb41956
:0406b600bf5fe4e955
:0406b700bf60159675
:0406b800bf604621b8
:0406b900bf6076891f
:0406ba00bf60a6cfa8
:0406bb00bf60d6f254
:0406bc00bf6106f222
:0406bd00bf6136d013
:0406be00bf61668a28
:0406bf00bf6196225f
:0406c000bf61c598b9
:0406c100bf61f4ea37
:0406c200bf62241ad5
:0406c300bf62532699
:0406c400bf6282107f
:0406c500bf62b0d789
:0406c600bf62df7bb5
:0406c700bf630dfc04
:0406c800bf633c5a76
:0406c900bf636a950c
:0406ca00bf6398acc6
:0406cb00bf63c6a1a2
:0406cc00bf63f473a1
:0406cd00bf642221c3
:0406ce00bf644fac0a
:0406cf00bf647d1473
:0406d000bf64aa5900
:0406d100bf64d77bb0
:0406d200bf65047983
:0406d300bf6531547a
:0406d400bf655e0b95
:0406d500bf658aa0d3
:0406d600bf65b71035
:0406d700bf65e35eba
:0406d800bf660f8862
:0406d900bf663b8e2f
:0406da00bf6667711f
:0406db00bf66933033
:0406dc00bf66becc6b
:0406dd00bf66ea45c5
:0406de00bf67159944
:0406df00bf6740cae7
:0406e000bf676bd8ad
:0406e100bf6796c198
:0406e200bf67c187a6
:0406e300bf67ec29d8
:0406e400bf6816a82d
:0406e500bf684103a6
:0406e600bf686b3945
:0406e700bf68954c07
:0406e800bf68bf3cec
:0406e900bf68e907f6
:0406ea00bf6912ae24
:0406eb00bf693c3275
:0406ec00bf696591ec
:0406ed00bf698ecc87
:0406ee00bf69b7e445
:0406ef00bf69e0d728
:0406f000bf6a09a72d
:0406f100bf6a325258
:0406f200bf6a5ad9a8
:0406f300bf6a833c1b
:0406f400bf6aab7bb3
:0406f500bf6ad39570
:0406f600bf6afb8c50
:0406f700bf6b235e54
:0406f800bf6b4b0c7d
:0406f900bf6b7295cc
:0406fa00bf6b99fb3e
:0406fb00bf6bc13bd5
:0406fc00bf6be85890
:0406fd00bf6c0f506f
:0406fe00bf6c362473
:0406ff00bf6c5cd49c
:04070000bf6c835ee9
:04070100bf6ca9c55b
:04070200bf6cd007f1
:04070300bf6cf624ad
:04070400bf6d1c1d8c
:04070500bf6d41f291
:04070600bf6d67a1bb
:04070700bf6d8d2d08
:04070800bf6db2937c
:04070900bf6dd7d514
:04070a00bf6dfcf2d1
:04070b00bf6e21ebb1
:04070c00bf6e46beb8
:04070d00bf6e6b6de3
:04070e00bf6e8ff833
:04070f00bf6eb45da8
:04071000bf6ed89e42
:04071100bf6efcba01
:04071200bf6f20b0e5
:04071300bf6f4483ed
:04071400bf6f68301b
:04071500bf6f8bb86f
:04071600bf6faf1be7
:04071700bf6fd25a84
:04071800bf6ff57347
:04071900bf7018672e
:04071a00bf703b373a
:04071b00bf705de16d
:04071c00bf708066c4
:04071d00bf70a2c641
:04071e00bf70c501e2
:04071f00bf70e717a9
:04072000bf71090894
:04072100bf712ad4a6
:04072200bf714c7add
:04072300bf716dfb3a
:04072400bf718f57bb
:04072500bf71b08e62
:04072600bf71d19f2f
:04072700bf71f28c20
:04072800bf72135237
:04072900bf7233f474
:04072a00bf725470d6
:04072b00bf7274c75e
:04072c00bf7294f80c
:04072d00bf72b504de
:04072e00bf72d4ebd7
:04072f00bf72f4acf5
:04073000bf73144738
:04073100bf7333bea1
:04073200bf73530e30
:04073300bf737239e5
:04073400bf73913fbf
:04073500bf73b01fbf
:04073600bf73ced9e6
:04073700bf73ed6e31
:04073800bf740bdda2
:04073900bf742a2738
:04073a00bf74484bf5
:04073b00bf746649d8
:04073c00bf748422e0
:04073d00bf74a1d50f
:04073e00bf74bf6263
:04073f00bf74dcc9de
:04074000bf74fa0b7d
:04074100bf75172742
:04074200bf75341d2e
:04074300bf7550ed41
:04074400bf756d9779
:04074500bf758a1cd6
:04074600bf75a67b5a
:04074700bf75c2b305
:04074800bf75dec6d5
:04074900bf75fab3cb
:04074a00bf76167ae6
:04074b00bf76321b28
:04074c00bf764d9790
:04074d00bf7668ec1f
:04074e00bf76841bd3
:04074f00bf769f24ae
:04075000bf76ba07af
:04075100bf76d4c4d7
:04075200bf76ef5b24
:04075300bf7709cc97
:04075400bf77241730
:04075500bf773e3cf0
:04075600bf77583ad7
:04075700bf777213e3
:04075800bf778bc517
:04075900bf77a55170
:04075a00bf77beb7f0
:04075b00bf77d7f796
:04075c00bf77f11062
:04075d00bf780a0453
:04075e00bf7822d16d
:04075f00bf783b77ad
:04076000bf7853f813
:04076100bf786c529f
:04076200bf78848652
:04076300bf789c932c
:04076400bf78b47b2b
:04076500bf78cc3b52
:04076600bf78e3d69f
:04076700bf78fb4a12
:04076800bf791298ab
:04076900bf7929bf6c
:04076a00bf7940c053
:04076b00bf79579a61
:04076c00bf796e4e95
:04076d00bf7984dcf0
:04076e00bf799b4371
:04076f00bf79b1831a
:04077000bf79c79de9
:04077100bf79dd91de
:04077200bf79f35efa
:04077300bf7a09043c
:04077400bf7a1e84a6
:04077500bf7a33dd37
:04077600bf7a4910ed
:04077700bf7a5e1ccb
:04077800bf7a7302cf
:04077900bf7a87c1fb
:04077a00bf7a9c594d
:04077b00bf7ab0cbc6
:04077c00bf7ac51665
:04077d00bf7ad93a2c
:04077e00bf7aed371a
:04077f00bf7b010e2d
:04078000bf7b14be69
:04078100bf7b2848ca
:04078200bf7b3bab53
:04078300bf7b4ee703
:04078400bf7b61fcda
:04078500bf7b74ead8
:04078600bf7b87b2fc
:04078700bf7b9a5347
:04078800bf7baccdba
:04078900bf7bbf2053
:04078a00bf7bd14d13
:04078b00bf7be353fa
:04078c00bf7bf53109
:04078d00bf7c06e93e
:04078e00bf7c187a9a
:04078f00bf7c29e51d
:04079000bf7c3b28c7
:04079100bf7c4c4499
:04079200bf7c5d3a91
:04079300bf7c6e08b1
:04079400bf7c7eb0f8
:04079500bf7c8f3165
:04079600bf7c9f8afb
:04079700bf7cafbdb7
:04079800bf7cbfc99a
:04079900bf7ccfaea4
:04079a00bf7cdf6cd5
:04079b00bf7cef032d
:04079c00bf7cfe73ad
:04079d00bf7d0dbc53
:04079e00bf7d1cdd22
:04079f00bf7d2bd817
:0407a000bf7d3aac33
:0407a100bf7d495976
:0407a200bf7d57dee2
:0407a300bf7d663d73
:0407a400bf7d74742d
:0407a500bf7d82850d
:0407a600bf7d906e15
:0407a700bf7d9e3044
:0407a800bf7dabcc9a
:0407a900bf7db94017
:0407aa00bf7dc68cbd
:0407ab00bf7dd3b289
:0407ac00bf7de0b17c
:0407ad00bf7ded8897
:0407ae00bf7dfa38d9
:0407af00bf7e06c241
:0407b000bf7e1324d1
:0407b100bf7e1f5e8a
:0407b200bf7e2b7269
:0407b300bf7e375e70
:0407b400bf7e43239e
:0407b500bf7e4ec1f4
:0407b600bf7e5a3870
:0407b700bf7e658814
:0407b800bf7e70b0e0
:0407b900bf7e7bb1d3
:0407ba00bf7e868bed
:0407bb00bf7e913d2f
:0407bc00bf7e9bc998
:0407bd00bf7ea62d28
:0407be00bf7eb069e1
:0407bf00bf7eba7fc0
:0407c000bf7ec46dc7
:0407c100bf7ece34f5
:0407c200bf7ed7d44b
:0407c300bf7ee14cc8
:0407c400bf7eea9d6d
:0407c500bf7ef3c739
:0407c600bf7efcc92d
:0407c700bf7f05a447
:0407c800bf7f0e5889
:0407c900bf7f16e4f4
:0407ca00bf7f1f4985
:0407cb00bf7f27873e
:0407cc00bf7f2f9d1f
:0407cd00bf7f378c27
:0407ce00bf7f3f5456
:0407cf00bf7f46f4ae
:0407d000bf7f4e6d2c
:0407d100bf7f55bfd2
:0407d200bf7f5ce9a0
:0407d300bf7f63ec95
:0407d400bf7f6ac7b2
:0407d500bf7f717bf6
:0407d600bf7f780861
:0407d700bf7f7e6df5
:0407d800bf7f84abb0
:0407d900bf7f8ac292
:0407da00bf7f90b19c
:0407db00bf7f9678ce
:0407dc00bf7f9c1827
:0407dd00bf7fa191a8
:0407de00bf7fa6e350
:0407df00bf7fac0d1f
:0407e000bf7fb10f17
:0407e100bf7fb5ea37
:0407e200bf7fba9e7d
:0407e300bf7fbf2aeb
:0407e400bf7fc38f81
:0407e500bf7fc7cc3f
:0407e600bf7fcbe224
:0407e700bf7fcfd130
:0407e800bf7fd39765
:0407e900bf7fd737c0
:0407ea00bf7fdaaf44
:0407eb00bf7fde00ee
:0407ec00bf7fe129c1
:0407ed00bf7fe42bbb
:0407ee00bf7fe705dd
:0407ef00bf7fe9b827
:0407f000bf7fec4398
:0407f100bf7feea731
:0407f200bf7ff0e3f2
:0407f300bf7ff2f8da
:0407f400bf7ff4e6e9
:0407f500bf7ff6ac20
:0407f600bf7ff84a7f
:0407f700bf7ff9c106
:0407f800bf7ffb11b3
:0407f900bf7ffc3989
:0407fa00bf7ffd3987
:0407fb00bf7ffe13ab
:0407fc00bf7ffec4f9
:0407fd00bf7fff4e6d
:0407fe00bf7fffb109
:0407ff00bf7fffeccd
:04080000bf800000b5
:04080100bf7fffecca
:04080200bf7fffb104
:04080300bf7fff4e66
:04080400bf7ffec4f0
:04080500bf7ffe13a0
:04080600bf7ffd397a
:04080700bf7ffc397a
:04080800bf7ffb11a2
:04080900bf7ff9c1f3
:04080a00bf7ff84a6a
:04080b00bf7ff6ac09
:04080c00bf7ff4e6d0
:04080d00bf7ff2f8bf
:04080e00bf7ff0e3d5
:04080f00bf7feea712
:04081000bf7fec4377
:04081100bf7fe9b804
:04081200bf7fe705b8
:04081300bf7fe42b94
:04081400bf7fe12998
:04081500bf7fde00c3
:04081600bf7fdaaf17
:04081700bf7fd73791
:04081800bf7fd39734
:04081900bf7fcfd1fd
:04081a00bf7fcbe2ef
:04081b00bf7fc7cc08
:04081c00bf7fc38f48
:04081d00bf7fbf2ab0
:04081e00bf7fba9e40
:04081f00bf7fb5eaf8
:04082000bf7fb10fd6
:04082100bf7fac0ddc
:04082200bf7fa6e30b
:04082300bf7fa19161
:04082400bf7f9c18de
:04082500bf7f967883
:04082600bf7f90b14f
:04082700bf7f8ac243
:04082800bf7f84ab5f
:04082900bf7f7e6da2
:04082a00bf7f78080c
:04082b00bf7f717b9f
:04082c00bf7f6ac759
:04082d00bf7f63ec3a
:04082e00bf7f5ce943
:04082f00bf7f55bf73
:04083000bf7f4e6dcb
:04083100bf7f46f44b
:04083200bf7f3f54f1
:04083300bf7f378cc0
:04083400bf7f2f9db6
:04083500bf7f2787d3
:04083600bf7f1f4918
:04083700bf7f16e485
:04083800bf7f0e5818
:04083900bf7f05a4d4
:04083a00bf7efcc9b8
:04083b00bf7ef3c7c2
:04083c00bf7eea9df4
:04083d00bf7ee14c4d
:04083e00bf7ed7d4ce
:04083f00bf7ece3476
:04084000bf7ec46d46
:04084100bf7eba7f3d
:04084200bf7eb0695c
:04084300bf7ea62da1
:04084400bf7e9bc90f
:04084500bf7e913da4
:04084600bf7e868b60
:04084700bf7e7bb144
:04084800bf7e70b04f
:04084900bf7e658881
:04084a00bf7e5a38db
:04084b00bf7e4ec15d
:04084c00bf7e432305
:04084d00bf7e375ed5
:04084e00bf7e2b72cc
:04084f00bf7e1f5eeb
:04085000bf7e132430
:04085100bf7e06c29e
:04085200bf7dfa3834
:04085300bf7ded88f0
:04085400bf7de0b1d3
:04085500bf7dd3b2de
:04085600bf7dc68c10
:04085700bf7db94068
:04085800bf7dabcce9
:04085900bf7d9e3091
:04085a00bf7d906e60
:04085b00bf7d828556
:04085c00bf7d747474
:04085d00bf7d663db8
:04085e00bf7d57de25
:04085f00bf7d4959b7
:04086000bf7d3aac72
:04086100bf7d2bd854
:04086200bf7d1cdd5d
:04086300bf7d0dbc8c
:04086400bf7cfe73e4
:04086500bf7cef0362
:04086600bf7cdf6c08
:04086700bf7ccfaed5
:04086800bf7cbfc9c9
:04086900bf7cafbde4
:04086a00bf7c9f8a26
:04086b00bf7c8f318e
:04086c00bf7c7eb01f
:04086d00bf7c6e08d6
:04086e00bf7c5d3ab4
:04086f00bf7c4c44ba
:04087000bf7c3b28e6
:04087100bf7c29e53a
:04087200bf7c187ab5
:04087300bf7c06e957
:04087400bf7bf53120
:04087500bf7be3530f
:04087600bf7bd14d26
:04087700bf7bbf2064
:04087800bf7baccdc9
:04087900bf7b9a5354
:04087a00bf7b87b207
:04087b00bf7b74eae1
:04087c00bf7b61fce1
:04087d00bf7b4ee708
:04087e00bf7b3bab56
:04087f00bf7b2848cb
:04088000bf7b14be68
:04088100bf7b010e2a
:04088200bf7aed3715
:04088300bf7ad93a25
:04088400bf7ac5165c
:04088500bf7ab0cbbb
:04088600bf7a9c5940
:04088700bf7a87c1ec
:04088800bf7a7302be
:04088900bf7a5e1cb8
:04088a00bf7a4910d8
:04088b00bf7a33dd20
:04088c00bf7a1e848d
:04088d00bf7a090421
:04088e00bf79f35edd
:04088f00bf79dd91bf
:04089000bf79c79dc8
:04089100bf79b183f7
:04089200bf799b434c
:04089300bf7984dcc9
:04089400bf796e4e6c
:04089500bf79579a36
:04089600bf7940c026
:04089700bf7929bf3d
:04089800bf7912987a
:04089900bf78fb4adf
:04089a00bf78e3d66a
:04089b00bf78cc3b1b
:04089c00bf78b47bf2
:04089d00bf789c93f1
:04089e00bf78848615
:04089f00bf786c5260
:0408a000bf7853f8d2
:0408a100bf783b776a
:0408a200bf7822d128
:0408a300bf780a040c
:0408a400bf77f11019
:0408a500bf77d7f74b
:0408a600bf77beb7a3
:0408a700bf77a55121
:0408a800bf778bc5c6
:0408a900bf77721390
:0408aa00bf77583a82
:0408ab00bf773e3c99
:0408ac00bf772417d7
:0408ad00bf7709cc3c
:0408ae00bf76ef5bc7
:0408af00bf76d4c478
:0408b000bf76ba074e
:0408b100bf769f244b
:0408b200bf76841b6e
:0408b300bf7668ecb8
:0408b400bf764d9727
:0408b500bf76321bbd
:0408b600bf76167a79
:0408b700bf75fab35c
:0408b800bf75dec664
:0408b900bf75c2b392
:0408ba00bf75a67be5
:0408bb00bf758a1c5f
:0408bc00bf756d9700
:0408bd00bf7550edc6
:0408be00bf75341db1
:0408bf00bf751727c3
:0408c000bf74fa0bfc
:0408c100bf74dcc95b
:0408c200bf74bf62de
:0408c300bf74a1d588
:0408c400bf74842257
:0408c500bf7466494d
:0408c600bf74484b68
:0408c700bf742a27a9
:0408c800bf740bdd11
:0408c900bf73ed6e9e
:0408ca00bf73ced951
:0408cb00bf73b01f28
:0408cc00bf73913f26
:0408cd00bf7372394a
:0408ce00bf73530e93
:0408cf00bf7333be02
:0408d000bf73144797
:0408d100bf72f4ac52
:0408d200bf72d4eb32
:0408d300bf72b50437
:0408d400bf7294f863
:0408d500bf7274c7b3
:0408d600bf72547029
:0408d700bf7233f4c5
:0408d800bf72135286
:0408d900bf71f28c6d
:0408da00bf71d19f7a
:0408db00bf71b08eab
:0408dc00bf718f5702
:0408dd00bf716dfb7f
:0408de00bf714c7a20
:0408df00bf712ad4e7
:0408e000bf710908d3
:0408e100bf70e717e6
:0408e200bf70c5011d
:0408e300bf70a2c67a
:0408e400bf708066fb
:0408e500bf705de1a2
:0408e600bf703b376d
:0408e700bf7018675f
:0408e800bf6ff57376
:0408e900bf6fd25ab1
:0408ea00bf6faf1b12
:0408eb00bf6f8bb898
:0408ec00bf6f683042
:0408ed00bf6f448312
:0408ee00bf6f20b008
:0408ef00bf6efcba22
:0408f000bf6ed89e61
:0408f100bf6eb45dc5
:0408f200bf6e8ff84e
:0408f300bf6e6b6dfc
:0408f400bf6e46becf
:0408f500bf6e21ebc6
:0408f600bf6dfcf2e4
:0408f700bf6dd7d525
:0408f800bf6db2938b
:0408f900bf6d8d2d15
:0408fa00bf6d67a1c6
:0408fb00bf6d41f29a
:0408fc00bf6d1c1d93
:0408fd00bf6cf624b2
:0408fe00bf6cd007f4
:0408ff00bf6ca9c55c
:04090000bf6c835ee7
:04090100bf6c5cd497
:04090200bf6c36246c
:04090300bf6c0f5066
:04090400bf6be85885
:04090500bf6bc13bc8
:04090600bf6b99fb2f
:04090700bf6b7295bb
:04090800bf6b4b0c6a
:04090900bf6b235e3f
:04090a00bf6afb8c39
:04090b00bf6ad39557
:04090c00bf6aab7b98
:04090d00bf6a833cfe
:04090e00bf6a5ad989
:04090f00bf6a325237
:04091000bf6a09a70a
:04091100bf69e0d703
:04091200bf69b7e41e
:04091300bf698ecc5e
:04091400bf696591c1
:04091500bf693c3248
:04091600bf6912aef5
:04091700bf68e907c5
:04091800bf68bf3cb9
:04091900bf68954cd2
:04091a00bf686b390e
:04091b00bf6841036d
:04091c00bf6816a8f2
:04091d00bf67ec299b
:04091e00bf67c18767
:04091f00bf6796c157
:04092000bf676bd86a
:04092100bf6740caa2
:04092200bf671599fd
:04092300bf66ea457c
:04092400bf66becc20
:04092500bf669330e6
:04092600bf666771d0
:04092700bf663b8ede
:04092800bf660f880f
:04092900bf65e35e65
:04092a00bf65b710de
:04092b00bf658aa07a
:04092c00bf655e0b3a
:04092d00bf6531541d
:04092e00bf65047924
:04092f00bf64d77b4f
:04093000bf64aa599d
:04093100bf647d140e
:04093200bf644faca3
:04093300bf6422215a
:04093400bf63f47336
:04093500bf63c6a135
:04093600bf6398ac57
:04093700bf636a959b
:04093800bf633c5a03
:04093900bf630dfc8f
:04093a00bf62df7b3e
:04093b00bf62b0d710
:04093c00bf62821004
:04093d00bf6253261c
:04093e00bf62241a56
:04093f00bf61f4eab6
:04094000bf61c59836
:04094100bf619622da
:04094200bf61668aa1
:04094300bf6136d08a
:04094400bf6106f297
:04094500bf60d6f2c7
:04094600bf60a6cf19
:04094700bf6076898e
:04094800bf60462125
:04094900bf601596e0
:04094a00bf5fe4e9be
:04094b00bf5fb419bd
:04094c00bf5f8327df
:04094d00bf5f521224
:04094e00bf5f20db8c
:04094f00bf5eef8117
:04095000bf5ebe05c3
:04095100bf5e8c6792
:04095200bf5e5aa684
:04095300bf5e28c398
:04095400bf5df6becf
:04095500bf5dc49727
:04095600bf5d924da2
:04095700bf5d5fe140
:04095800bf5d2d53ff
:04095900bf5cfaa3e2
:04095a00bf5cc7d1e6
:04095b00bf5c94dd0c
:04095c00bf5c61c754
:04095d00bf5c2e8ebf
:04095e00bf5bfb344c
:04095f00bf5bc7b8fb
:04096000bf5b941acb
:04096100bf5b605abe
:04096200bf5b2c79d2
:04096300bf5af8750a
:04096400bf5ac45062
:04096500bf5a9009dc
:04096600bf5a5ba079
:04096700bf5a271636
:04096800bf59f26a17
:04096900bf59bd9c19
:04096a00bf5988ad3c
:04096b00bf59539c81
:04096c00bf591e6ae7
:04096d00bf58e91670
:04096e00bf58b3a11a
:04096f00bf587e0be4
:04097000bf584853d1
:04097100bf581279e0
:04097200bf57dc7f10
:04097300bf57a66361
:04097400bf577026d3
:04097500bf5739c768
:04097600bf5703481c
:04097700bf56cca7f4
:04097800bf5695e5ec
:04097900bf565f0204
:04097a00bf5627fe3f
:04097b00bf55f0d99b
:04097c00bf55b99317
:04097d00bf55822cb4
:04097e00bf554aa473
:04097f00bf5512fb53
:04098000bf54db3154
:04098100bf54a34775
:04098200bf546b3bb8
:04098300bf54330f1b
:04098400bf53fac3a0
:04098500bf53c25545
:04098600bf5389c70b
:04098700bf535118f1
:04098800bf531849f8
:04098900bf52df5921
:04098a00bf52a64969
:04098b00bf526d18d2
:04098c00bf5233c65d
:04098d00bf51fa5408
:04098e00bf51c0c2d3
:04098f00bf518710bd
:04099000bf514d3dc9
:04099100bf51134af5
:04099200bf50d93742
:04099300bf509f03af
:04099400bf5064af3d
:04099500bf502a3bea
:04099600bf4fefa8b8
:04099700bf4fb4f4a6
:04099800bf4f7a1fb4
:04099900bf4f3f2be2
:04099a00bf4f041730
:04099b00bf4ec8e49f
:04099c00bf4e8d902d
:04099d00bf4e521cdb
:04099e00bf4e1689a9
:04099f00bf4ddad599
:0409a000bf4d9f02a6
:0409a100bf4d6310d3
:0409a200bf4d26fd22
:0409a300bf4ceacb90
:0409a400bf4cae791d
:0409a500bf4c7208c9
:0409a600bf4c357895
:0409a700bf4bf8c783
:0409a800bf4bbbf88e
:0409a900bf4b7f09b8
:0409aa00bf4b41fa04
:0409ab00bf4b04cc6e
:0409ac00bf4ac77ff8
:0409ad00bf4a8a13a0
:0409ae00bf4a4c8769
:0409af00bf4a0edc51
:0409b000bf49d11258
:0409b100bf4993297e
:0409b200bf495521c3
:0409b300bf4916fa28
:0409b400bf48d8b3ad
:0409b500bf489a4e4f
:0409b600bf485bca11
:0409b700bf481d27f1
:0409b800bf47de65f2
:0409b900bf479f8411
:0409ba00bf4760854e
:0409bb00bf472167aa
:0409bc00bf46e22a26
:0409bd00bf46a2cec1
:0409be00bf46635479
:0409bf00bf4623bb51
:0409c000bf45e40348
:0409c100bf45a42d5d
:0409c200bf45643990
:0409c300bf452426e2
:0409c400bf44e3f554
:0409c500bf44a3a5e3
:0409c600bf44633790
:0409c700bf4422ab5c
:0409c800bf43e20047
:0409c900bf43a1384f
:0409ca00bf43605176
:0409cb00bf431f4cbb
:0409cc00bf42de291f
:0409cd00bf429ce8a1
:0409ce00bf425b8940
:0409cf00bf421a0bfe
:0409d000bf41d870db
:0409d100bf4196b7d5
:0409d200bf4154e1ec
:0409d300bf4112ec22
:0409d400bf40d0da76
:0409d500bf408ea9e8
:0409d600bf404c5c76
:0409d700bf4009f024
:0409d800bf3fc767ef
:0409d900bf3f84c0d8
:0409da00bf3f41fcde
:0409db00bf3eff1b01
:0409dc00bf3ebc1b43
:0409dd00bf3e78ffa2
:0409de00bf3e35c51e
:0409df00bf3df26eb8
:0409e000bf3daef970
:0409e100bf3d6b6744
:0409e200bf3d27b836
:0409e300bf3ce3ec46
:0409e400bf3ca00371
:0409e500bf3c5bfcbc
:0409e600bf3c17d922
:0409e700bf3bd398a7
:0409e800bf3b8f3b47
:0409e900bf3b4ac105
:0409ea00bf3b0629e0
:0409eb00bf3ac175d9
:0409ec00bf3a7ca4ee
:0409ed00bf3a37b71f
:0409ee00bf39f2ac6f
:0409ef00bf39ad85da
:0409f000bf39684261
:0409f100bf3922e107
:0409f200bf38dd65c8
:0409f300bf3897cba7
:0409f400bf385216a0
:0409f500bf380c43b8
:0409f600bf37c655ec
:0409f700bf37804a3c
:0409f800bf373a23a8
:0409f900bf36f3df33
:0409fa00bf36ad7fd8
:0409fb00bf36670498
:0409fc00bf36206c76
:0409fd00bf35d9b871
:0409fe00bf3592e788
:0409ff00bf354bfbba
:040a0000bf3504f307
:040a0100bf34bdcf72
:040a0200bf34768ff8
:040a0300bf342f3499
:040a0400bf33e7bc59
:040a0500bf33a02932
:040a0600bf33587a28
:040a0700bf3310af3a
:040a0800bf32c8c968
:040a0900bf3280c7b1
:040a0a00bf3238aa15
:040a0b00bf31f07196
:040a0c00bf31a81d31
:040a0d00bf315fade9
:040a0e00bf311722bb
:040a0f00bf30ce7caa
:040a1000bf3085bbb3
:040a1100bf303cded8
:040a1200bf2ff3e619
:040a1300bf2faad374
:040a1400bf2f61a5ea
:040a1500bf2f185b7c
:040a1600bf2ecef72a
:040a1700bf2e8578f1
:040a1800bf2e3bded4
:040a1900bf2df229d2
:040a1a00bf2da859eb
:040a1b00bf2d5e6f1e
:040a1c00bf2d14696d
:040a1d00bf2cca49d7
:040a1e00bf2c800f5a
:040a1f00bf2c35b9fa
:040a2000bf2beb4ab3
:040a2100bf2ba0bf88
:040a2200bf2b561b75
:040a2300bf2b0b5b7f
:040a2400bf2ac082a3
:040a2500bf2a758ee1
:040a2600bf2a2a8039
:040a2700bf29df57ad
:040a2800bf29941539
:040a2900bf2948b8e1
:040a2a00bf28fd41a3
:040a2b00bf28b1b07f
:040a2c00bf28660574
:040a2d00bf281a4084
:040a2e00bf27ce61af
:040a2f00bf278268f3
:040a3000bf27365650
:040a3100bf26ea2ac8
:040a3200bf269de35b
:040a3300bf26518405
:040a3400bf26050aca
:040a3500bf25b877aa
:040a3600bf256bcba2
:040a3700bf251f04b4
:040a3800bf24d225e0
:040a3900bf24852c25
:040a3a00bf24381a83
:040a3b00bf23eaeefd
:040a3c00bf239da98e
:040a3d00bf23504b38
:040a3e00bf2302d3fd
:040a3f00bf22b543da
:040a4000bf226799d1
:040a4100bf2219d7e0
:040a4200bf21cbfb0a
:040a4300bf217e064b
:040a4400bf212ff9a6
:040a4500bf20e1d21b
:040a4600bf209393a7
:040a4700bf20453b4c
:040a4800bf1ff6cb0b
:040a4900bf1fa841e2
:040a4a00bf1f599fd2
:040a4b00bf1f0ae5da
:040a4c00bf1ebc12fb
:040a4d00bf1e6d2635
:040a4e00bf1e1e2287
:040a4f00bf1dcf06f2
:040a5000bf1d7fd176
:040a5100bf1d308411
:040a5200bf1ce11fc5
:040a5300bf1c91a291
:040a5400bf1c420c75
:040a5500bf1bf25f72
:040a5600bf1ba29987
:040a5700bf1b52bbb4
:040a5800bf1b02c6f8
:040a5900bf1ab2b856
:040a5a00bf1a6293ca
:040a5b00bf1a125557
:040a5c00bf19c200fc
:040a5d00bf197194b8
:040a5e00bf19210f8c
:040a5f00bf18d07379
:040a6000bf187fc07c
:040a6100bf182ef597
:040a6200bf17de12ca
:040a6300bf178d1814
:040a6400bf173c0775
:040a6500bf16eadef0
:040a6600bf16999f7f
:040a6700bf16484727
:040a6800bf15f6d9e7
:040a6900bf15a554bc
:040a6a00bf1553b7aa
:040a6b00bf150204ad
:040a6c00bf14b039ca
:040a6d00bf145e58fc
:040a6e00bf140c5f46
:040a6f00bf13ba50a7
:040a7000bf13682a1e
:040a7100bf1315eeac
:040a7200bf12c39a52
:040a7300bf1271300d
:040a7400bf121eb0df
:040a7500bf11cc19c8
:040a7600bf11796bc8
:040a7700bf1126a7de
:040a7800bf10d3cd0b
:040a7900bf1080dc4e
:040a7a00bf102dd5a7
:040a7b00bf0fdab817
:040a7c00bf0f87849d
:040a7d00bf0f343b38
:040a7e00bf0ee0dbec
:040a7f00bf0e8d65b4
:040a8000bf0e39da92
:040a8100bf0de63887
:040a8200bf0d928191
:040a8300bf0d3eb3b2
:040a8400bf0cead0e9
:040a8500bf0c96d735
:040a8600bf0c42c996
:040a8700bf0beea50e
:040a8800bf0b9a6b9b
:040a8900bf0b461c3d
:040a8a00bf0af1b7f7
:040a8b00bf0a9d3dc4
:040a8c00bf0a48ada8
:040a8d00bf09f409a0
:040a8e00bf099f4eaf
:040a8f00bf094a7fd2
:040a9000bf08f59b0b
:040a9100bf08a0a159
:040a9200bf084b92bc
:040a9300bf07f66f34
:040a9400bf07a136c1
:040a9500bf074be864
:040a9600bf06f6861b
:040a9700bf06a10ee7
:040a9800bf064b82c8
:040a9900bf05f5e2be
:040a9a00bf05a02cc8
:040a9b00bf054a62e7
:040a9c00bf04f4841b
:040a9d00bf049e9163
:040a9e00bf044889c0
:040a9f00bf03f26d32
:040aa000bf039c3db7
:040aa100bf0345f852
:040aa200bf02ef9f01
:040aa300bf029932c3
:040aa400bf0242b19a
:040aa500bf01ec1c85
:040aa600bf01957384
:040aa700bf013eb598
:040aa800bf00e7e4c0
:040aa900bf0090fffb
:040aaa00bf003a0649
:040aab00beffc5f3d2
:040aac00beff17b2c0
:040aad00befe694ad6
:040aae00befdbabb14
:040aaf00befd0c0478
:040ab000befc5d2704
:040ab100befbae22b8
:040ab200befafef793
:040ab300befa4fa593
:040ab400bef9a02dba
:040ab500bef8f08e09
:040ab600bef840c87e
:040ab700bef790dc1a
:040ab800bef6e0cbdb
:040ab900bef63093c2
:040aba00bef58035d0
:040abb00bef4cfb105
:040abc00bef41f075e
:040abd00bef36e38de
:040abe00bef2bd4384
:040abf00bef20c294e
:040ac000bef15aea3f
:040ac100bef0a98555
:040ac200beeff7fb91
:040ac300beef464cf0
:040ac400beee947975
:040ac500beede28020
:040ac600beed3063ee
:040ac700beec7e21e2
:040ac800beebcbbbfb
:040ac900beeb193037
:040aca00beea668199
:040acb00bee9b3ae1f
:040acc00bee900b7c8
:040acd00bee84d9c96
:040ace00bee79a5d88
:040acf00bee6e6fb9e
:040ad000bee63375d6
:040ad100bee57fcb34
:040ad200bee4cbfeb5
:040ad300bee4180e57
:040ad400bee363fa20
:040ad500bee2afc40a
:040ad600bee1fb6a18
:040ad700bee146ee48
:040ad800bee0924f9b
:040ad900bedfdd8d12
:040ada00bedf28a9aa
:040adb00bede73a266
:040adc00beddbe7944
:040add00bedd092e43
:040ade00bedc53c166
:040adf00bedb9e31ab
:040ae000bedae88012
:040ae100beda32ad9a
:040ae200bed97cb944
:040ae300bed8c6a310
:040ae400bed8106bfd
:040ae500bed75a130b
:040ae600bed6a3993c
:040ae700bed5ecfd8f
:040ae800bed5364100
:040ae900bed47f6494
:040aea00bed3c86748
:040aeb00bed311481d
:040aec00bed25a0913
:040aed00bed1a2aa2a
:040aee00bed0eb2a61
:040aef00bed0338ab8
:040af000becf7bca30
:040af100becec3eac8
:040af200bece0bea7f
:040af300becd53ca57
:040af400becc9b8b4e
:040af500becbe32c65
:040af600becb2aae9b
:040af700beca7210f1
:040af800bec9b95367
:040af900bec90077fb
:040afa00bec8477caf
:040afb00bec78e6282
:040afc00bec6d52974
:040afd00bec61bd284
:040afe00bec5625cb3
:040aff00bec4a8c801
:040b0000bec3ef156c
:040b0100bec33544f6
:040b0200bec27b559f
:040b0300bec1c14866
:040b0400bec1071e49
:040b0500bec04cd54d
:040b0600bebf926f6d
:040b0700bebed7ebac
:040b0800bebe1d4a06
:040b0900bebd628b80
:040b0a00bebca7af17
:040b0b00bebbecb6cb
:040b0c00bebb31a09b
:040b0d00beba766e88
:040b0e00beb9bb1e93
:040b0f00beb8ffb2bb
:040b1000beb8442afd
:040b1100beb788845f
:040b1200beb6ccc3dc
:040b1300beb610e674
:040b1400beb554ec2a
:040b1500beb498d6fc
:040b1600beb3dca5e9
:040b1700beb32058f1
:040b1800beb263ef17
:040b1900beb1a76b57
:040b1a00beb0eacbb4
:040b1b00beb02e102a
:040b1c00beaf713abd
:040b1d00beaeb4496b
:040b1e00beadf73c35
:040b1f00bead3a1518
:040b2000beac7cd417
:040b2100beabbf7731
:040b2200beab020163
:040b2300beaa446fb3
:040b2400bea986c41c
:040b2500bea8c8fea0
:040b2600bea80b1f3b
:040b2700bea74d25f3
:040b2800bea68f12c4
:040b2900bea5d0e5b0
:040b2a00bea5129fb3
:040b2b00bea4543fd1
:040b2c00bea395c50a
:040b2d00bea2d7335a
:040b2e00bea21887c4
:040b2f00bea159c248
:040b3000bea09ae5e4
:040b3100be9fdbee9a
:040b3200be9f1cdf67
:040b3300be9e5db84d
:040b3400be9d9e784c
:040b3500be9cdf2063
:040b3600be9c1faf93
:040b3700be9b6027da
:040b3800be9aa0863b
:040b3900be99e0ceb3
:040b3a00be9920fe42
:040b3b00be986116e9
:040b3c00be97a117a8
:040b3d00be96e1007f
:040b3e00be9620d26d
:040b3f00be95608d72
:040b4000be94a0318e
:040b4100be93dfbfc1
:040b4200be931f350a
:040b4300be925e946c
:040b4400be919ddde4
:040b4500be90dd1071
:040b4600be901c2c15
:040b4700be8f5b32d0
:040b4800be8e9a22a1
:040b4900be8dd8fc89
:040b4a00be8d17c085
:040b4b00be8c566e98
:040b4c00be8b9507c0
:040b4d00be8ad38aff
:040b4e00be8a11f753
:040b4f00be895050bb
:040b5000be888e933a
:040b5100be87ccc1ce
:040b5200be870ada76
:040b5300be8648df33
:040b5400be8586ce06
:040b5500be84c4aaec
:040b5600be840270e7
:040b5700be834022f7
:040b5800be827dc01c
:040b5900be81bb4a54
:040b5a00be80f8c0a1
:040b5b00be80362200
:040b5c00be7ee6e192
:040b5d00be7d6156a2
:040b5e00be7bdba4db
:040b5f00be7a55cb3a
:040b6000be78cfccc0
:040b6100be7749a66c
:040b6200be75c35a3f
:040b6300be743ce838
:040b6400be72b65156
:040b6500be712f949a
:040b6600be6fa8b204
:040b6700be6e21ab92
:040b6800be6c9a7f46
:040b6900be6b132f1d
:040b6a00be698bba1b
:040b6b00be6804223a
:040b6c00be667c667f
:040b6d00be64f486e8
:040b6e00be636c8373
:040b6f00be61e45c23
:040b7000be605c13f4
:040b7100be5ed3a8e9
:040b7200be5d4b1aff
:040b7300be5bc26a39
:040b7400be5a399795
:040b7500be58b0a412
:040b7600be57278fb0
:040b7700be559e5871
:040b7800be54150151
:040b7900be528b8954
:040b7a00be5101f176
:040b7b00be4f7838b9
:040b7c00be4dee601c
:040b7d00be4c64679f
:040b7e00be4ada4f42
:040b7f00be49501803
:040b8000be47c5c2e5
:040b8100be463b4de4
:040b8200be44b0b904
:040b8300be43260740
:040b8400be419b379c
:040b8500be40104915
:040b8600be3e853eac
:040b8700be3cfa1561
:040b8800be3b6ecf33
:040b8900be39e36c22
:040b8a00be3857ec2e
:040b8b00be36cc5056
:040b8c00be3540989a
:040b8d00be33b4c4fb
:040b8e00be3228d477
:040b8f00be309cc90f
:040b9000be2f10a2c2
:040b9100be2d846190
:040b9200be2bf8047a
:040b9300be2a6b8d7e
:040b9400be28defc9d
:040b9500be275251d4
:040b9600be25c58c27
:040b9700be2438ad93
:040b9800be22abb618
:040b9900be211ea5b6
:040b9a00be1f917b6e
:040b9b00be1e04383e
:040b9c00be1c76de27
:040b9d00be1ae96b28
:040b9e00be195be041
:040b9f00be17ce3d72
:040ba000be164083ba
:040ba100be14b2b21a
:040ba200be1324ca90
:040ba300be1196cc1d
:040ba400be1008b7c0
:040ba500be0e7a8b7b
:040ba600be0cec4a4b
:040ba700be0b5df331
:040ba800be09cf862d
:040ba900be0841053c
:040baa00be06b26e63
:040bab00be0523c29e
:040bac00be039502ed
:040bad00be02062e50
:040bae00be007745c9
:040baf00bdfdd09226
:040bb000bdfab27365
:040bb100bdf7942ccc
:040bb200bdf475c059
:040bb300bdf1572e0b
:040bb400bdee3876e4
:040bb500bdeb199ae1
:040bb600bde7fa9a03
:040bb700bde4db7648
:040bb800bde1bc2eb1
:040bb900bdde9cc43d
:040bba00bddb7d37eb
:040bbb00bdd85d89bb
:040bbc00bdd53db9ad
:040bbd00bdd21dc8c0
:040bbe00bdcefdb7f4
:040bbf00bdcbdd8647
:040bc000bdc8bd36b9
:040bc100bdc59cc64c
:040bc200bdc27c39fb
:040bc300bdbf5b8dca
:040bc400bdbc3ac3b7
:040bc500bdb919ddc0
:040bc600bdb5f8dae7
:040bc700bdb2d7bb29
:040bc800bdafb68087
:040bc900bdac952bff
:040bca00bda973ba94
:040bcb00bda6523041
:040bcc00bda3308c09
:040bcd00bda00ecfea
:040bce00bd9cecf9e5
:040bcf00bd99cb0af7
:040bd000bd96a90520
:040bd100bd9386e763
:040bd200bd9064b4ba
:040bd300bd8d426a28
:040bd400bd8a200aac
:040bd500bd86fd9448
:040bd600bd83db0af6
:040bd700bd80b86cb9
:040bd800bd7b2b7442
:040bd900bd74e5e919
:040bda00bd6ea03814
:040bdb00bd685a6235
:040bdc00bd62146979
:040bdd00bd5bce4ce2
:040bde00bd55880e6b
:040bdf00bd4f41af16
:040be000bd48fb30e1
:040be100bd42b491cc
:040be200bd3c6dd5d4
:040be300bd3626fcf9
:040be400bd2fe0073a
:040be500bd2998f698
:040be600bd2351cb0f
:040be700bd1d0a889e
:040be800bd16c32c47
:040be900bd107bb808
:040bea00bd0a342fdd
:040beb00bd03ec90ca
:040bec00bcfb49ba4b
:040bed00bceeba2c74
:040bee00bce22a7ac1
:040bef00bcd59aa631
:040bf000bcc90ab0c2
:040bf100bcbc7a9b73
:040bf200bcafea6941
:040bf300bca35a1c29
:040bf400bc96c9b62c
:040bf500bc8a393845
:040bf600bc7b514b28
:040bf700bc622fffae
:040bf800bc490e9056
:040bf900bc2fed021e
:040bfa00bc16cb5802
:040bfb00bbfb5330bd
:040bfc00bbc90f88da
:040bfd00bb96cbc117
:040bfe00bb490fc61a
:040bff00bac90fd58b
:00000001FF
