:040000003f8000003d
:040001003f7ffec47b
:040002003f7ffb1130
:040003003f7ff4e661
:040004003f7fec430b
:040005003f7fe1292f
:040006003f7fd397ce
:040007003f7fc38fe5
:040008003f7fb10f76
:040009003f7f9c1881
:04000a003f7f84ab05
:04000b003f7f6ac702
:04000c003f7f4e6d77
:04000d003f7f2f9d65
:04000e003f7f0e58ca
:04000f003f7eea9da9
:040010003f7ec46dfe
:040011003f7e9bc9ca
:040012003f7e70b00d
:040013003f7e4323c6
:040014003f7e1324f4
:040015003f7de0b19a
:040016003f7dabccb3
:040017003f7d747441
:040018003f7d3aac42
:040019003f7cfe73b7
:04001a003f7cbfc99f
:04001b003f7c7eb0f8
:04001c003f7c3b28c2
:04001d003f7bf531ff
:04001e003f7baccdab
:04001f003f7b61fcc6
:040020003f7b14be50
:040021003f7ac51647
:040022003f7a7302ac
:040023003f7a1e847e
:040024003f79c79dbc
:040025003f796e4e63
:040026003f79129874
:040027003f78b47bef
:040028003f7853f8d2
:040029003f77f1101c
:04002a003f778bc5cc
:04002b003f772417e0
:04002c003f76ba075a
:04002d003f764d9736
:04002e003f75dec676
:04002f003f756d9715
:040030003f74fa0b14
:040031003f74842272
:040032003f740bdd2f
:040033003f73913f47
:040034003f731447bb
:040035003f7294f88a
:040036003f721352b0
:040037003f718f572f
:040038003f71090803
:040039003f7080662e
:04003a003f6ff573ac
:04003b003f6f68307b
:04003c003f6ed89e9d
:04003d003f6e46be0e
:04003e003f6db293cd
:04003f003f6d1c1dd8
:040040003f6c835e30
:040041003f6be858d1
:040042003f6b4b0cb9
:040043003f6aab7bea
:040044003f6a09a75f
:040045003f69659119
:040046003f68bf3c14
:040047003f6816a850
:040048003f676bd8cb
:040049003f66becc84
:04004a003f660f8876
:04004b003f655e0ba4
:04004c003f64aa590a
:04004d003f63f473a6
:04004e003f633c5a76
:04004f003f6282107a
:040050003f61c598af
:040051003f6106f213
:040052003f604621a4
:040053003f5f832761
:040054003f5ebe0548
:040055003f5df6be57
:040056003f5d2d538a
:040057003f5c61c7e2
:040058003f5b941a5c
:040059003f5ac450f6
:04005a003f59f26aae
:04005b003f591e6a81
:04005c003f5848536e
:04005d003f57702673
:04005e003f5695e58f
:04005f003f55b993bd
:040060003f54db31fd
:040061003f53fac34c
:040062003f531849a7
:040063003f5233c60f
:040064003f514d3d7e
:040065003f5064aff5
:040066003f4f7a1f6f
:040067003f4e8d90eb
:040068003f4d9f0267
:040069003f4cae79e1
:04006a003f4bbbf855
:04006b003f4ac77fc2
:04006c003f49d11225
:04006d003f48d8b37d
:04006e003f47de65c5
:04006f003f46e22afc
:040070003f45e40321
:040071003f44e3f530
:040072003f43e20026
:040073003f42de2901
:040074003f41d870c0
:040075003f40d0da5e
:040076003f3fc767da
:040077003f3ebc1b31
:040078003f3daef961
:040079003f3ca00365
:04007a003f3b8f3b3e
:04007b003f3a7ca4e8
:04007c003f3968425e
:04007d003f385216a0
:04007e003f373a23ab
:04007f003f36206c7c
:040080003f3504f311
:040081003f33e7bc66
:040082003f32c8c978
:040083003f31a81d44
:040084003f3085bbc9
:040085003f2f61a503
:040086003f2e3bdef0
:040087003f2d14698c
:040088003f2beb4ad5
:040089003f2ac082c8
:04008a003f29941561
:04008b003f2866059f
:04008c003f2736567e
:04008d003f26050afb
:04008e003f24d22514
:04008f003f239da9c5
:040090003f2267990b
:040091003f212ff9e3
:040092003f1ff6cb4b
:040093003f1ebc123e
:040094003f1d7fd1bc
:040095003f1c420cbe
:040096003f1b02c644
:040097003f19c2004b
:040098003f187fc0ce
:040099003f173c07ca
:04009a003f15f6d93f
:04009b003f14b03925
:04009c003f13682a7c
:04009d003f121eb040
:04009e003f10d3cd6f
:04009f003f0f878404
:0400a0003f0e39dafc
:0400a1003f0cead056
:0400a2003f0b9a6b0b
:0400a3003f0a48ad1b
:0400a4003f08f59b81
:0400a5003f07a1363a
:0400a6003f064b8244
:0400a7003f04f4849a
:0400a8003f039c3d39
:0400a9003f0242b11f
:0400aa003f00e7e448
:0400ab003eff17b24b
:0400ac003efc5d2792
:0400ad003ef9a02d4b
:0400ae003ef6e0cb6f
:0400af003ef41f07f5
:0400b0003ef15aead9
:0400b1003eee947912
:0400b2003eebcbbb9b
:0400b3003ee900b76b
:0400b4003ee633757c
:0400b5003ee363fac9
:0400b6003ee0924f47
:0400b7003eddbe79f3
:0400b8003edae880c4
:0400b9003ed8106bb2
:0400ba003ed53641b8
:0400bb003ed25a09ce
:0400bc003ecf7bcaee
:0400bd003ecc9b8b0f
:0400be003ec9b9532b
:0400bf003ec6d5293b
:0400c0003ec3ef1537
:0400c1003ec1071e17
:0400c2003ebe1d4ad7
:0400c3003ebb31a06f
:0400c4003eb8442ad4
:0400c5003eb554ec04
:0400c6003eb263eff4
:0400c7003eaf713a9d
:0400c8003eac7cd4fa
:0400c9003ea986c402
:0400ca003ea68f12ad
:0400cb003ea395c5f6
:0400cc003ea09ae5d3
:0400cd003e9d9e783e
:0400ce003e9aa08630
:0400cf003e97a117a0
:0400d0003e94a03189
:0400d1003e919ddde2
:0400d2003e8e9a22a2
:0400d3003e8b9507c4
:0400d4003e888e9341
:0400d5003e8586ce10
:0400d6003e827dc029
:0400d7003e7ee6e1a2
:0400d8003e78cfccd3
:0400d9003e72b6516c
:0400da003e6c9a7f5f
:0400db003e667c669b
:0400dc003e605c1313
:0400dd003e5a3997b7
:0400de003e54150176
:0400df003e4dee6044
:0400e0003e47c5c210
:0400e1003e419b37ca
:0400e2003e3b6ecf64
:0400e3003e354098ce
:0400e4003e2f10a2f9
:0400e5003e28defcd7
:0400e6003e22abb655
:0400e7003e1c76de67
:0400e8003e164083fd
:0400e9003e1008b706
:0400ea003e09cf8676
:0400eb003e03950239
:0400ec003dfab273b4
:0400ed003dee387636
:0400ee003de1bc2e06
:0400ef003dd53db905
:0400f0003dc8bd3614
:0400f1003dbc3ac315
:0400f2003dafb680e8
:0400f3003da3308c6d
:0400f4003d96a90587
:0400f5003d8a200a16
:0400f6003d7b2b74af
:0400f7003d621469e9
:0400f8003d48fb3054
:0400f9003d2fe007b0
:0400fa003d16c32cc0
:0400fb003cfb49bac7
:0400fc003cc90ab041
:0400fd003c96c9b6ae
:0400fe003c490e90db
:0400ff003bc90f8862
:04010000248d3132e7
:04010100bbc90f88df
:04010200bc490e9056
:04010300bc96c9b627
:04010400bcc90ab0b8
:04010500bcfb49ba3c
:04010600bd16c32c33
:04010700bd2fe00721
:04010800bd48fb30c3
:04010900bd62146956
:04010a00bd7b2b741a
:04010b00bd8a200a7f
:04010c00bd96a905ee
:04010d00bda3308cd2
:04010e00bdafb6804b
:04010f00bdbc3ac376
:04011000bdc8bd3673
:04011100bdd53db962
:04011200bde1bc2e61
:04011300bdee38768f
:04011400bdfab2730b
:04011500be0395028e
:04011600be09cf86c9
:04011700be1008b757
:04011800be1640834c
:04011900be1c76deb4
:04011a00be22abb6a0
:04011b00be28defc20
:04011c00be2f10a240
:04011d00be35409813
:04011e00be3b6ecfa7
:04011f00be419b370b
:04012000be47c5c24f
:04012100be4dee6081
:04012200be541501b1
:04012300be5a3997f0
:04012400be605c134a
:04012500be667c66d0
:04012600be6c9a7f92
:04012700be72b6519d
:04012800be78cfcc02
:04012900be7ee6e1cf
:04012a00be827dc054
:04012b00be8586ce39
:04012c00be888e9368
:04012d00be8b9507e9
:04012e00be8e9a22c5
:04012f00be919ddd03
:04013000be94a031a8
:04013100be97a117bd
:04013200be9aa0864b
:04013300be9d9e7857
:04013400bea09ae5ea
:04013500bea395c50b
:04013600bea68f12c0
:04013700bea986c413
:04013800beac7cd409
:04013900beaf713aaa
:04013a00beb263efff
:04013b00beb554ec0d
:04013c00beb8442adb
:04013d00bebb31a074
:04013e00bebe1d4ada
:04013f00bec1071e18
:04014000bec3ef1536
:04014100bec6d52938
:04014200bec9b95326
:04014300becc9b8b08
:04014400becf7bcae5
:04014500bed25a09c3
:04014600bed53641ab
:04014700bed8106ba3
:04014800bedae880b3
:04014900beddbe79e0
:04014a00bee0924f32
:04014b00bee363fab2
:04014c00bee6337563
:04014d00bee900b750
:04014e00beebcbbb7e
:04014f00beee9479f3
:04015000bef15aeab8
:04015100bef41f07d2
:04015200bef6e0cb4a
:04015300bef9a02d24
:04015400befc5d2769
:04015500beff17b220
:04015600bf00e7e41b
:04015700bf0242b1f0
:04015800bf039c3d08
:04015900bf04f48467
:04015a00bf064b820f
:04015b00bf07a13603
:04015c00bf08f59b48
:04015d00bf0a48ade0
:04015e00bf0b9a6bce
:04015f00bf0cead017
:04016000bf0e39dabb
:04016100bf0f8784c1
:04016200bf10d3cd2a
:04016300bf121eb0f9
:04016400bf13682a33
:04016500bf14b039da
:04016600bf15f6d9f2
:04016700bf173c077b
:04016800bf187fc07d
:04016900bf19c200f8
:04016a00bf1b02c6ef
:04016b00bf1c420c67
:04016c00bf1d7fd163
:04016d00bf1ebc12e3
:04016e00bf1ff6cbee
:04016f00bf212ff984
:04017000bf226799aa
:04017100bf239da962
:04017200bf24d225af
:04017300bf26050a94
:04017400bf27365615
:04017500bf28660534
:04017600bf299415f4
:04017700bf2ac08259
:04017800bf2beb4a64
:04017900bf2d146919
:04017a00bf2e3bde7b
:04017b00bf2f61a58c
:04017c00bf3085bb50
:04017d00bf31a81dc9
:04017e00bf32c8c9fb
:04017f00bf33e7bce7
:04018000bf3504f390
:04018100bf36206cf9
:04018200bf373a2326
:04018300bf38521619
:04018400bf396842d5
:04018500bf3a7ca45d
:04018600bf3b8f3bb1
:04018700bf3ca003d6
:04018800bf3daef9d0
:04018900bf3ebc1b9e
:04018a00bf3fc76745
:04018b00bf40d0dac7
:04018c00bf41d87027
:04018d00bf42de2966
:04018e00bf43e20089
:04018f00bf44e3f591
:04019000bf45e40380
:04019100bf46e22a59
:04019200bf47de6520
:04019300bf48d8b3d6
:04019400bf49d1127c
:04019500bf4ac77f17
:04019600bf4bbbf8a8
:04019700bf4cae7932
:04019800bf4d9f02b6
:04019900bf4e8d9038
:04019a00bf4f7a1fba
:04019b00bf5064af3e
:04019c00bf514d3dc5
:04019d00bf5233c654
:04019e00bf531849ea
:04019f00bf53fac38d
:0401a000bf54db313c
:0401a100bf55b993fa
:0401a200bf5695e5ca
:0401a300bf577026ac
:0401a400bf584853a5
:0401a500bf591e6ab6
:0401a600bf59f26ae1
:0401a700bf5ac45027
:0401a800bf5b941a8b
:0401a900bf5c61c70f
:0401aa00bf5d2d53b5
:0401ab00bf5df6be80
:0401ac00bf5ebe056f
:0401ad00bf5f832786
:0401ae00bf604621c7
:0401af00bf6106f234
:0401b000bf61c598ce
:0401b100bf62821097
:0401b200bf633c5a91
:0401b300bf63f473bf
:0401b400bf64aa5921
:0401b500bf655e0bb9
:0401b600bf660f8889
:0401b700bf66becc95
:0401b800bf676bd8da
:0401b900bf6816a85d
:0401ba00bf68bf3c1f
:0401bb00bf69659122
:0401bc00bf6a09a766
:0401bd00bf6aab7bef
:0401be00bf6b4b0cbc
:0401bf00bf6be858d2
:0401c000bf6c835e2f
:0401c100bf6d1c1dd5
:0401c200bf6db293c8
:0401c300bf6e46be07
:0401c400bf6ed89e94
:0401c500bf6f683070
:0401c600bf6ff5739f
:0401c700bf7080661f
:0401c800bf710908f2
:0401c900bf718f571c
:0401ca00bf7213529b
:0401cb00bf7294f873
:0401cc00bf731447a2
:0401cd00bf73913f2c
:0401ce00bf740bdd12
:0401cf00bf74842253
:0401d000bf74fa0bf3
:0401d100bf756d97f2
:0401d200bf75dec651
:0401d300bf764d970f
:0401d400bf76ba0731
:0401d500bf772417b5
:0401d600bf778bc59f
:0401d700bf77f110ed
:0401d800bf7853f8a1
:0401d900bf78b47bbc
:0401da00bf7912983f
:0401db00bf796e4e2c
:0401dc00bf79c79d83
:0401dd00bf7a1e8443
:0401de00bf7a73026f
:0401df00bf7ac51608
:0401e000bf7b14be0f
:0401e100bf7b61fc83
:0401e200bf7baccd66
:0401e300bf7bf531b8
:0401e400bf7c3b2879
:0401e500bf7c7eb0ad
:0401e600bf7cbfc952
:0401e700bf7cfe7368
:0401e800bf7d3aacf1
:0401e900bf7d7474ee
:0401ea00bf7dabcc5e
:0401eb00bf7de0b143
:0401ec00bf7e13249b
:0401ed00bf7e43236b
:0401ee00bf7e70b0b0
:0401ef00bf7e9bc96b
:0401f000bf7ec46d9d
:0401f100bf7eea9d46
:0401f200bf7f0e5865
:0401f300bf7f2f9dfe
:0401f400bf7f4e6d0e
:0401f500bf7f6ac797
:0401f600bf7f84ab98
:0401f700bf7f9c1812
:0401f800bf7fb10f05
:0401f900bf7fc38f72
:0401fa00bf7fd39759
:0401fb00bf7fe129b8
:0401fc00bf7fec4392
:0401fd00bf7ff4e6e6
:0401fe00bf7ffb11b3
:0401ff00bf7ffec4fc
:04020000bf800000bb
:04020100bf7ffec4f9
:04020200bf7ffb11ae
:04020300bf7ff4e6df
:04020400bf7fec4389
:04020500bf7fe129ad
:04020600bf7fd3974c
:04020700bf7fc38f63
:04020800bf7fb10ff4
:04020900bf7f9c18ff
:04020a00bf7f84ab83
:04020b00bf7f6ac780
:04020c00bf7f4e6df5
:04020d00bf7f2f9de3
:04020e00bf7f0e5848
:04020f00bf7eea9d27
:04021000bf7ec46d7c
:04021100bf7e9bc948
:04021200bf7e70b08b
:04021300bf7e432344
:04021400bf7e132472
:04021500bf7de0b118
:04021600bf7dabcc31
:04021700bf7d7474bf
:04021800bf7d3aacc0
:04021900bf7cfe7335
:04021a00bf7cbfc91d
:04021b00bf7c7eb076
:04021c00bf7c3b2840
:04021d00bf7bf5317d
:04021e00bf7baccd29
:04021f00bf7b61fc44
:04022000bf7b14bece
:04022100bf7ac516c5
:04022200bf7a73022a
:04022300bf7a1e84fc
:04022400bf79c79d3a
:04022500bf796e4ee1
:04022600bf791298f2
:04022700bf78b47b6d
:04022800bf7853f850
:04022900bf77f1109a
:04022a00bf778bc54a
:04022b00bf7724175e
:04022c00bf76ba07d8
:04022d00bf764d97b4
:04022e00bf75dec6f4
:04022f00bf756d9793
:04023000bf74fa0b92
:04023100bf748422f0
:04023200bf740bddad
:04023300bf73913fc5
:04023400bf73144739
:04023500bf7294f808
:04023600bf7213522e
:04023700bf718f57ad
:04023800bf71090881
:04023900bf708066ac
:04023a00bf6ff5732a
:04023b00bf6f6830f9
:04023c00bf6ed89e1b
:04023d00bf6e46be8c
:04023e00bf6db2934b
:04023f00bf6d1c1d56
:04024000bf6c835eae
:04024100bf6be8584f
:04024200bf6b4b0c37
:04024300bf6aab7b68
:04024400bf6a09a7dd
:04024500bf69659197
:04024600bf68bf3c92
:04024700bf6816a8ce
:04024800bf676bd849
:04024900bf66becc02
:04024a00bf660f88f4
:04024b00bf655e0b22
:04024c00bf64aa5988
:04024d00bf63f47324
:04024e00bf633c5af4
:04024f00bf628210f8
:04025000bf61c5982d
:04025100bf6106f291
:04025200bf60462122
:04025300bf5f8327df
:04025400bf5ebe05c6
:04025500bf5df6bed5
:04025600bf5d2d5308
:04025700bf5c61c760
:04025800bf5b941ada
:04025900bf5ac45074
:04025a00bf59f26a2c
:04025b00bf591e6aff
:04025c00bf584853ec
:04025d00bf577026f1
:04025e00bf5695e50d
:04025f00bf55b9933b
:04026000bf54db317b
:04026100bf53fac3ca
:04026200bf53184925
:04026300bf5233c68d
:04026400bf514d3dfc
:04026500bf5064af73
:04026600bf4f7a1fed
:04026700bf4e8d9069
:04026800bf4d9f02e5
:04026900bf4cae795f
:04026a00bf4bbbf8d3
:04026b00bf4ac77f40
:04026c00bf49d112a3
:04026d00bf48d8b3fb
:04026e00bf47de6543
:04026f00bf46e22a7a
:04027000bf45e4039f
:04027100bf44e3f5ae
:04027200bf43e200a4
:04027300bf42de297f
:04027400bf41d8703e
:04027500bf40d0dadc
:04027600bf3fc76758
:04027700bf3ebc1baf
:04027800bf3daef9df
:04027900bf3ca003e3
:04027a00bf3b8f3bbc
:04027b00bf3a7ca466
:04027c00bf396842dc
:04027d00bf3852161e
:04027e00bf373a2329
:04027f00bf36206cfa
:04028000bf3504f38f
:04028100bf33e7bce4
:04028200bf32c8c9f6
:04028300bf31a81dc2
:04028400bf3085bb47
:04028500bf2f61a581
:04028600bf2e3bde6e
:04028700bf2d14690a
:04028800bf2beb4a53
:04028900bf2ac08246
:04028a00bf299415df
:04028b00bf2866051d
:04028c00bf273656fc
:04028d00bf26050a79
:04028e00bf24d22592
:04028f00bf239da943
:04029000bf22679989
:04029100bf212ff961
:04029200bf1ff6cbc9
:04029300bf1ebc12bc
:04029400bf1d7fd13a
:04029500bf1c420c3c
:04029600bf1b02c6c2
:04029700bf19c200c9
:04029800bf187fc04c
:04029900bf173c0748
:04029a00bf15f6d9bd
:04029b00bf14b039a3
:04029c00bf13682afa
:04029d00bf121eb0be
:04029e00bf10d3cded
:04029f00bf0f878482
:0402a000bf0e39da7a
:0402a100bf0cead0d4
:0402a200bf0b9a6b89
:0402a300bf0a48ad99
:0402a400bf08f59bff
:0402a500bf07a136b8
:0402a600bf064b82c2
:0402a700bf04f48418
:0402a800bf039c3db7
:0402a900bf0242b19d
:0402aa00bf00e7e4c6
:0402ab00beff17b2c9
:0402ac00befc5d2710
:0402ad00bef9a02dc9
:0402ae00bef6e0cbed
:0402af00bef41f0773
:0402b000bef15aea57
:0402b100beee947990
:0402b200beebcbbb19
:0402b300bee900b7e9
:0402b400bee63375fa
:0402b500bee363fa47
:0402b600bee0924fc5
:0402b700beddbe7971
:0402b800bedae88042
:0402b900bed8106b30
:0402ba00bed5364136
:0402bb00bed25a094c
:0402bc00becf7bca6c
:0402bd00becc9b8b8d
:0402be00bec9b953a9
:0402bf00bec6d529b9
:0402c000bec3ef15b5
:0402c100bec1071e95
:0402c200bebe1d4a55
:0402c300bebb31a0ed
:0402c400beb8442a52
:0402c500beb554ec82
:0402c600beb263ef72
:0402c700beaf713a1b
:0402c800beac7cd478
:0402c900bea986c480
:0402ca00bea68f122b
:0402cb00bea395c574
:0402cc00bea09ae551
:0402cd00be9d9e78bc
:0402ce00be9aa086ae
:0402cf00be97a1171e
:0402d000be94a03107
:0402d100be919ddd60
:0402d200be8e9a2220
:0402d300be8b950742
:0402d400be888e93bf
:0402d500be8586ce8e
:0402d600be827dc0a7
:0402d700be7ee6e120
:0402d800be78cfcc51
:0402d900be72b651ea
:0402da00be6c9a7fdd
:0402db00be667c6619
:0402dc00be605c1391
:0402dd00be5a399735
:0402de00be541501f4
:0402df00be4dee60c2
:0402e000be47c5c28e
:0402e100be419b3748
:0402e200be3b6ecfe2
:0402e300be3540984c
:0402e400be2f10a277
:0402e500be28defc55
:0402e600be22abb6d3
:0402e700be1c76dee5
:0402e800be1640837b
:0402e900be1008b784
:0402ea00be09cf86f4
:0402eb00be039502b7
:0402ec00bdfab27332
:0402ed00bdee3876b4
:0402ee00bde1bc2e84
:0402ef00bdd53db983
:0402f000bdc8bd3692
:0402f100bdbc3ac393
:0402f200bdafb68066
:0402f300bda3308ceb
:0402f400bd96a90505
:0402f500bd8a200a94
:0402f600bd7b2b742d
:0402f700bd62146967
:0402f800bd48fb30d2
:0402f900bd2fe0072e
:0402fa00bd16c32c3e
:0402fb00bcfb49ba45
:0402fc00bcc90ab0bf
:0402fd00bc96c9b62c
:0402fe00bc490e9059
:0402ff00bbc90f88e0
:00000001FF
