:04000000800000007c
:04000100bbc90f88e0
:04000200bc490e9057
:04000300bc96c9b628
:04000400bcc90ab0b9
:04000500bcfb49ba3d
:04000600bd16c32c34
:04000700bd2fe00722
:04000800bd48fb30c4
:04000900bd62146957
:04000a00bd7b2b741b
:04000b00bd8a200a80
:04000c00bd96a905ef
:04000d00bda3308cd3
:04000e00bdafb6804c
:04000f00bdbc3ac377
:04001000bdc8bd3674
:04001100bdd53db963
:04001200bde1bc2e62
:04001300bdee387690
:04001400bdfab2730c
:04001500be0395028f
:04001600be09cf86ca
:04001700be1008b758
:04001800be1640834d
:04001900be1c76deb5
:04001a00be22abb6a1
:04001b00be28defc21
:04001c00be2f10a241
:04001d00be35409814
:04001e00be3b6ecfa8
:04001f00be419b370c
:04002000be47c5c250
:04002100be4dee6082
:04002200be541501b2
:04002300be5a3997f1
:04002400be605c134b
:04002500be667c66d1
:04002600be6c9a7f93
:04002700be72b6519e
:04002800be78cfcc03
:04002900be7ee6e1d0
:04002a00be827dc055
:04002b00be8586ce3a
:04002c00be888e9369
:04002d00be8b9507ea
:04002e00be8e9a22c6
:04002f00be919ddd04
:04003000be94a031a9
:04003100be97a117be
:04003200be9aa0864c
:04003300be9d9e7858
:04003400bea09ae5eb
:04003500bea395c50c
:04003600bea68f12c1
:04003700bea986c414
:04003800beac7cd40a
:04003900beaf713aab
:04003a00beb263ef00
:04003b00beb554ec0e
:04003c00beb8442adc
:04003d00bebb31a075
:04003e00bebe1d4adb
:04003f00bec1071e19
:04004000bec3ef1537
:04004100bec6d52939
:04004200bec9b95327
:04004300becc9b8b09
:04004400becf7bcae6
:04004500bed25a09c4
:04004600bed53641ac
:04004700bed8106ba4
:04004800bedae880b4
:04004900beddbe79e1
:04004a00bee0924f33
:04004b00bee363fab3
:04004c00bee6337564
:04004d00bee900b751
:04004e00beebcbbb7f
:04004f00beee9479f4
:04005000bef15aeab9
:04005100bef41f07d3
:04005200bef6e0cb4b
:04005300bef9a02d25
:04005400befc5d276a
:04005500beff17b221
:04005600bf00e7e41c
:04005700bf0242b1f1
:04005800bf039c3d09
:04005900bf04f48468
:04005a00bf064b8210
:04005b00bf07a13604
:04005c00bf08f59b49
:04005d00bf0a48ade1
:04005e00bf0b9a6bcf
:04005f00bf0cead018
:04006000bf0e39dabc
:04006100bf0f8784c2
:04006200bf10d3cd2b
:04006300bf121eb0fa
:04006400bf13682a34
:04006500bf14b039db
:04006600bf15f6d9f3
:04006700bf173c077c
:04006800bf187fc07e
:04006900bf19c200f9
:04006a00bf1b02c6f0
:04006b00bf1c420c68
:04006c00bf1d7fd164
:04006d00bf1ebc12e4
:04006e00bf1ff6cbef
:04006f00bf212ff985
:04007000bf226799ab
:04007100bf239da963
:04007200bf24d225b0
:04007300bf26050a95
:04007400bf27365616
:04007500bf28660535
:04007600bf299415f5
:04007700bf2ac0825a
:04007800bf2beb4a65
:04007900bf2d14691a
:04007a00bf2e3bde7c
:04007b00bf2f61a58d
:04007c00bf3085bb51
:04007d00bf31a81dca
:04007e00bf32c8c9fc
:04007f00bf33e7bce8
:04008000bf3504f391
:04008100bf36206cfa
:04008200bf373a2327
:04008300bf3852161a
:04008400bf396842d6
:04008500bf3a7ca45e
:04008600bf3b8f3bb2
:04008700bf3ca003d7
:04008800bf3daef9d1
:04008900bf3ebc1b9f
:04008a00bf3fc76746
:04008b00bf40d0dac8
:04008c00bf41d87028
:04008d00bf42de2967
:04008e00bf43e2008a
:04008f00bf44e3f592
:04009000bf45e40381
:04009100bf46e22a5a
:04009200bf47de6521
:04009300bf48d8b3d7
:04009400bf49d1127d
:04009500bf4ac77f18
:04009600bf4bbbf8a9
:04009700bf4cae7933
:04009800bf4d9f02b7
:04009900bf4e8d9039
:04009a00bf4f7a1fbb
:04009b00bf5064af3f
:04009c00bf514d3dc6
:04009d00bf5233c655
:04009e00bf531849eb
:04009f00bf53fac38e
:0400a000bf54db313d
:0400a100bf55b993fb
:0400a200bf5695e5cb
:0400a300bf577026ad
:0400a400bf584853a6
:0400a500bf591e6ab7
:0400a600bf59f26ae2
:0400a700bf5ac45028
:0400a800bf5b941a8c
:0400a900bf5c61c710
:0400aa00bf5d2d53b6
:0400ab00bf5df6be81
:0400ac00bf5ebe0570
:0400ad00bf5f832787
:0400ae00bf604621c8
:0400af00bf6106f235
:0400b000bf61c598cf
:0400b100bf62821098
:0400b200bf633c5a92
:0400b300bf63f473c0
:0400b400bf64aa5922
:0400b500bf655e0bba
:0400b600bf660f888a
:0400b700bf66becc96
:0400b800bf676bd8db
:0400b900bf6816a85e
:0400ba00bf68bf3c20
:0400bb00bf69659123
:0400bc00bf6a09a767
:0400bd00bf6aab7bf0
:0400be00bf6b4b0cbd
:0400bf00bf6be858d3
:0400c000bf6c835e30
:0400c100bf6d1c1dd6
:0400c200bf6db293c9
:0400c300bf6e46be08
:0400c400bf6ed89e95
:0400c500bf6f683071
:0400c600bf6ff573a0
:0400c700bf70806620
:0400c800bf710908f3
:0400c900bf718f571d
:0400ca00bf7213529c
:0400cb00bf7294f874
:0400cc00bf731447a3
:0400cd00bf73913f2d
:0400ce00bf740bdd13
:0400cf00bf74842254
:0400d000bf74fa0bf4
:0400d100bf756d97f3
:0400d200bf75dec652
:0400d300bf764d9710
:0400d400bf76ba0732
:0400d500bf772417b6
:0400d600bf778bc5a0
:0400d700bf77f110ee
:0400d800bf7853f8a2
:0400d900bf78b47bbd
:0400da00bf79129840
:0400db00bf796e4e2d
:0400dc00bf79c79d84
:0400dd00bf7a1e8444
:0400de00bf7a730270
:0400df00bf7ac51609
:0400e000bf7b14be10
:0400e100bf7b61fc84
:0400e200bf7baccd67
:0400e300bf7bf531b9
:0400e400bf7c3b287a
:0400e500bf7c7eb0ae
:0400e600bf7cbfc953
:0400e700bf7cfe7369
:0400e800bf7d3aacf2
:0400e900bf7d7474ef
:0400ea00bf7dabcc5f
:0400eb00bf7de0b144
:0400ec00bf7e13249c
:0400ed00bf7e43236c
:0400ee00bf7e70b0b1
:0400ef00bf7e9bc96c
:0400f000bf7ec46d9e
:0400f100bf7eea9d47
:0400f200bf7f0e5866
:0400f300bf7f2f9dff
:0400f400bf7f4e6d0f
:0400f500bf7f6ac798
:0400f600bf7f84ab99
:0400f700bf7f9c1813
:0400f800bf7fb10f06
:0400f900bf7fc38f73
:0400fa00bf7fd3975a
:0400fb00bf7fe129b9
:0400fc00bf7fec4393
:0400fd00bf7ff4e6e7
:0400fe00bf7ffb11b4
:0400ff00bf7ffec4fd
:04010000bf800000bc
:04010100bf7ffec4fa
:04010200bf7ffb11af
:04010300bf7ff4e6e0
:04010400bf7fec438a
:04010500bf7fe129ae
:04010600bf7fd3974d
:04010700bf7fc38f64
:04010800bf7fb10ff5
:04010900bf7f9c1800
:04010a00bf7f84ab84
:04010b00bf7f6ac781
:04010c00bf7f4e6df6
:04010d00bf7f2f9de4
:04010e00bf7f0e5849
:04010f00bf7eea9d28
:04011000bf7ec46d7d
:04011100bf7e9bc949
:04011200bf7e70b08c
:04011300bf7e432345
:04011400bf7e132473
:04011500bf7de0b119
:04011600bf7dabcc32
:04011700bf7d7474c0
:04011800bf7d3aacc1
:04011900bf7cfe7336
:04011a00bf7cbfc91e
:04011b00bf7c7eb077
:04011c00bf7c3b2841
:04011d00bf7bf5317e
:04011e00bf7baccd2a
:04011f00bf7b61fc45
:04012000bf7b14becf
:04012100bf7ac516c6
:04012200bf7a73022b
:04012300bf7a1e84fd
:04012400bf79c79d3b
:04012500bf796e4ee2
:04012600bf791298f3
:04012700bf78b47b6e
:04012800bf7853f851
:04012900bf77f1109b
:04012a00bf778bc54b
:04012b00bf7724175f
:04012c00bf76ba07d9
:04012d00bf764d97b5
:04012e00bf75dec6f5
:04012f00bf756d9794
:04013000bf74fa0b93
:04013100bf748422f1
:04013200bf740bddae
:04013300bf73913fc6
:04013400bf7314473a
:04013500bf7294f809
:04013600bf7213522f
:04013700bf718f57ae
:04013800bf71090882
:04013900bf708066ad
:04013a00bf6ff5732b
:04013b00bf6f6830fa
:04013c00bf6ed89e1c
:04013d00bf6e46be8d
:04013e00bf6db2934c
:04013f00bf6d1c1d57
:04014000bf6c835eaf
:04014100bf6be85850
:04014200bf6b4b0c38
:04014300bf6aab7b69
:04014400bf6a09a7de
:04014500bf69659198
:04014600bf68bf3c93
:04014700bf6816a8cf
:04014800bf676bd84a
:04014900bf66becc03
:04014a00bf660f88f5
:04014b00bf655e0b23
:04014c00bf64aa5989
:04014d00bf63f47325
:04014e00bf633c5af5
:04014f00bf628210f9
:04015000bf61c5982e
:04015100bf6106f292
:04015200bf60462123
:04015300bf5f8327e0
:04015400bf5ebe05c7
:04015500bf5df6bed6
:04015600bf5d2d5309
:04015700bf5c61c761
:04015800bf5b941adb
:04015900bf5ac45075
:04015a00bf59f26a2d
:04015b00bf591e6a00
:04015c00bf584853ed
:04015d00bf577026f2
:04015e00bf5695e50e
:04015f00bf55b9933c
:04016000bf54db317c
:04016100bf53fac3cb
:04016200bf53184926
:04016300bf5233c68e
:04016400bf514d3dfd
:04016500bf5064af74
:04016600bf4f7a1fee
:04016700bf4e8d906a
:04016800bf4d9f02e6
:04016900bf4cae7960
:04016a00bf4bbbf8d4
:04016b00bf4ac77f41
:04016c00bf49d112a4
:04016d00bf48d8b3fc
:04016e00bf47de6544
:04016f00bf46e22a7b
:04017000bf45e403a0
:04017100bf44e3f5af
:04017200bf43e200a5
:04017300bf42de2980
:04017400bf41d8703f
:04017500bf40d0dadd
:04017600bf3fc76759
:04017700bf3ebc1bb0
:04017800bf3daef9e0
:04017900bf3ca003e4
:04017a00bf3b8f3bbd
:04017b00bf3a7ca467
:04017c00bf396842dd
:04017d00bf3852161f
:04017e00bf373a232a
:04017f00bf36206cfb
:04018000bf3504f390
:04018100bf33e7bce5
:04018200bf32c8c9f7
:04018300bf31a81dc3
:04018400bf3085bb48
:04018500bf2f61a582
:04018600bf2e3bde6f
:04018700bf2d14690b
:04018800bf2beb4a54
:04018900bf2ac08247
:04018a00bf299415e0
:04018b00bf2866051e
:04018c00bf273656fd
:04018d00bf26050a7a
:04018e00bf24d22593
:04018f00bf239da944
:04019000bf2267998a
:04019100bf212ff962
:04019200bf1ff6cbca
:04019300bf1ebc12bd
:04019400bf1d7fd13b
:04019500bf1c420c3d
:04019600bf1b02c6c3
:04019700bf19c200ca
:04019800bf187fc04d
:04019900bf173c0749
:04019a00bf15f6d9be
:04019b00bf14b039a4
:04019c00bf13682afb
:04019d00bf121eb0bf
:04019e00bf10d3cdee
:04019f00bf0f878483
:0401a000bf0e39da7b
:0401a100bf0cead0d5
:0401a200bf0b9a6b8a
:0401a300bf0a48ad9a
:0401a400bf08f59b00
:0401a500bf07a136b9
:0401a600bf064b82c3
:0401a700bf04f48419
:0401a800bf039c3db8
:0401a900bf0242b19e
:0401aa00bf00e7e4c7
:0401ab00beff17b2ca
:0401ac00befc5d2711
:0401ad00bef9a02dca
:0401ae00bef6e0cbee
:0401af00bef41f0774
:0401b000bef15aea58
:0401b100beee947991
:0401b200beebcbbb1a
:0401b300bee900b7ea
:0401b400bee63375fb
:0401b500bee363fa48
:0401b600bee0924fc6
:0401b700beddbe7972
:0401b800bedae88043
:0401b900bed8106b31
:0401ba00bed5364137
:0401bb00bed25a094d
:0401bc00becf7bca6d
:0401bd00becc9b8b8e
:0401be00bec9b953aa
:0401bf00bec6d529ba
:0401c000bec3ef15b6
:0401c100bec1071e96
:0401c200bebe1d4a56
:0401c300bebb31a0ee
:0401c400beb8442a53
:0401c500beb554ec83
:0401c600beb263ef73
:0401c700beaf713a1c
:0401c800beac7cd479
:0401c900bea986c481
:0401ca00bea68f122c
:0401cb00bea395c575
:0401cc00bea09ae552
:0401cd00be9d9e78bd
:0401ce00be9aa086af
:0401cf00be97a1171f
:0401d000be94a03108
:0401d100be919ddd61
:0401d200be8e9a2221
:0401d300be8b950743
:0401d400be888e93c0
:0401d500be8586ce8f
:0401d600be827dc0a8
:0401d700be7ee6e121
:0401d800be78cfcc52
:0401d900be72b651eb
:0401da00be6c9a7fde
:0401db00be667c661a
:0401dc00be605c1392
:0401dd00be5a399736
:0401de00be541501f5
:0401df00be4dee60c3
:0401e000be47c5c28f
:0401e100be419b3749
:0401e200be3b6ecfe3
:0401e300be3540984d
:0401e400be2f10a278
:0401e500be28defc56
:0401e600be22abb6d4
:0401e700be1c76dee6
:0401e800be1640837c
:0401e900be1008b785
:0401ea00be09cf86f5
:0401eb00be039502b8
:0401ec00bdfab27333
:0401ed00bdee3876b5
:0401ee00bde1bc2e85
:0401ef00bdd53db984
:0401f000bdc8bd3693
:0401f100bdbc3ac394
:0401f200bdafb68067
:0401f300bda3308cec
:0401f400bd96a90506
:0401f500bd8a200a95
:0401f600bd7b2b742e
:0401f700bd62146968
:0401f800bd48fb30d3
:0401f900bd2fe0072f
:0401fa00bd16c32c3f
:0401fb00bcfb49ba46
:0401fc00bcc90ab0c0
:0401fd00bc96c9b62d
:0401fe00bc490e905a
:0401ff00bbc90f88e1
:04020000a50d3132e5
:040201003bc90f885e
:040202003c490e90d5
:040203003c96c9b6a6
:040204003cc90ab037
:040205003cfb49babb
:040206003d16c32cb2
:040207003d2fe007a0
:040208003d48fb3042
:040209003d621469d5
:04020a003d7b2b7499
:04020b003d8a200afe
:04020c003d96a9056d
:04020d003da3308c51
:04020e003dafb680ca
:04020f003dbc3ac3f5
:040210003dc8bd36f2
:040211003dd53db9e1
:040212003de1bc2ee0
:040213003dee38760e
:040214003dfab2738a
:040215003e0395020d
:040216003e09cf8648
:040217003e1008b7d6
:040218003e164083cb
:040219003e1c76de33
:04021a003e22abb61f
:04021b003e28defc9f
:04021c003e2f10a2bf
:04021d003e35409892
:04021e003e3b6ecf26
:04021f003e419b378a
:040220003e47c5c2ce
:040221003e4dee6000
:040222003e54150130
:040223003e5a39976f
:040224003e605c13c9
:040225003e667c664f
:040226003e6c9a7f11
:040227003e72b6511c
:040228003e78cfcc81
:040229003e7ee6e14e
:04022a003e827dc0d3
:04022b003e8586ceb8
:04022c003e888e93e7
:04022d003e8b950768
:04022e003e8e9a2244
:04022f003e919ddd82
:040230003e94a03127
:040231003e97a1173c
:040232003e9aa086ca
:040233003e9d9e78d6
:040234003ea09ae569
:040235003ea395c58a
:040236003ea68f123f
:040237003ea986c492
:040238003eac7cd488
:040239003eaf713a29
:04023a003eb263ef7e
:04023b003eb554ec8c
:04023c003eb8442a5a
:04023d003ebb31a0f3
:04023e003ebe1d4a59
:04023f003ec1071e97
:040240003ec3ef15b5
:040241003ec6d529b7
:040242003ec9b953a5
:040243003ecc9b8b87
:040244003ecf7bca64
:040245003ed25a0942
:040246003ed536412a
:040247003ed8106b22
:040248003edae88032
:040249003eddbe795f
:04024a003ee0924fb1
:04024b003ee363fa31
:04024c003ee63375e2
:04024d003ee900b7cf
:04024e003eebcbbbfd
:04024f003eee947972
:040250003ef15aea37
:040251003ef41f0751
:040252003ef6e0cbc9
:040253003ef9a02da3
:040254003efc5d27e8
:040255003eff17b29f
:040256003f00e7e49a
:040257003f0242b16f
:040258003f039c3d87
:040259003f04f484e6
:04025a003f064b828e
:04025b003f07a13682
:04025c003f08f59bc7
:04025d003f0a48ad5f
:04025e003f0b9a6b4d
:04025f003f0cead096
:040260003f0e39da3a
:040261003f0f878440
:040262003f10d3cda9
:040263003f121eb078
:040264003f13682ab2
:040265003f14b03959
:040266003f15f6d971
:040267003f173c07fa
:040268003f187fc0fc
:040269003f19c20077
:04026a003f1b02c66e
:04026b003f1c420ce6
:04026c003f1d7fd1e2
:04026d003f1ebc1262
:04026e003f1ff6cb6d
:04026f003f212ff903
:040270003f22679929
:040271003f239da9e1
:040272003f24d2252e
:040273003f26050a13
:040274003f27365694
:040275003f286605b3
:040276003f29941573
:040277003f2ac082d8
:040278003f2beb4ae3
:040279003f2d146998
:04027a003f2e3bdefa
:04027b003f2f61a50b
:04027c003f3085bbcf
:04027d003f31a81d48
:04027e003f32c8c97a
:04027f003f33e7bc66
:040280003f3504f30f
:040281003f36206c78
:040282003f373a23a5
:040283003f38521698
:040284003f39684254
:040285003f3a7ca4dc
:040286003f3b8f3b30
:040287003f3ca00355
:040288003f3daef94f
:040289003f3ebc1b1d
:04028a003f3fc767c4
:04028b003f40d0da46
:04028c003f41d870a6
:04028d003f42de29e5
:04028e003f43e20008
:04028f003f44e3f510
:040290003f45e403ff
:040291003f46e22ad8
:040292003f47de659f
:040293003f48d8b355
:040294003f49d112fb
:040295003f4ac77f96
:040296003f4bbbf827
:040297003f4cae79b1
:040298003f4d9f0235
:040299003f4e8d90b7
:04029a003f4f7a1f39
:04029b003f5064afbd
:04029c003f514d3d44
:04029d003f5233c6d3
:04029e003f53184969
:04029f003f53fac30c
:0402a0003f54db31bb
:0402a1003f55b99379
:0402a2003f5695e549
:0402a3003f5770262b
:0402a4003f58485324
:0402a5003f591e6a35
:0402a6003f59f26a60
:0402a7003f5ac450a6
:0402a8003f5b941a0a
:0402a9003f5c61c78e
:0402aa003f5d2d5334
:0402ab003f5df6beff
:0402ac003f5ebe05ee
:0402ad003f5f832705
:0402ae003f60462146
:0402af003f6106f2b3
:0402b0003f61c5984d
:0402b1003f62821016
:0402b2003f633c5a10
:0402b3003f63f4733e
:0402b4003f64aa59a0
:0402b5003f655e0b38
:0402b6003f660f8808
:0402b7003f66becc14
:0402b8003f676bd859
:0402b9003f6816a8dc
:0402ba003f68bf3c9e
:0402bb003f696591a1
:0402bc003f6a09a7e5
:0402bd003f6aab7b6e
:0402be003f6b4b0c3b
:0402bf003f6be85851
:0402c0003f6c835eae
:0402c1003f6d1c1d54
:0402c2003f6db29347
:0402c3003f6e46be86
:0402c4003f6ed89e13
:0402c5003f6f6830ef
:0402c6003f6ff5731e
:0402c7003f7080669e
:0402c8003f71090871
:0402c9003f718f579b
:0402ca003f7213521a
:0402cb003f7294f8f2
:0402cc003f73144721
:0402cd003f73913fab
:0402ce003f740bdd91
:0402cf003f748422d2
:0402d0003f74fa0b72
:0402d1003f756d9771
:0402d2003f75dec6d0
:0402d3003f764d978e
:0402d4003f76ba07b0
:0402d5003f77241734
:0402d6003f778bc51e
:0402d7003f77f1106c
:0402d8003f7853f820
:0402d9003f78b47b3b
:0402da003f791298be
:0402db003f796e4eab
:0402dc003f79c79d02
:0402dd003f7a1e84c2
:0402de003f7a7302ee
:0402df003f7ac51687
:0402e0003f7b14be8e
:0402e1003f7b61fc02
:0402e2003f7baccde5
:0402e3003f7bf53137
:0402e4003f7c3b28f8
:0402e5003f7c7eb02c
:0402e6003f7cbfc9d1
:0402e7003f7cfe73e7
:0402e8003f7d3aac70
:0402e9003f7d74746d
:0402ea003f7dabccdd
:0402eb003f7de0b1c2
:0402ec003f7e13241a
:0402ed003f7e4323ea
:0402ee003f7e70b02f
:0402ef003f7e9bc9ea
:0402f0003f7ec46d1c
:0402f1003f7eea9dc5
:0402f2003f7f0e58e4
:0402f3003f7f2f9d7d
:0402f4003f7f4e6d8d
:0402f5003f7f6ac716
:0402f6003f7f84ab17
:0402f7003f7f9c1891
:0402f8003f7fb10f84
:0402f9003f7fc38ff1
:0402fa003f7fd397d8
:0402fb003f7fe12937
:0402fc003f7fec4311
:0402fd003f7ff4e665
:0402fe003f7ffb1132
:0402ff003f7ffec47b
:00000001FF
