:040000003f8000003d
:040001003f7fec430e
:040002003f7fb10f7c
:040003003f7f4e6d80
:040004003f7ec46d0a
:040005003f7e132403
:040006003f7d3aac54
:040007003f7c3b28d7
:040008003f7b14be68
:040009003f79c79dd7
:04000a003f7853f8f0
:04000b003f76ba077b
:04000c003f74fa0b38
:04000d003f731447e2
:04000e003f7109082d
:04000f003f6ed89eca
:040010003f6c835e60
:040011003f6a09a792
:040012003f676bd801
:040013003f64aa5943
:040014003f61c598eb
:040015003f5ebe0587
:040016003f5b941a9e
:040017003f584853b3
:040018003f54db3145
:040019003f514d3dc9
:04001a003f4d9f02b5
:04001b003f49d11276
:04001c003f45e40375
:04001d003f41d87017
:04001e003f3daef9bb
:04001f003f396842bb
:040020003f3504f371
:040021003f3085bb2c
:040022003f2beb4a3b
:040023003f273656e7
:040024003f22679977
:040025003f1d7fd12b
:040026003f187fc040
:040027003f13682af1
:040028003f0e39da74
:040029003f08f59bfc
:04002a003f039c3db7
:04002b003efc5d2713
:04002c003ef15aea5d
:04002d003ee6337503
:04002e003edae8804e
:04002f003ecf7bca7b
:040030003ec3ef15c7
:040031003eb8442a67
:040032003eac7cd490
:040033003ea09ae56c
:040034003e94a03125
:040035003e888e93e0
:040036003e78cfcc75
:040037003e605c13b8
:040038003e47c5c2b8
:040039003e2f10a2a4
:04003a003e164083ab
:04003b003dfab27365
:04003c003dc8bd36c8
:04003d003d96a9053e
:04003e003d48fb300e
:04003f003cc90ab0fe
:04004000248d3132a8
:04004100bcc90ab07c
:04004200bd48fb308a
:04004300bd96a905b8
:04004400bdc8bd3640
:04004500bdfab273db
:04004600be1640831f
:04004700be2f10a216
:04004800be47c5c228
:04004900be605c1326
:04004a00be78cfcce1
:04004b00be888e934a
:04004c00be94a0318d
:04004d00bea09ae5d2
:04004e00beac7cd4f4
:04004f00beb8442ac9
:04005000bec3ef1527
:04005100becf7bcad9
:04005200bedae880aa
:04005300bee633755d
:04005400bef15aeab5
:04005500befc5d2769
:04005600bf039c3d0b
:04005700bf08f59b4e
:04005800bf0e39dac4
:04005900bf13682a3f
:04005a00bf187fc08c
:04005b00bf1d7fd175
:04005c00bf226799bf
:04005d00bf2736562d
:04005e00bf2beb4a7f
:04005f00bf3085bb6e
:04006000bf3504f3b1
:04006100bf396842f9
:04006200bf3daef9f7
:04006300bf41d87051
:04006400bf45e403ad
:04006500bf49d112ac
:04006600bf4d9f02e9
:04006700bf514d3dfb
:04006800bf54db3175
:04006900bf584853e1
:04006a00bf5b941aca
:04006b00bf5ebe05b1
:04006c00bf61c59813
:04006d00bf64aa5969
:04006e00bf676bd825
:04006f00bf6a09a7b4
:04007000bf6c835e80
:04007100bf6ed89ee8
:04007200bf71090849
:04007300bf731447fc
:04007400bf74fa0b50
:04007500bf76ba0791
:04007600bf7853f804
:04007700bf79c79de9
:04007800bf7b14be78
:04007900bf7c3b28e5
:04007a00bf7d3aac60
:04007b00bf7e13240d
:04007c00bf7ec46d12
:04007d00bf7f4e6d86
:04007e00bf7fb10f80
:04007f00bf7fec4310
:04008000bf8000003d
:04008100bf7fec430e
:04008200bf7fb10f7c
:04008300bf7f4e6d80
:04008400bf7ec46d0a
:04008500bf7e132403
:04008600bf7d3aac54
:04008700bf7c3b28d7
:04008800bf7b14be68
:04008900bf79c79dd7
:04008a00bf7853f8f0
:04008b00bf76ba077b
:04008c00bf74fa0b38
:04008d00bf731447e2
:04008e00bf7109082d
:04008f00bf6ed89eca
:04009000bf6c835e60
:04009100bf6a09a792
:04009200bf676bd801
:04009300bf64aa5943
:04009400bf61c598eb
:04009500bf5ebe0587
:04009600bf5b941a9e
:04009700bf584853b3
:04009800bf54db3145
:04009900bf514d3dc9
:04009a00bf4d9f02b5
:04009b00bf49d11276
:04009c00bf45e40375
:04009d00bf41d87017
:04009e00bf3daef9bb
:04009f00bf396842bb
:0400a000bf3504f371
:0400a100bf3085bb2c
:0400a200bf2beb4a3b
:0400a300bf273656e7
:0400a400bf22679977
:0400a500bf1d7fd12b
:0400a600bf187fc040
:0400a700bf13682af1
:0400a800bf0e39da74
:0400a900bf08f59bfc
:0400aa00bf039c3db7
:0400ab00befc5d2713
:0400ac00bef15aea5d
:0400ad00bee6337503
:0400ae00bedae8804e
:0400af00becf7bca7b
:0400b000bec3ef15c7
:0400b100beb8442a67
:0400b200beac7cd490
:0400b300bea09ae56c
:0400b400be94a03125
:0400b500be888e93e0
:0400b600be78cfcc75
:0400b700be605c13b8
:0400b800be47c5c2b8
:0400b900be2f10a2a4
:0400ba00be164083ab
:0400bb00bdfab27365
:0400bc00bdc8bd36c8
:0400bd00bd96a9053e
:0400be00bd48fb300e
:0400bf00bcc90ab0fe
:00000001FF
