:040000003f8000003d
:040001003f7ffec47b
:040002003f7ffb1130
:040003003f7ff4e661
:040004003f7fec430b
:040005003f7fe1292f
:040006003f7fd397ce
:040007003f7fc38fe5
:040008003f7fb10f76
:040009003f7f9c1881
:04000a003f7f84ab05
:04000b003f7f6ac702
:04000c003f7f4e6d77
:04000d003f7f2f9d65
:04000e003f7f0e58ca
:04000f003f7eea9da9
:040010003f7ec46dfe
:040011003f7e9bc9ca
:040012003f7e70b00d
:040013003f7e4323c6
:040014003f7e1324f4
:040015003f7de0b19a
:040016003f7dabccb3
:040017003f7d747441
:040018003f7d3aac42
:040019003f7cfe73b7
:04001a003f7cbfc99f
:04001b003f7c7eb0f8
:04001c003f7c3b28c2
:04001d003f7bf531ff
:04001e003f7baccdab
:04001f003f7b61fcc6
:040020003f7b14be50
:040021003f7ac51647
:040022003f7a7302ac
:040023003f7a1e847e
:040024003f79c79dbc
:040025003f796e4e63
:040026003f79129874
:040027003f78b47bef
:040028003f7853f8d2
:040029003f77f1101c
:04002a003f778bc5cc
:04002b003f772417e0
:04002c003f76ba075a
:04002d003f764d9736
:04002e003f75dec676
:04002f003f756d9715
:040030003f74fa0b14
:040031003f74842272
:040032003f740bdd2f
:040033003f73913f47
:040034003f731447bb
:040035003f7294f88a
:040036003f721352b0
:040037003f718f572f
:040038003f71090803
:040039003f7080662e
:04003a003f6ff573ac
:04003b003f6f68307b
:04003c003f6ed89e9d
:04003d003f6e46be0e
:04003e003f6db293cd
:04003f003f6d1c1dd8
:040040003f6c835e30
:040041003f6be858d1
:040042003f6b4b0cb9
:040043003f6aab7bea
:040044003f6a09a75f
:040045003f69659119
:040046003f68bf3c14
:040047003f6816a850
:040048003f676bd8cb
:040049003f66becc84
:04004a003f660f8876
:04004b003f655e0ba4
:04004c003f64aa590a
:04004d003f63f473a6
:04004e003f633c5a76
:04004f003f6282107a
:040050003f61c598af
:040051003f6106f213
:040052003f604621a4
:040053003f5f832761
:040054003f5ebe0548
:040055003f5df6be57
:040056003f5d2d538a
:040057003f5c61c7e2
:040058003f5b941a5c
:040059003f5ac450f6
:04005a003f59f26aae
:04005b003f591e6a81
:04005c003f5848536e
:04005d003f57702673
:04005e003f5695e58f
:04005f003f55b993bd
:040060003f54db31fd
:040061003f53fac34c
:040062003f531849a7
:040063003f5233c60f
:040064003f514d3d7e
:040065003f5064aff5
:040066003f4f7a1f6f
:040067003f4e8d90eb
:040068003f4d9f0267
:040069003f4cae79e1
:04006a003f4bbbf855
:04006b003f4ac77fc2
:04006c003f49d11225
:04006d003f48d8b37d
:04006e003f47de65c5
:04006f003f46e22afc
:040070003f45e40321
:040071003f44e3f530
:040072003f43e20026
:040073003f42de2901
:040074003f41d870c0
:040075003f40d0da5e
:040076003f3fc767da
:040077003f3ebc1b31
:040078003f3daef961
:040079003f3ca00365
:04007a003f3b8f3b3e
:04007b003f3a7ca4e8
:04007c003f3968425e
:04007d003f385216a0
:04007e003f373a23ab
:04007f003f36206c7c
:040080003f3504f311
:040081003f33e7bc66
:040082003f32c8c978
:040083003f31a81d44
:040084003f3085bbc9
:040085003f2f61a503
:040086003f2e3bdef0
:040087003f2d14698c
:040088003f2beb4ad5
:040089003f2ac082c8
:04008a003f29941561
:04008b003f2866059f
:04008c003f2736567e
:04008d003f26050afb
:04008e003f24d22514
:04008f003f239da9c5
:040090003f2267990b
:040091003f212ff9e3
:040092003f1ff6cb4b
:040093003f1ebc123e
:040094003f1d7fd1bc
:040095003f1c420cbe
:040096003f1b02c644
:040097003f19c2004b
:040098003f187fc0ce
:040099003f173c07ca
:04009a003f15f6d93f
:04009b003f14b03925
:04009c003f13682a7c
:04009d003f121eb040
:04009e003f10d3cd6f
:04009f003f0f878404
:0400a0003f0e39dafc
:0400a1003f0cead056
:0400a2003f0b9a6b0b
:0400a3003f0a48ad1b
:0400a4003f08f59b81
:0400a5003f07a1363a
:0400a6003f064b8244
:0400a7003f04f4849a
:0400a8003f039c3d39
:0400a9003f0242b11f
:0400aa003f00e7e448
:0400ab003eff17b24b
:0400ac003efc5d2792
:0400ad003ef9a02d4b
:0400ae003ef6e0cb6f
:0400af003ef41f07f5
:0400b0003ef15aead9
:0400b1003eee947912
:0400b2003eebcbbb9b
:0400b3003ee900b76b
:0400b4003ee633757c
:0400b5003ee363fac9
:0400b6003ee0924f47
:0400b7003eddbe79f3
:0400b8003edae880c4
:0400b9003ed8106bb2
:0400ba003ed53641b8
:0400bb003ed25a09ce
:0400bc003ecf7bcaee
:0400bd003ecc9b8b0f
:0400be003ec9b9532b
:0400bf003ec6d5293b
:0400c0003ec3ef1537
:0400c1003ec1071e17
:0400c2003ebe1d4ad7
:0400c3003ebb31a06f
:0400c4003eb8442ad4
:0400c5003eb554ec04
:0400c6003eb263eff4
:0400c7003eaf713a9d
:0400c8003eac7cd4fa
:0400c9003ea986c402
:0400ca003ea68f12ad
:0400cb003ea395c5f6
:0400cc003ea09ae5d3
:0400cd003e9d9e783e
:0400ce003e9aa08630
:0400cf003e97a117a0
:0400d0003e94a03189
:0400d1003e919ddde2
:0400d2003e8e9a22a2
:0400d3003e8b9507c4
:0400d4003e888e9341
:0400d5003e8586ce10
:0400d6003e827dc029
:0400d7003e7ee6e1a2
:0400d8003e78cfccd3
:0400d9003e72b6516c
:0400da003e6c9a7f5f
:0400db003e667c669b
:0400dc003e605c1313
:0400dd003e5a3997b7
:0400de003e54150176
:0400df003e4dee6044
:0400e0003e47c5c210
:0400e1003e419b37ca
:0400e2003e3b6ecf64
:0400e3003e354098ce
:0400e4003e2f10a2f9
:0400e5003e28defcd7
:0400e6003e22abb655
:0400e7003e1c76de67
:0400e8003e164083fd
:0400e9003e1008b706
:0400ea003e09cf8676
:0400eb003e03950239
:0400ec003dfab273b4
:0400ed003dee387636
:0400ee003de1bc2e06
:0400ef003dd53db905
:0400f0003dc8bd3614
:0400f1003dbc3ac315
:0400f2003dafb680e8
:0400f3003da3308c6d
:0400f4003d96a90587
:0400f5003d8a200a16
:0400f6003d7b2b74af
:0400f7003d621469e9
:0400f8003d48fb3054
:0400f9003d2fe007b0
:0400fa003d16c32cc0
:0400fb003cfb49bac7
:0400fc003cc90ab041
:0400fd003c96c9b6ae
:0400fe003c490e90db
:0400ff003bc90f8862
:00000001FF
