:040000003f8000003d
:040001003f7fec430e
:040002003f7fb10f7c
:040003003f7f4e6d80
:040004003f7ec46d0a
:040005003f7e132403
:040006003f7d3aac54
:040007003f7c3b28d7
:040008003f7b14be68
:040009003f79c79dd7
:04000a003f7853f8f0
:04000b003f76ba077b
:04000c003f74fa0b38
:04000d003f731447e2
:04000e003f7109082d
:04000f003f6ed89eca
:040010003f6c835e60
:040011003f6a09a792
:040012003f676bd801
:040013003f64aa5943
:040014003f61c598eb
:040015003f5ebe0587
:040016003f5b941a9e
:040017003f584853b3
:040018003f54db3145
:040019003f514d3dc9
:04001a003f4d9f02b5
:04001b003f49d11276
:04001c003f45e40375
:04001d003f41d87017
:04001e003f3daef9bb
:04001f003f396842bb
:040020003f3504f371
:040021003f3085bb2c
:040022003f2beb4a3b
:040023003f273656e7
:040024003f22679977
:040025003f1d7fd12b
:040026003f187fc040
:040027003f13682af1
:040028003f0e39da74
:040029003f08f59bfc
:04002a003f039c3db7
:04002b003efc5d2713
:04002c003ef15aea5d
:04002d003ee6337503
:04002e003edae8804e
:04002f003ecf7bca7b
:040030003ec3ef15c7
:040031003eb8442a67
:040032003eac7cd490
:040033003ea09ae56c
:040034003e94a03125
:040035003e888e93e0
:040036003e78cfcc75
:040037003e605c13b8
:040038003e47c5c2b8
:040039003e2f10a2a4
:04003a003e164083ab
:04003b003dfab27365
:04003c003dc8bd36c8
:04003d003d96a9053e
:04003e003d48fb300e
:04003f003cc90ab0fe
:00000001FF
